:020000040800F2
:10A000004864002045A1000891BF000889BF0008EE
:10A010008DBF0008F9A70008A9C4000800000000CF
:10A0200000000000000000000000000041C1000826
:10A03000FDA7000800000000C1BF000865C10008BE
:10A040005FA100085FA100085FA100085FA10008F0
:10A050005FA100085FA100085FA100085FA10008E0
:10A060005FA100085FA100085FA100085FA10008D0
:10A070005FA100085FA1000841AB0008A5AB000884
:10A080005FA100085FA100085FA100085FA10008B0
:10A090005FA100085FA100085FA100085FA10008A0
:10A0A0005FA100085FA100085FA100085FA1000890
:10A0B0005FA100085FA100085FA100085FA1000880
:10A0C0005FA100085FA100085FA100085FA1000870
:10A0D0005FA100082DC400085FA100085FA100086F
:10A0E0005FA100085FA100085FA100085FA1000850
:10A0F0005FA100085FA100085FA100085FA1000840
:10A100005FA100085FA100085FA100085FA100082F
:10A110005FA100085FA1000899C100085FA10008C5
:10A120005FA100085FA100085FA100085FA100080F
:10A13000DFF80CD000F04EFB0048004725DF000898
:10A14000486400200648804706480047FEE7FEE7CF
:10A15000FEE7FEE7FEE7FEE7FEE7FEE7FEE7FEE7D7
:10A1600095C1000831A100082DE9F0410024061B2B
:10A17000254671F1000605DA01240027D0EB07001F
:10A1800067EB0101161E73F1000605DA0027D2EB1A
:10A190000702012567EB030300F0B1F986460E467E
:10A1A00017469C46AC4204D00025D0EB050E65EB6B
:10A1B000010624B10020D2EB000760EB030C7046CF
:10A1C00031463A466346BDE8F08140EA01039B0709
:10A1D00003D009E008C9121F08C0042AFAD203E01C
:10A1E00011F8013B00F8013B521EF9D27047D2B280
:10A1F00001E000F8012B491EFBD270470022F6E770
:10A2000010B513460A4604461946FFF7F0FF2046EC
:10A2100010BD30B504460020034600E05B1C9342AD
:10A2200003D2E05CCD5C401BF8D030BDF0B480EAD6
:10A230000102D40F4200B2EB410F02D2024608469F
:10A2400011464A0042D0C30DDDB2C1F3C752AD1A68
:10A25000202D35DAC1F3160141F4000204B1524257
:10A26000C5F1200602FA06F12A411044B3EBD05F93
:10A2700023D0C4B1012DA0EBC35009DCF0BC4FF0DA
:10A28000004202EAC352DBB200F5000000F080B9E0
:10A29000400000F1807000EBC350A0F1807040EAF4
:10A2A000D170490009E0490841EAC071A0EBC350F0
:10A2B00000F50000400800EBC350F0BC00F05FB9AF
:10A2C0006142012202EB4101001BF6E7F0BC70473E
:10A2D00081F00041AAE780F00040A7E780EA010290
:10A2E00010B502F00043400022D04A001FD0010EFA
:10A2F00001EB1261C0F35600C2F3560240F40000B5
:10A3000042F40002A0FB022000047F39140400D0B4
:10A31000401C50EA124001D44000491EC2B20C0653
:10A3200004EBD010401C4008802A02D003E000203B
:10A3300010BD20F00100002900DA0020184310BDF4
:10A3400030B480EA010202F0004530F0004221F012
:10A35000004013D090B1C30DD40DC2F31601C0F369
:10A360001600E41A41F4000140F400027D349142E9
:10A3700001D3641C00E04900002C02DA30BC00204C
:10A3800070474FF400000023914201D3891A034320
:10A3900040084FEA4101F7D151B1914202D14FF04B
:10A3A000004105E002D24FF0010101E06FF0010130
:10A3B00003EBC450284430BC00F0E1B8002801DBB6
:10A3C000C0F10040002901DBC1F10041814201D20E
:10A3D0000120704700207047002801DBC0F10040D9
:10A3E000002901DBC1F10041814201D90120704700
:10A3F00000207047C10F80EAE0700844CA07962326
:10A40000002100F0C5B896230022114600F0C0B824
:10A4100000F0004220F00040C10DC0F3160040F4EF
:10A4200000007F2901DA00207047962903DCC1F182
:10A430009601C84001E096398840002AF4D0404295
:10A44000704720F00040C10DC0F3160040F400003A
:10A450007F2901DA00207047962903DCC1F19601BB
:10A46000C840704796398840704710B500F00044E6
:10A4700020F00040C20DC0F3160040F400007F2A17
:10A4800002DA0020014610BD0021962A03DCC2F149
:10A490009602D04002E0963A00F062F8002CF2D02A
:10A4A0000023D0EB030063EB010110BD00F000427C
:10A4B00030F000400AD0C10D01F56071C0F3160004
:10A4C00042EA0151C208400711437047002001468B
:10A4D000704730B50B46014600202022012409E0D8
:10A4E00021FA02F59D4205D303FA02F5491B04FA4D
:10A4F00002F52844151EA2F10102F1DC30BD2DE960
:10A50000F05F0546002092469B46884606468146F7
:10A5100040241BE0284641464746224600F091FA77
:10A5200053465A46C01A914110D311461846224646
:10A5300000F016F82D1A67EB01084F46224601205D
:10A54000002100F00DF817EB00094E41201EA4F188
:10A550000104DFDC484631462A464346BDE8F09F09
:10A56000202A04DB203A00FA02F1002070479140D3
:10A57000C2F1200320FA03F31943904070470029E9
:10A58000A8BF7047401C490008BF20F00100704779
:10A5900010B4B0FA80FC00FA0CF050EA010404BFD9
:10A5A00010BC704749B1CCF1200421FA04F411FA2F
:10A5B0000CF118BF012121430843A3EB0C01CB1D73
:10A5C0004FEA00614FEA102042BF002010BC7047E4
:10A5D00000EBC35010440029A4BF10BC7047401CBE
:10A5E000490008BF20F0010010BC70472DE9FE4F64
:10A5F000804681EA0300C00F0C46009021F0004124
:10A6000023F00045B8EB0200A94105D2404621469F
:10A6100090461C460B46024623F00040104347D0AC
:10A62000270DC7F30A00C3F30A510290401A0190A4
:10A6300040286BDAC3F3130040F4801B0098924665
:10A6400020B10023D2EB030A63EB0B0B01985946B0
:10A65000C0F140025046FFF783FF06460D465046C4
:10A660005946019A00F0FDF910EB08006141002401
:10A6700087EA115284EAE7731A4340D0009A62B322
:10A68000019A012A4FEA075215DC001B61EB020117
:10A690004FF0004202EA0752CDE90042001C41F5AA
:10A6A000801132462B4600F0FDF903B0BDE8F08F73
:10A6B00040462146F9E7001B61EB0201001C41F511
:10A6C000801300185B412018A2F5001747EB030127
:10A6D00040EAD570B6196D4111E06D084FEA3606B3
:10A6E00045EAC0754FEA0752001B61EB0201001CEE
:10A6F00041F5801149084FEA3000001951413246B6
:10A700002B4603B0BDE8F04F00F0BDB90098012220
:10A7100040000023D0EB020263EBE0730098214677
:10A720004FEAE074B8EB000061EB0401E9E783F065
:10A7300000435BE781F0004158E7C1F30A52C1F3DF
:10A74000130140F2FF3341F480119A4202DA0020F3
:10A750000146704740F233439A42A2F2334202DC90
:10A76000524200F06EB9FFF7FBBE000030B5041E88
:10A7700071F1000404DB4FF00044404264EB01013E
:10A78000141E73F1000405DB1C464FF000435242D7
:10A7900063EB0403994208BF904230BD002801DBFF
:10A7A000C0F10040002901DBC1F10041814202D229
:10A7B0004FF0004004E04FF0005001D14FF0C04096
:10A7C000EFF3008121F07F4141EA000181F300882D
:10A7D00070470000064C074D06E0E06840F00103BA
:10A7E00094E8070098471034AC42F6D3FFF7A4FC76
:10A7F0000C1B01082C1B0108FEE700007047704786
:10A8000030302E30302E30310000000000000000CB
:10A810000000000000000000000000000000000038
:10A8200030302E30302E30310000000000000000AB
:10A830000000000000000000000000000000000018
:10A840004A616E2031362032303236202D203131AF
:10A850003A30323A353100000000000000000000BC
:10A860004D7953544D3332000000000000000000C9
:10A8700000000000000000000000000000000000D8
:10A880002DE9FE4F81EA030404F0004421F0004169
:10A8900000944FF0000B23F0004350EA01045ED017
:10A8A00052EA03045BD0C3F30A54C1F30A552C44A3
:10A8B000A4F2F3340194A0FB0254C1F3130141F458
:10A8C0008011C3F3130343F4801301FB024400FB24
:10A8D000034E840A970A44EA815447EA8357A4FB4B
:10A8E000076802958D0A05FB07854FEA932C04FB48
:10A8F0000C542705029D4FEA065847EA1637B5EB78
:10A9000008056EEB070C870E920E47EA811742EAA4
:10A910008312A7FB0201B6EB0B0164EB00042B0DC5
:10A9200043EA0C335E1844EB1C50DA465146E7FB11
:10A930000201C5F313044FEA0B3343EA14534FEA01
:10A940000432019C43EA0603A4F10C040294009C27
:10A95000CDE900B400F0A6F803B0BDE8F08F002008
:10A960000146F9E72DE9F04D81EA030404F0004BBC
:10A9700021F0004514464FF0000A23F0004150EA50
:10A98000050220D054EA01021DD0C5F30A57024641
:10A99000C5F31303C1F31300C1F30A5640F4801545
:10A9A00043F48013A7EB0608101BD64608F2FD38C7
:10A9B00073EB050002D308F1010801E092185B4136
:10A9C000B8F1000F03DA00200146BDE8F08D002049
:10A9D0004FF48011064684460EE0171B73EB050703
:10A9E00005D3121B63EB050306434CEA010C49082F
:10A9F0004FEA300092185B4150EA0107EDD152EA6C
:10AA0000030012D082EA040083EA0501084305D05E
:10AA1000101BAB4106D20122002306E000224FF0BA
:10AA2000004302E06FF0010253101AEB06004CEBFA
:10AA3000085110EB0A0041EB0B01BDE8F04D00F0AE
:10AA400022B8202A04DB203A21FA02F000217047C4
:10AA500021FA02F3D040C2F1200291400843194686
:10AA60007047202A06DBCB17203A41FA02F043EA6E
:10AA7000E07306E041FA02F3D040C2F120029140B7
:10AA800008431946704710B5141E73F1000408DA24
:10AA9000401C41F1000192185B411A4301D120F0A2
:10AAA000010010BD2DE9F04D92469B4611B1B1FA5F
:10AAB00081F202E0B0FA80F220329046FFF750FDBA
:10AAC00004460F4640EA0A0041EA0B0153465A4643
:10AAD000084313D0114653EA010019D0C8F14002CF
:10AAE0005046FFF7AEFF05460E46504659464246D1
:10AAF000FFF736FD084305D0012004E02046394623
:10AB0000BDE8F08D0020054346EAE0762C4337434C
:10AB10000A986305E40AA0EB08000022FD0A44EA53
:10AB200047540A3002D500200146E9E70105101913
:10AB30006941DDE9084500196941BDE8F04DA2E72A
:10AB400040F230100021C2F20000C4F2020102689B
:10AB500001F180039A4208D9D1F8001489041FD565
:10AB600040F20441C4F2020104E051F8042B9204C3
:10AB700058BF70474FF480520A604FF400520A6089
:10AB80004FF480420A604FF400420A6040F278219C
:10AB9000C2F20001202281F839204FF48071018433
:10ABA00070470000B0B540F2EC05C2F20005802409
:10ABB0002968C4F202046FF07F00A14288BF4FF4FD
:10ABC00060700159490310D42058800358BFB0BDAC
:10ABD00005F056FA2868A04214D940F20440C4F2A5
:10ABE00002004FF400310160B0BD05F049FA286859
:10ABF000A0420CD940F20440C4F202004FF480217C
:10AC00000160B0BD4FF4003044F87C0CB0BD4FF48F
:10AC1000802044F87C0CB0BDB0B5D0E900CED0E9BE
:10AC20000F40012505FA00F060600846CCF80430BA
:10AC3000BEF1100F04BF10460A46CCF80800CCF84D
:10AC40000C20B0BD40F21830C2F200000021C161FA
:10AC500042F21000C4F20200016841F004010160F8
:10AC6000016841F0400101607047000040F2183176
:10AC7000C2F200010022CA6142F21001C4F20201D4
:10AC80000A6842F002020A604860086840F040002A
:10AC90000860704740F21832C2F200020023D3610C
:10ACA00042F21002C4F20202136843F0010313607F
:10ACB0000180704742F20C00C4F202000168C9062C
:10ACC00040F21831C2F2000101D4002204E0CA6946
:10ACD00042F00202CA61102203685B0705D5CB6906
:10ACE00042F0040243F00103CB610369DB0707D0A4
:10ACF000CB6943F00403CB61016921F001010161DB
:10AD000002607047F0B581B042F20C060446C4F20E
:10AD1000020600F08DFA3168C90715D13068800647
:10AD200044BF202030603068C00608D43069C007B6
:10AD300005D13068400702D4002001B0F0BDFFF714
:10AD4000B9FF012001B0F0BD0546671C04D044B92D
:10AD5000032001B0F0BD00BF3068C007DED0002F77
:10AD6000FAD000F065FA401BA042F5D9F0E70000E8
:10AD7000002804BF012070472DE9F04140F2000C8B
:10AD8000C4F2020C01684FF6F8320CF58163CBF681
:10AD9000FD72994238BF02F580624CF6CD430A44F9
:10ADA000CCF6CC43A2FB03236FF003050CF58064C3
:10ADB00005EA9303D0E9012ED0F80C803CBF0024B3
:10ADC000C4F20204C0E90F430B6843F6F075AB43CD
:10ADD0001A43D0E9045442EA0E0242EA0802D0E9DA
:10ADE00006672A43224332433A430A6000214FF464
:10ADF000807281630284BDE8F0410846704700001C
:10AE000010B5044690F82000012821D094F82100C4
:10AE10004FF0010C012884F820C016D1022084F8DC
:10AE200021000020A063D4F800C0DCF8000020F06E
:10AE30000100CCF800002046FFF7EEFE2068E26A31
:10AE400001683AB141F00E010AE0002084F82000C8
:10AE5000022010BD21F004010160016841F00A01E7
:10AE600001602068016841F001010160002010BD0F
:10AE700080B541F20C00C4F202004FF0FF31002215
:10AE8000016042600160026000F018FA002080BD9D
:10AE90002DE9F04140F21838C2F2000898F8182065
:10AEA000012A04BF0220BDE8F081054601202E687A
:10AEB00088F818004CF250300C46FFF723FF022EA2
:10AEC00002D120B1012037E080B1012034E0FFF74A
:10AED000B9FE4CF25030FFF715FF42F21001C4F2F8
:10AEE00002010A6822F004020A6025E04FF0FF30F8
:10AEF0002060D5E9026006EBC020864219D242F2FA
:10AF00001007C4F2020700BF3046FFF7AFFE4CF255
:10AF10005030FFF7F7FE396821F00201396050B96F
:10AF2000D5E9021206F5006601EBC2218E42EBD391
:10AF300002E0012000E02660002188F81810BDE83A
:10AF4000F081000042F21001C4F20201086840F0F2
:10AF5000800200200A6070472DE9F04F81B01C4646
:10AF600040F21833C2F2000392461A7E012A03D13E
:10AF7000022001B0BDE8F08F8146012018764CF226
:10AF800050300E46FFF7BEFEB0BB4D4642F21007F2
:10AF9000B9F1020F18BF0425C4F20207B9F1010F7D
:10AFA00008BF4D4600214FF020096FF01F0B4FF0F6
:10AFB000000800BF0A01A9EB011304FA03F32AFAFF
:10AFC00002F206EB41001A430BEB0111002958BFB6
:10AFD00024FA01F291B2FFF75DFE4CF25030FFF718
:10AFE00091FE396821F00101396028B908F10108A2
:10AFF0005FFA88F18D42DDD840F218320021C2F2AA
:10B000000002117601B0BDE8F08F000042F20400AA
:10B01000C4F20200C16809065CBF0020704740F21C
:10B020002311C4F26751016048F6AB11CCF6EF5121
:10B030000160C068C0F3C010704700002DE9F04FF8
:10B0400083B00C68002C00F0EA80A0F18042A2F5E9
:10B05000843240F2004E4FEAB22241F60047C4F279
:10B06000010E0092C4F20107062200254FF00109EB
:10B070004FF0000B4FF0000AB84208BF05220192C2
:10B0800009E000BF0C680BF1010B34FA0BF205F17B
:10B09000040500F0C48009FA0BF814EA080CF1D09A
:10B0A0004C684FF6FF72C1F21002944210DC122C71
:10B0B00050D8DFE804F0330A41454F4F4F4F4F4F10
:10B0C0004F4F4F4F4F4F4F484C00D1F80CA041E02D
:10B0D0004FF6FF72C1F2210294420FDC0022C1F24E
:10B0E000110294421AD00022C1F21202944215D0E9
:10B0F0000022C1F22102944210D02BE00022C1F2C2
:10B10000220294420AD00022C1F23102944205D0B8
:10B110000022C1F2320294421CD100BF8C6844B1BB
:10B12000012C14BFC0F81480C0F810804FF0080A3A
:10B1300010E04FF0040A0DE0CC6804F1080A09E0C1
:10B140004FF0000A06E0CC6804F1040A02E0CC6883
:10B1500004F10C0A2C460746BCF5807F24BF203C36
:10B1600004373A680F2303FA04F6B2430AFA04F4E8
:10B1700022433A60CA79D2067FF584AF41F21804BF
:10B18000C4F2020422684FF6084842F0010222602D
:10B190002268CFF6FF7802F001020292029A2BF0A9
:10B1A0000302724452F8084005F00C0603FA06F751
:10B1B000009BBC43019F052B38BF1F4607FA06F6CC
:10B1C000344342F808404C68E203DEF8002054BFE4
:10B1D00022EA0C0742EA0C07A203CEF80070DEF860
:10B1E000042054BF22EA0C0742EA0C07E202CEF820
:10B1F0000470DEF8082054BF22EA0C0742EA0C076C
:10B20000A20240F20C44CEF80870C4F20104226895
:10B2100054BF22EA0C0242EA0C02226032E703B079
:10B22000BDE8F08F002A08BF0904016170470000E3
:10B2300045F66470C2F2000000687047B0B5C8B14E
:10B2400004460068D4E901124CF6CC43036045F291
:10B250005553036041608260FFF7EAFF054600BF77
:10B260002068C16841B1FFF7E3FF401B2628F7D9EA
:10B270000320B0BD0120B0BD4AF6AA210160002024
:10B28000B0BD000001684AF6AA2200200A6070479B
:10B2900080B542F20000C4F20200016841F01001E2
:10B2A0000160032000F022F80F2000F005F800F004
:10B2B00007F8002080BD00000020704770470000A4
:10B2C0007047000080B501F0F1F880BD70B51446FC
:10B2D0000D46064601F0FAF82946224600F05AFECD
:10B2E0000146304601F0FAF870BD000080B501F06B
:10B2F00007F980BD2DE9F04381B0002800F0898076
:10B3000042F20008C4F202080446D8F800000D46D4
:10B3100000F0070088420CD2D8F8000020F00700A7
:10B320002843C8F80000D8F8000000F00700A84241
:10B330006FD1206841F204098107C4F2020917D5D0
:10B34000410705D5D9F8001041F4E061C9F80010B3
:10B35000010705D5D9F8001041F46051C9F8001073
:10B36000D9F80010A26821F0F0011143C9F80010CB
:10B37000C00745D1D8F8000000F00700A8420CD95A
:10B38000D8F8000020F007002843C8F80000D8F8DB
:10B39000000000F00700A8423BD12068410707D514
:10B3A000D9F80010E26821F4E0611143C9F80010F7
:10B3B000000708D5D9F80000216920F4605040EA60
:10B3C000C100C9F8000000F079F8D9F8001041F682
:10B3D0008812C1F30311C0F60102515C40F2000271
:10B3E00020FA01F140F21400C2F200000068C2F23B
:10B3F00000021160FFF760FF002001B0BDE8F0839C
:10B400006068022809D0012829D159F8041C890351
:10B4100007D4012001B0BDE8F08359F8041C89016C
:10B42000F7D5D9F8001021F003010843C9F800004E
:10B43000FFF7FEFE064641F2883700BFD9F800004C
:10B44000616800F00C00B0EB810F93D0FFF7F0FEC5
:10B45000801BB842F2D9032001B0BDE8F08359F84F
:10B46000041C8907D5D5DCE740F20000C2F20000D9
:10B470000068704780B5FFF7F7FF41F20401C4F29E
:10B480000201096841F69812C1F30221C0F60102D7
:10B49000515CC84080BD000080B5FFF7E5FF41F278
:10B4A0000401C4F20201096841F69812C1F3C221F5
:10B4B000C0F60102515CC84080BD000041F2040C9E
:10B4C000C4F2020CDCF8003003F00C00082841F252
:10B4D0000020C0F27A0018BF7047C3F383420AA16C
:10B4E0008A5CD90305D440F60010C0F23D005043F9
:10B4F0007047DCF8001008A3C1F34041595C504389
:10B50000B0FBF1F0704700BF02030405060708090D
:10B510000A0B0C0D0E0F1010010200002DE9F04176
:10B5200082B0002800F0C4800446007841F2000692
:10B53000C007C4F2020643D0706800F00C00042873
:10B5400017D0706800F00C00082802D17068C003A2
:10B550000FD465682DB1B5F5A02F10D0B5F5803F9B
:10B5600011D0306820F480303060306820F48020C2
:10B570000CE03068800323D5606808BB98E0306831
:10B5800040F480203060306840F480303060FFF755
:10B590004FFE002D054610D03068800310D4FFF711
:10B5A00047FE401B6428F7D904E100BFFFF740FEC7
:10B5B000401B64284FF0030077D830688003F5D42F
:10B5C0002078800718D5706810F00C0F07D07068CD
:10B5D00000F00C00082826D17068C00323D430681E
:10B5E000800702D52069012862D13068616920F0A6
:10B5F000F80040EAC1003060207800073DD5A0691E
:10B6000038B30020C4F242200121C0F88014FFF7B3
:10B610000FFE0546706A80072DD4FFF709FE401B18
:10B620000228F7D9C6E02069002840F20000C4F2E1
:10B63000422000F0968001210160FFF7F9FD0546E8
:10B6400030688007D1D4FFF7F3FD401B0228F7D9FB
:10B65000B0E00020C4F242200021C0F88014FFF7BF
:10B66000E7FD0546706A800707D5FFF7E1FD401B3F
:10B670000228F7D99EE000F0C5FC207840071BD4D3
:10B68000E5698DB1706800F00C00082847D1012DE4
:10B690000ED07068216A00F480328A4208D1616A53
:10B6A00000F47010884203D1002002B0BDE8F081A0
:10B6B000012002B0BDE8F081F06910F0805808D197
:10B6C000F06940F08050F061F06900F08050019026
:10B6D000019847F20007C4F200073868C00510D48B
:10B6E000386840F480703860FFF7A2FD054600BF5F
:10B6F0003868C00505D4FFF79BFD401B6428F7D9C7
:10B7000058E0E5681DB1052D3CD0012D3ED0306AD2
:10B7100020F001003062306A20F0040039E0002798
:10B72000C4F2422700203866FFF782FD022D05464D
:10B730000CD100BF3068800154D5FFF779FD401B64
:10B7400002284FF00300F5D9AFE700BF3068800151
:10B75000AAD5FFF76DFD401B02284FF00300F5D975
:10B76000A3E700210160FFF763FD0546306880070D
:10B770007FF542AFFFF75CFD401B02284FF003004E
:10B78000F4D992E7306A40F004003062306A40F049
:10B7900001003062FFF74CFD002D054641F288376D
:10B7A00014D000BF306A800713D4FFF741FD401B5F
:10B7B000B842F7D9032002B0BDE8F081FFF738FDA9
:10B7C000401BB8424FF003003FF66FAF306A80076E
:10B7D000F4D4B8F1000F7FF453AFF06920F080503B
:10B7E000F0614DE7206AB0F5803F05D17168A2682D
:10B7F00021F40031114371607168626A21F474119F
:10B8000010430843706001203866FFF711FD0446BD
:10B81000306880013FF548AFFFF70AFD001B0228A2
:10B820004FF00300F4D940E7002804BF012070471F
:10B8300010B50446406A20B10020206104F11400D4
:10B8400005E06068B0F5827F03D004F11C000021A0
:10B85000016094F8510028B9002084F85000204677
:10B8600000F040F8022084F8510094E8071001F439
:10B870008271036802F4044223F0400303602369E9
:10B8800011440CF40062114403F002026369114494
:10B8900003F00102A36901EB020CE16903F40072F9
:10B8A000944401F03801226A8C44A16A02F08002BB
:10B8B0004CEA020C01F4005242EA0C02026004223B
:10B8C00002EA13424260B1F5005F04BFA18D01613D
:10B8D000C16921F40061C16100200121606584F823
:10B8E000511010BD704700002DE9F04381B00446AF
:10B8F00090F85000012803D1022001B0BDE8F08388
:10B900004FF001091D4616460F4684F85090FFF788
:10B910008FFC94F85110012969D18046002F4FF017
:10B92000010018BF002E00F0AA80032084F8510007
:10B93000002060652763A686E686A063A087E0876F
:10B94000A168C4E91000B1F5004F08D12068016872
:10B9500021F040010160016841F480410160A06A6A
:10B96000B0F5005F08D12068016821F40051016042
:10B97000016841F40051016020680168490603D460
:10B98000016841F0400101606168731EE268B1FA2C
:10B9900081F1B3FA83F349095B09B2F5006F41EA1B
:10B9A000030126D139B1216B0988C160B81C20631D
:10B9B000E08E0138E086E08E002840D06E1C09E061
:10B9C000216B31F8022BC2602163E08E0138E086E2
:10B9D000E08EA0B3206881688907F1D4FFF728FCC6
:10B9E000002EF5D0A0EB0800A842F1D325E00220FC
:10B9F00045E039B139780173206B01302063E08E66
:10BA00000138E086E08ED0B16E1C0AE0216B097827
:10BA10000173206B01302063E08E0138E086E08EF8
:10BA200068B1206881688907F0D4FFF701FC002E17
:10BA3000F5D0A0EB0800A842F1D303201FE0A06AD4
:10BA4000B0F5005F04D12068016841F480510160C5
:10BA500020462946424600F0EBFA00281CBF202071
:10BA60006065A06838B9002000902068C168009126
:10BA7000806800900098606D002818BF01200021A8
:10BA800084F8519084F8501001B0BDE8F0830000B4
:10BA90002DE9F04782B0044690F85000012801D10A
:10BAA0000225F3E001201E4617468A4684F850001E
:10BAB000FFF7BEFB94F851108146012940F08880C1
:10BAC000BAF1000F4FF0010518BF002F00F0D88029
:10BAD000002E00F0D58094F8510004281CBF0520EA
:10BAE00084F8510000206065A763E687A687C4F844
:10BAF00030A0E686A16AA686B1F5005F2064606486
:10BB000008D12068016821F400510160016841F406
:10BB10000051016020680168490603D4016841F0C2
:10BB2000400101606168731EE268B1FA81F1B3FA05
:10BB300083F3DDF8288049095B09B2F5006F41EA1B
:10BB4000030154D141B1216B0988C1600AF102009F
:10BB50002063E08E0138E086012608F1010500BF70
:10BB6000E08E18B9E08F002800F09480206881688A
:10BB7000890716D5E18E012E13D191B1216B31F8D1
:10BB8000022BC2602163E18E0139E186E18E39B971
:10BB9000A16AB1F5005F03D1016841F480510160F1
:10BBA00000268168C9070AD0E18F41B1C068A16B46
:10BBB000012621F8020BA163E08F0138E087FFF72F
:10BBC00037FB002DCCD0A0EB09004045C8D356E090
:10BBD0006068B0F5827F08D104294FF002054FD18B
:10BBE000A06800283FF46CAF4AE0022548E041B16C
:10BBF0009AF800100173206B01302063E08E013849
:10BC0000E086012608F10105E08E10B9E08F0028DA
:10BC100040D020688168890719D5E18E012E16D1A0
:10BC2000A9B1216B09780173206B01302063E08E8C
:10BC30000138E086E08E48B9A06AB0F5005F05D112
:10BC40002068016841F48051016000BF002620682F
:10BC50008168C9070BD0E18F49B1C068A16B01268B
:10BC60000870A06B0130A063E08F0138E087FFF718
:10BC7000DFFA002DC8D0A0EB09004045C4D303254E
:10BC8000012084F85100002084F85000284602B0BA
:10BC9000BDE8F087A06AB0F5005F10D12046012111
:10BCA00001224346CDF8009000F0D6F928B1606D2E
:10BCB000032540F002006065E2E72068C068206864
:10BCC0008168C90601D400250CE0616D012541F0B1
:10BCD00002016165016821F400510160016841F4CD
:10BCE00000510160204641464A4600F0A1F918B1D2
:10BCF000202060650125C3E7A0680028C0D100208E
:10BD000001902068C1680191806801900198B7E7AF
:10BD1000002804BF0120704710B5044690F83D008C
:10BD200028B9002084F83C00204600F01FF80220CB
:10BD300084F83D002068211D00F048FA012084F8B5
:10BD4000460084F83E0084F83F0084F8400084F800
:10BD5000410084F8420084F8430084F8440084F8E9
:10BD6000450084F83D00002010BD00007047000031
:10BD700090F83D1001291CBF01207047022180F876
:10BD80003D10006840F6FF32C168C4F200029042E4
:10BD900041F00101C1600FDCB0F1804F1ED040F2D4
:10BDA0000041C4F20001884218D040F60001C4F2FC
:10BDB0000001884212D018E040F60041C4F20001B0
:10BDC00088420BD043F20041C4F20101884205D001
:10BDD00042F60041C4F20101884206D1816801F0B7
:10BDE0000701062904BF00207047016841F00101E6
:10BDF000016000207047000070470000002804BF69
:10BE00000120704710B5044690F8390028B9002089
:10BE100084F83800204600F021F8242084F8390006
:10BE20002068C16821F40051C160204600F0B6FAD4
:10BE30002068016921F490410161416921F02A01E2
:10BE40004161C16841F40051C16000202021E063DC
:10BE500084F8391084F83A1010BD000070470000D3
:10BE600070B582B0054690F83A0020280DD11346EF
:10BE70000A4600294FF0010418BF002B06D095F8A0
:10BE80003800012805D1022400E00224204602B037
:10BE900070BD012085F8380000242220AA62AB85FD
:10BEA000EC6385F83A002968686B4CF2F12C4CF28F
:10BEB000293E4CF2A526C0F6000CC0F6000EC0F6D6
:10BEC00000060431C0E90ACEC0E90C64FEF798FF11
:10BED000019428680168019141680191019985F8F0
:10BEE0003840C16841F48071C160416941F001018D
:10BEF0004161416941F040014161C7E7704700007D
:10BF00007047000070B5044690F83900202808D129
:10BF10004FF0010589B313467AB394F8380001282D
:10BF200001D1022070BD012084F8380000252120B5
:10BF30002162A384E384E56384F839002268206BDE
:10BF40004CF2353C4CF2613E4CF2A526C0F6000C9A
:10BF5000C0F6000EC0F600060432C0E90ACEC0E901
:10BF60000C65FEF74DFF20686FF04001016084F81A
:10BF70003850416941F080014161284670BD0000A0
:10BF80007047000070470000FEE70000FEE7000079
:10BF90007047000000F0070080F00703042B28BF63
:10BFA00004234FF0FF3C03380CFA03F338BF0020A2
:10BFB000994381400CFA00F022EA000008437047E0
:10BFC000EFF30980BFF36F8F0D4B1A6820E9F00F74
:10BFD00010602DE908404FF05F0080F3118803F0F6
:10BFE000A7FF4FF0000080F31188BDE808401968F2
:10BFF0000868B0E8F00F80F30988BFF36F8F7047CF
:10C000003C03002081B040F20000C2F20000006852
:10C0100044F6D351C1F26201A0FB0101480A00902D
:10C0200000BF0098411E00280091F9D101B070476F
:10C03000B0B582B00B460092802100220446002554
:10C0400000F00AF820B1606D032540F02000606523
:10C05000284602B0B0BD00002DE9F04782B00A9C2E
:10C06000984615460E468146FFF7E2F8201A00EB87
:10C070000804FFF7DDF840F20001C2F20001096890
:10C08000C1F3CB3161430191D9F800108968314087
:10C09000891BB1FA81F14909A94203D1002002B0FC
:10C0A000BDE8F087824608F1010709E0D9F80000F1
:10C0B00080683040801BB0FA80F04009A842EDD083
:10C0C000002FF3D0FFF7B4F8A0EB0A00A04207D28C
:10C0D00001980199002808BF0446481E0190E5E731
:10C0E000D9E900014268B1F5827F22F0E0024260A6
:10C0F0000BD1D9F80810B1F5004F02D0B1F5806F1F
:10C1000003D1016821F040010160D9F82810B1F590
:10C11000005F07D1016821F400510160016841F41A
:10C1200000510160012089F85100002089F8500079
:10C13000032002B0BDE8F08700000000000000000E
:10C14000074B19680868B0E8F00F80F30988BFF35F
:10C150006F8F4FF0000080F311884EF00D0E704786
:10C160003C03002080B54FF05F0080F31188BFF3DF
:10C170006F8FBFF34F8F04F07BFC30B14EF604504D
:10C18000CEF200004FF080510160002080F3118852
:10C1900080BD00007047000040F21420C2F2000091
:10C1A00000680169C90708BF70476FF001010161AC
:10C1B00040F2B810C2F20000D0E900124FF27C73D6
:10C1C000C91842F10002C0E90012704710B540F6EC
:10C1D000FF3E0368C4F2000E43F2004C7045C4F207
:10C1E000010C20DCB0F1804F2BD040F20042C4F2B1
:10C1F0000002904225D040F60002C4F200029042B4
:10C200001FD0704523DCB0F1804F2ED040F20042A9
:10C21000C4F20002904228D040F60002C4F20002AC
:10C22000904222D025E040F60042C4F20002904243
:10C2300007D0604505D042F60042C4F201029042A8
:10C24000DFD14A6823F0700313437045DBDD40F60D
:10C250000042C4F20002904207D0604505D042F689
:10C260000042C4F20102904203D1CA6823F4407331
:10C27000134323F080024B69D1F800E08C681A4325
:10C2800060450260C462C0F828E005D042F6004272
:10C29000C4F20102904201D10969016301214161A7
:10C2A00010BD000010B5446A2068406994F8391048
:10C2B000212907D110F0800004D00020E08420461E
:10C2C00000F062F82068406994F83A10222907D1FA
:10C2D00010F0400004D00020E085204600F046F831
:10C2E000E06B40F01000E0632046FFF785FD10BDD5
:10C2F00080B50168406A0968890611D40021C185AA
:10C300000168CA6822F48072CA604A6922F0010298
:10C310004A614A6922F040024A61202180F83A10BD
:10C32000FFF7ECFD80BD000080B5406AFFF7E8FD37
:10C3300080BD000080B50168406A096889060BD499
:10C340000021C1840068416921F080014161C16818
:10C3500041F04001C16080BDFFF712FE80BD0000CA
:10C3600080B5406AFFF70EFE80BD00000168CA6814
:10C3700022F49072CA604A6922F001024A612021C7
:10C3800080F83A10704700000168CA6822F0C002C5
:10C39000CA60202180F839107047000010B50446AB
:10C3A0000068D4E902C22369016921F440511143B4
:10C3B0000161616943EA0C021143C26841F20C63F6
:10C3C0009A431143C1604169A26921F4407111434C
:10C3D00043F60002C4F201029042416102D0FFF72D
:10C3E00049F801E0FFF758F86268192148439100C5
:10C3F000B0FBF1F048F21F51C5F2EB11A0FB012395
:10C400005A096FF0630302FB0300322303EB0010B1
:10C41000A0FB0101F02303EA5113206803EB021291
:10C42000C1F343111144816010BD000010B582B00A
:10C4300040F27824C2F2000420680168C90614D4CE
:10C44000016809071DD4016849075CBF01685FEAFC
:10C45000817124D56FF0040101606FF00201016069
:10C460006FF00101016002B010BD03F009FE002071
:10C47000019020680168019140680190019802B024
:10C4800010BD6FF00801016000210091016800916A
:10C4900040680090009803F083FE02B010BD016870
:10C4A000C907E0D0D6E70000FEE70000002848BF3B
:10C4B000704700F01F01012202FA01F14EF2001252
:10C4C0004009CEF2000242F8201070474EF60C50A0
:10C4D000CEF200000068C0F3022070474EF61453FD
:10C4E00000F00F02CEF2000309011A4400F160438C
:10C4F000B0F1FF3FC8BF03F5644211707047000000
:10C500004EF60C51CEF200010A684FF6FF031A40B6
:10C5100060F30A2242F0806040F0FD7008607047CE
:10C520004EF60C50BFF34F8FCEF20000016804228C
:10C5300001F4E061C0F2FA5211430160BFF34F8F82
:10C5400000BFFDE710B50446406944F22131C1F255
:10C550003421884205D0204602F0A8FD6169884256
:10C5600002D1E06800F018F8012010BD10B540F2CB
:10C570000464C2F2000494F89801400709D404F15D
:10C580009000FFF7DFFFD4F8980140F00400C4F8F2
:10C590009801012010BD0000B0B5016840F22404EC
:10C5A000C2F2000421602168B1F1005F18D921684E
:10C5B0000022C2F20102914212D8406840F22801E2
:10C5C000C2F200010860086840F22005C2F20005CE
:10C5D0002860FEF74DFC206880F3088828688047B3
:10C5E0000120B0BD2DE9F04F81B0054600284FF085
:10C5F000010000F005810C46002900F00181204671
:10C6000002F054FD6169884240F0A880284602F09B
:10C610004DFD6169884200F0CB80E668D4F8109047
:10C62000EF6801F029FAC0051CD501F025FAC00712
:10C6300018D041F6D210C0F6010003F003F9EA6801
:10C64000E168236941F66120C0F6010003F0FAF8C1
:10C6500041F6D010C0F6010003F0F4F840F20110EA
:10C6600000F0C8FBB9F1010FC0F29A804FF000084A
:10C67000009505E05644B9F1000F574440F390800F
:10C68000207AB9F5807FCA4628BF4FF4807AC00768
:10C6900008D140F640113046C2F20001524600F087
:10C6A00063FA07E040F640113046C2F200015246FC
:10C6B00000F0BAFE8346287AC00709D140F640113F
:10C6C0003846C2F20001524600F084FA08E000BF8A
:10C6D00040F640113846C2F20001524600F0EEFE2C
:10C6E0004BEA080141EA00085FEA086070D1A9EB53
:10C6F0000A0901F0C1F9C005BCD501F0BDF9C007B8
:10C70000B8D041F6D210C0F6010003F09BF82569BD
:10C71000A5EB0900FDF777FEA34604462846009DD9
:10C72000FDF771FE014620465C46FDF709FE00213B
:10C73000C4F2C821FDF7D2FDFDF7B8FE02463BA0CA
:10C740000B4603F07FF841F6D010C0F6010003F06D
:10C7500079F840F2011000F04DFB8BE7064601F03E
:10C760008BF9C00518D501F087F9C00714D041F640
:10C77000D210C0F6010003F065F8626922A03146CC
:10C7800003F060F841F6D010C0F6010003F05AF84B
:10C7900040F2011000F02EFB032001B0BDE8F08F45
:10C7A00020692861284602F081FC6169884203D132
:10C7B000002001B0BDE8F08F01F05EF9C00503D59F
:10C7C00001F05AF9C00707D1052001B0BDE8F08F8C
:10C7D000042001B0BDE8F08F41F6D210C0F6010090
:10C7E00003F030F816A003F02DF841F6D010C0F693
:10C7F000010003F027F840F2011000F0FBFA0520D9
:10C8000001B0BDE8F08F00BF536F757263652043C0
:10C8100052433A25303858204352433A253038584D
:10C82000206572726F722E0D0A00000075706461CF
:10C8300074653A20252E326625250D0A0000000079
:10C84000B9CCBCFEBFBDB1B4BAF3A3ACD0A3D1E99F
:10C85000C4BFB1EAC7F8D3F2D0C2B9CCBCFE4352D0
:10C8600043CAA7B0DC2E0D0A00000000B0B540F2AC
:10C870000465C2F20005D5F89801410702D40125EC
:10C880002846B0BD20F00400C5F8980101F0F4F886
:10C89000C00516D501F0F0F8C00712D041F6D2104D
:10C8A000C0F6010002F0CEFF41A002F0CBFF41F63E
:10C8B000D010C0F6010002F0C5FF40F2011000F0F8
:10C8C00099FA05F1900005F5C871FFF78BFE044653
:10C8D00008B1012544E0D5E96E32D5F89C00D5F8C1
:10C8E0009011C5F8BC20D5F8B421C5F8B830D5F8FA
:10C8F000B031C5F8B420D5F89421C5F89010D5F81A
:10C900009C11C5F8B030D5F89831C5F89420D5F809
:10C91000A021C5F89C10D5F8A811C5F89830D5F815
:10C92000A431C5F8A020D5F8AC21C5F8A810D5F8D9
:10C93000CC11C5F8A430C5F8AC20D5F8C821C5F88D
:10C94000CC10D5F89810D5F8C431C5F8C820D5F862
:10C95000C02121F00101C5E93023C5E926100025D9
:10C9600001F08AF8C00521D501F086F8C0071DD076
:10C9700041F6D210C0F6010002F064FF41F6A22099
:10C9800041F6A721C0F60100C0F60101002C08BF46
:10C9900001460BA002F056FF41F6D010C0F6010090
:10C9A00002F050FF40F2011000F024FA2846B0BD1A
:10C9B0000A0D41505020B8FCD0C2D6D02E0D0A002E
:10C9C00041505020B8FCD0C225732E0D0A00000043
:10C9D000B0B540F20465C2F20005D5F81801410770
:10C9E00002D401252846B0BD20F00400C5F8180186
:10C9F00001F042F8C00516D501F03EF8C00712D08C
:10CA000041F6D210C0F6010002F01CFF39A002F07E
:10CA100019FF41F6D010C0F6010002F013FF40F2FA
:10CA2000011000F0E7F905F1100005F58871FFF736
:10CA3000D9FD044608B1012534E0D5E94E32E86954
:10CA4000D5F81011EA63D5F83421AB63D5F830314D
:10CA50006A63D5F814212961D5F81C112B63D5F828
:10CA600018316A61D5F82021E961D5F82811AB6148
:10CA7000D5F824312A62D5F82C21A962D5F84C11B9
:10CA80006B62EA62D5F84821E964A969D5F84431B6
:10CA9000AA64D5F8402121F00101C5E91023C5E9B8
:10CAA0000610002500F0E8FFC00521D500F0E4FFE6
:10CAB000C0071DD041F6D210C0F6010002F0C2FE40
:10CAC00041F6A22041F6A721C0F60100C0F60101FF
:10CAD000002C08BF01460CA002F0B4FE41F6D010B5
:10CAE000C0F6010002F0AEFE40F2011000F082F943
:10CAF0002846B0BD0A0D426F6F7420B8FCD0C2D674
:10CB0000D02E0D0A00000000426F6F7420B8FCD0D8
:10CB1000C225732E0D0A000070B540F20466C2F201
:10CB200000064FF4007048F20004706006F1100136
:10CB300000204FF40072C0F60004002502F02EFB26
:10CB4000B060204631464FF40472FDF762FB48B1F5
:10CB500040F20461C2F2000120464FF4047200F07A
:10CB600039F80546284670BDB0B51446012A054679
:10CB70000CDB01226019C0F60802904206D208467A
:10CB800029462246FDF721FB0020B0BD00F074FFCE
:10CB9000800503D500F070FFC00701D10120B0BDB2
:10CBA00041F6D210C0F6010002F04CFE41F6D4105E
:10CBB000C0F601002946224602F044FE41F6D0109C
:10CBC000C0F6010002F03EFE40F2012000F012F932
:10CBD0000120B0BD2DE9F04F85B01546012A04466D
:10CBE00054DB0E4601212819C0F6080188424DD2B7
:10CBF00040F2F820C2F20000006842F20C0B4FF045
:10CC0000FF31C4F2020B03F055FEFEF7FFF93427A3
:10CC1000EA46CBF8007006E00236023D04F1020459
:10CC2000CBF8007078DD60050CD020883288904207
:10CC3000F2D0012021460023FEF78EF90028EBD028
:10CC400078E000BF002001900120049001A8514627
:10CC50000394FEF71DF90028E7D04FF0080900BF44
:10CC6000A9F101095FEA09680AD001A85146CBF889
:10CC70000070FEF70DF90028F2D1B8F1000FD4D101
:10CC800000F0FAFE80050DD4022446E000F0F4FE28
:10CC9000800501D4012449E000F0EEFEC0070BD16D
:10CCA000012443E000F0E8FE40F2F825C007C2F29C
:10CCB00000051BD1022434E041F6D210C0F6010079
:10CCC00002F0C0FD41F61A20C0F6010021462A46B6
:10CCD00002F0B8FD41F6D010C0F6010002F0B2FD3E
:10CCE00040F2012000F086F801241FE041F6D21046
:10CCF000C0F6010002F0A6FD20A0214602F0A2FD30
:10CD000041F6D010C0F6010002F09CFD40F2012077
:10CD100000F070F8022404E0002440F2F825C2F28A
:10CD20000005FEF70FF9286803F064FC204605B003
:10CD3000BDE8F08F00F0A0FE40F2F8258005C2F2B9
:10CD4000000503D500F098FEC00701D10424E8E7F0
:10CD500041F6D210C0F6010002F074FD16A0214683
:10CD600002F070FD41F6D010C0F6010002F06AFD3D
:10CD700040F2012000F03EF80424D2E763466C61E3
:10CD80007368577269746544617461732048414CDB
:10CD90005F464C41534845785F4572617365206139
:10CDA0006464723A20307825303858206572726F8A
:10CDB000722E0D0A0000000063466C6173685772A2
:10CDC00069746544617461732048414C5F464C410D
:10CDD00053485F50726F6772616D20616464723A8C
:10CDE00020307825303858206572726F72210D0A14
:10CDF0000000000010B540F2D854C007C2F2000491
:10CE00000AD0226840F2D84143F60000C2F2000185
:10CE1000C4F2010003F026FA00210020216010BDB9
:10CE20002DE9F04381B0E1B3814648880C46000407
:10CE300000BA4978B0F5034F25D3A288062912BA63
:10CE40004FEA1248024618BF424493B21B0A8A2B8B
:10CE500019D8102900F5FA4728D0062948D0032907
:10CE600011D100F053F840F654722078B9B2C2F2F2
:10CE7000000202EB41024146234600F0BBF80520C8
:10CE800000EB480305E020780122234600F0F4F887
:10CE900005230026484600212246009600F038F976
:10CEA00000E00126304601B0BDE8F083B8F1000F84
:10CEB00014D040F6547C601DC2F2000C434600BF03
:10CEC00010F8026FBDB22CF815604178013B41EAC1
:10CED000062107F101072CF81510F1D12078A2EBFB
:10CEE000080189B24246234600F0AEF80823D0E795
:10CEF00040F65472B9B2C2F20002207822F81180D2
:10CF00004246234600F09CF80823C2E7F0B540F6FD
:10CF1000547142F6306043F23003C2F20001C3F2B2
:10CF20003010C3F22E03C1E90030C1E9043041F6EC
:10CF3000C010C0F60100D0E9003200F11007D0E9BE
:10CF400002E4E0CFC069C1E9083201F130020423F4
:10CF5000E0C2C86301200322C0F205030627C1E92D
:10CF60000AE4C0F20200A1F80C21C1F81431A1F8C2
:10CF70001871A1F82C21C1F83431A1F838710322BD
:10CF80000523072709260B2501F5007E4FF0000C2D
:10CF9000C1F80801C1F82801C0F20402C0F206037A
:10CFA000C0F20807C0F20A06C0F20C058EE88D0038
:10CFB0000020C1E902CCC1E906CCC1E98465A1F831
:10CFC00018C2F0BDB0B593B1187006205870080AA9
:10CFD0009870100AD97018715A71002019460622EB
:10CFE0001C46002502F0DAF8E0802846B0BD01209A
:10CFF000B0BD000070B503B37D2984BF022070BDB1
:10D00000187003201C4658704800987059B1631C72
:10D01000023A0026D578013603F8025F12F8025F63
:10D020008E425D70F6D3C61C002021463246002594
:10D0300002F0B4F8A053284670BD012070BD000076
:10D0400080B5FFF7BFFF80BDB0B593B11870102059
:10D050005870080A9870100AD97018715A71002017
:10D06000194606221C46002502F098F8E080284662
:10D07000B0BD0120B0BD0000B0B57BB1187041F06B
:10D08000800058709A700020194603221C46002523
:10D0900002F084F8A4F803002846B0BD0120B0BD1A
:10D0A00080B544F20041C4F2000188420AD043F640
:10D0B0000002C4F2010290420BD101F5744000F06D
:10D0C0009BFB80BD44F20040C4F2000000F036F942
:10D0D00080BD012080BD000080B544F2004CC4F248
:10D0E000000C60450AD043F60003C4F201039842E5
:10D0F0000BD10CF5744000F0CBFB80BD44F2004036
:10D10000C4F2000000F01EF980BD012080BD0000C7
:10D110002DE9F04743F6000940F21038C4F2010946
:10D1200044F2004A1D4616460446C2F2000848452D
:10D13000C4F2000A06D0544524D140F2FC20C2F2C9
:10D14000000000E040460068089F4FF0FF3103F008
:10D15000B1FB3846FDF74EF902F01AFC544514D0E5
:10D160004C450CD10AF5744031462A4603F07AF852
:10D17000544514D04C4502D1D8F8000014E00220E8
:10D18000BDE8F0870120BDE8F08744F20040C4F21A
:10D19000000031462A4600F0D9F85445EAD140F261
:10D1A000FC20C2F20000006803F024FA0020BDE871
:10D1B000F08700002DE9F04788B040F2FC2A804655
:10D1C0000020C2F2000ACDE90600CDE90400CDE955
:10D1D0000200DAF800000C4644F200494FF0FF313B
:10D1E000C4F2000903F066FB4846FFF759FF94F8C4
:10D1F00004011427831C4846002122460097FFF7AC
:10D2000087FF60780827102818BF062824D13846E1
:10D21000FDF7F0F84FF07F51FDF760F80021C4F200
:10D22000C821FDF703F8FDF7F3F84FF47A7180FB9E
:10D230000123012102A8009100F044FA484621464A
:10D240003A46FFF749FF054608B302A800F094FDEF
:10D2500002280AD100271AE003282ED1607921790B
:10D26000400040EA4120471DD1E702AE4FF0804028
:10D2700002F08EFB484621463A46FFF72DFF054651
:10D2800028B1304600F078FD0228EFD10027E119DF
:10D29000C7F58072484600F085FDC3190027404657
:10D2A000002122460097FFF733FFDAF8000003F071
:10D2B000A1F9284608B0BDE8F0870027A7E70000DD
:10D2C0002DE9F04117460C46804600F013FE4FF45E
:10D2D0007A7200230025FCF747FF40F63406C2F2BD
:10D2E0000006D6F80811411AB1F5FA7F88BF86F812
:10D2F0000551012FC6F808011CDB7D1C012707E042
:10D3000040463146FFF756FF0746013D012D0EDD31
:10D3100014F8011B304600F0B5FB0628F5D1307833
:10D320008428EDD140463146FFF77AFDECE778B22C
:10D33000BDE8F081012778B2BDE8F08180B500F04A
:10D340005BFA80BD80B500F0A3FA80BDF0B581B076
:10D3500044F20045C4F20005A8421AD105F5504731
:10D3600014460E46384680210122FDF75BFF6820F7
:10D37000002102F00FF828463146224602F072FFE3
:10D380006820002102F006F8384680210022FDF7CF
:10D3900049FF002001B0F0BDB0B582B0010C8DF89E
:10D3A0000510010A8DF806108DF8070000F030F81E
:10D3B00000F00CF908B1012425E001F017FF00F09E
:10D3C00005F908B102241EE040F60045C4F201054B
:10D3D00028464FF480510022FDF724FF40F280449C
:10D3E000C2F200042046202101F04AFE0DF10501A1
:10D3F0002046032200F0F0F8044628464FF48051FE
:10D400000122FDF70FFF00F04FF8204602B0B0BD3B
:10D4100080B540F20030C2F2000000684FF0FF31EA
:10D4200003F048FA80BD00002DE9F04182B00D46BE
:10D43000010C8DF80510010A14468DF806108DF8C0
:10D440000700FFF7E5FF00F0C1F808B1012425E06F
:10D4500040F60048C4F2010840464FF480510022D3
:10D46000FDF7E0FE40F28047C2F200073846032194
:10D4700001F006FE0DF105013846032200F0ACF87C
:10D48000064638462946224600F08AF840EA060455
:10D4900040464FF480510122FDF7C4FE00F004F82D
:10D4A000204602B0BDE8F08180B540F20030C2F203
:10D4B0000000006803F09EF880BD0000F0B581B068
:10D4C00014460D460646FFF7A3FF012C19DB00BFEB
:10D4D000300503D13046FFF75FFFB0B9F0B2C0F5B9
:10D4E0008077BC4298BF2746304629463A4600F02E
:10D4F00013F840B9E41B3E44002C3D44E8DC002412
:10D5000004E0002402E0022400E00124FFF7CCFF45
:10D51000204601B0F0BD00002DE9F04182B00D467B
:10D52000010C8DF80510010A14468DF806108DF8CF
:10D53000070000F04BF808B101242CE001F056FE82
:10D5400000F044F808B1022425E040F60048C4F297
:10D55000010840464FF480510022FDF763FE40F27F
:10D560008047C2F200073846022101F089FD0DF123
:10D5700005013846032200F02FF8064638462946B2
:10D58000224600F029F840EA060440464FF4805154
:10D590000122FDF747FE204602B0BDE8F081000001
:10D5A00089B1012A0FDB80B582B04FF0FF3C93B206
:10D5B0000A46CDF800C0FEF76BFA002818BF01201C
:10D5C000400002B080BD01207047000080B501F02E
:10D5D0001DFD00F0010080BD61B1012A0ADB80B5AC
:10D5E00092B24FF0FF33FEF77FF9002818BF0120F9
:10D5F000400080BD01207047B0B582B04FF61935AC
:10D60000C0F6000526A0142101220023009503F096
:10D61000B9FC044640F20C30C2F20000046003F092
:10D6200021FA0246C825204601210023009503F077
:10D63000EBFC4FF6F524C0F600041CA014210122D7
:10D640000023009403F09EFC044640F20830C2F22E
:10D650000000046003F006FA024620460121002380
:10D66000009503F0D1FC4FF6ED24C0F6000412A0A3
:10D67000642101220023009403F084FC044640F25C
:10D680000430C2F20000046003F0ECF902462046C8
:10D6900001210023009503F0B7FC002002B0B0BDCB
:10D6A00054696D6572206C656400000054696D6595
:10D6B00072206B657900000054696D6572206265A7
:10D6C00065700000B0B1F0B581B0069F1D460446FC
:10D6D000164600F00BFC8019694184E8430020469F
:10D6E0003946E56000F00AF8002001B0BDE8F040DE
:10D6F00040B27047FF2040B27047000010B550B1F3
:10D7000004468807217403D500F0F0FBC4E900014A
:10D71000002040B210BDFF2040B210BD80B582B0E5
:10D7200041F21C00C4F20200016840F2000341F023
:10D73000020101600068C2F2000300F002000190E3
:10D7400001981B6840F2CC104FF0FF31C2F200008C
:10D7500040F2004C002201EBD321C4F2000CC0E9DE
:10D7600002218021C0E900C202618161FEF7D0FA86
:10D77000002002B080BD000010B582B041F21C0054
:10D78000C4F20200016840F2142441F0100101606B
:10D7900000684DF6836100F010000190019840F29E
:10D7A0000000C2F200000068C4F21B31A0FB0101BE
:10D7B00041F20000C2F20004C4F200004FF0FF3258
:10D7C00002EB914100224FF6FF7384E80F008020A6
:10D7D000A06120462261FEF79BFA2046FEF7C8FAB8
:10D7E000362001210022FDF771FD3620FDF76AFD8C
:10D7F000002002B010BD000080B543F60001C4F265
:10D80000010188420AD044F20041C4F2000188427A
:10D810000DD140F25000C2F2000003E040F23400AB
:10D82000C2F20000032100F093FA40B280BD00F084
:10D8300023F9800516D500F01FF9C00712D041F674
:10D84000D210C0F6010001F0FDFF08A001F0FAFFC0
:10D8500041F6D010C0F6010001F0F4FF40F20120C3
:10D86000FFF7C8FA012040B280BD00BF6355617266
:10D870007452656365697665436C6561722063689F
:10D88000616E6E656C206572726F722E0D0A0000FB
:10D8900070B5012A12DB0D4643F60001C4F2010106
:10D8A000144688420CD044F20041C4F20001884280
:10D8B0001BD140F25006C2F2000605E0012070BD07
:10D8C00040F23406C2F20006304600F087FAA04269
:10D8D000BCBF032070BD30462946224600F0DAF96D
:10D8E000002818BF0120800070BD00F0C5F8800539
:10D8F00003D500F0C1F8C00701D1022070BD41F688
:10D90000D210C0F6010001F09DFF07A001F09AFFC0
:10D9100041F6D010C0F6010001F094FF40F2012062
:10D92000FFF768FA022070BD635561727452656337
:10D93000656976654461746173206368616E6E65C4
:10D940006C206572726F722E0D0A0000884204BF4F
:10D950000120704701EA00028A4204BF022070479A
:10D9600041EA000208208A4208BF042070470000F4
:10D97000F0B581B018B38169044611B388470546F4
:10D9800010B9206800283DD021682846FFF7DEFF47
:10D99000074600F0AFFA4FF47A7200230026FCF736
:10D9A000E3FB791E07292ED8DFE801F0040D2D15C1
:10D9B0002D2D2D21204600F029F8064623E00026D3
:10D9C00021E000261FE000260221A182C4E90055C3
:10D9D000C4E9020617E02168E268A9431143E16047
:10D9E000617D20610802061DA68225600BE021688A
:10D9F000E268A9431143C4E90150C4E9031025605A
:10DA0000002600E00026304601B0F0BDB0B5044667
:10DA100000F070FA4FF47A7200230025FCF7A4FBA3
:10DA2000A18A02238A1EB3EB322F0AD04FEA322298
:10DA3000012A13D082B9A268801A322819D3012092
:10DA400012E0A268801A41F28832904211D3042079
:10DA500060F31F210D46A182A8B2B0BDA268801A52
:10DA6000B0F5FA6F05D3022060F31F2188B2A182BE
:10DA7000B0BD0025A8B2B0BD40F20400C2F2000063
:10DA800000687047002804BF0020704710B50446A6
:10DA900090F80501062804BF002084F8050194F8D9
:10DAA0000501052813D8DFE800F015031223374BD2
:10DAB00000201029617084F8040108D80120482250
:10DAC0008840C0F20102104201D003226CE0002025
:10DAD00084F8050101294FF00102217018BF842943
:10DAE00062D0962908BF84F8052194F8050110BD7D
:10DAF00094F804216078531C2244102884F80431DF
:10DB0000917028D0062801D003282DD194F8040163
:10DB1000032826D9052028E094F804216078531CB6
:10DB20002244102884F8031184F80431917026D01F
:10DB3000062801D0032829D100202146062222E010
:10DB400094F8040184F80211421C204484F8042152
:10DB50008170042228E0A07994F8041105308842ED
:10DB6000D8D994F8050100E0002094F8041184F855
:10DB70000501FB2994BF94F80521002214E0A07947
:10DB80002146C21D002001F009FB00E0002094F8AE
:10DB90000211C2B291424FF0000205D194F8031174
:10DBA000B1EB102F08BF062284F8052194F8050177
:10DBB00010BD0000002804BF02207047012BBCBF2D
:10DBC00003207047DDF800C0013380F818C002EB75
:10DBD000030C80E80610C0E903224361002070476F
:10DBE000B0B582B040F2340040F640320125C2F2B6
:10DBF00000001AA1C2F200024FF400730095FFF773
:10DC0000D9FF044640F2500040F64452C2F20000F0
:10DC100015A1C2F200024FF400730095FFF7CAFF8E
:10DC2000044314D0FFF728FF800510D5FFF724FF29
:10DC3000C0070CD00FA001F005FE0FA001F002FEFE
:10DC400013A001F0FFFD40F20120FFF7D3F8002CF4
:10DC500018BF0124204602B0B0BD00BF55617274E8
:10DC60002030205265616400556172742031205269
:10DC7000656164003A000000656E756D51756575EB
:10DC800065496E6974206572726F722E0D0A00000C
:10DC90000D00000070B560B10446406848B10D4603
:10DCA00029B12046164600F099F8B04203DA012067
:10DCB00070BD022070BD012E0FDB701CE1680138C1
:10DCC0004A1CE260097805F8011BD4E9022191425F
:10DCD00028BF61680128E160F0DC002070BD000011
:10DCE000F0B581B088B10446406870B1204617464F
:10DCF0000E4600F081F88446B84209DA207E0128F9
:10DD00004FF0040005D101B0F0BD022001B0F0BD1C
:10DD10000020012F0FDB7A1C236916F8011B5D1C04
:10DD200025611970A1682369013A8B4228BF636895
:10DD3000012A2361F0DCBC45E5DA2169A2680131E2
:10DD4000E160914228BF6168E16001B0F0BD000070
:10DD500010B570B10446406858B103291CBF0020BB
:10DD600010BD6169FCF74AFA6068C4E9030000204D
:10DD700010BD022010BD000010B588B10446007C23
:10DD8000C00704BF002010BD00F0B0F8D4E90023A4
:10DD9000801A71EB03004FF00200B8BF012010BDE4
:10DDA000082010BD80B544F2004CC4F2000C604560
:10DDB0000AD043F60003C4F2010398420BD10CF5DC
:10DDC000744000F02FF880BD44F20040C4F200001F
:10DDD00000F024F880BD002080BD000050B14168F3
:10DDE00041B1D0E90312914291BF501A4069511AD2
:10DDF000084470470020704768B1416859B1D0E9C4
:10DE00000312914282BFD043084470474069D24315
:10DE100011440844704700207047000080B500F0AE
:10DE200001F880BDF0B581B0002947D01546012A20
:10DE300044DB0C4643F60001C4F2010188420AD0DB
:10DE400044F20041C4F2000188421CD140F2500665
:10DE5000C2F2000603E040F23406C2F20006304689
:10DE6000FFF7BCFF012829DB0746A842C8BF2F46A1
:10DE7000304621463A46FFF70DFF002818BF00271D
:10DE8000384601B0F0BDFFF7F7FD800516D5FFF766
:10DE9000F3FDC00712D041F6D210C0F6010001F028
:10DEA000D1FC08A001F0CEFC41F6D010C0F6010074
:10DEB00001F0C8FC40F20120FEF79CFF002001B0F9
:10DEC000F0BD00BF63556172745265636569766524
:10DED000416C6C4461746173206368616E6E656C43
:10DEE000206572726F722E0D0A00000080B500F07E
:10DEF00001F880BD10B540F2B81E41F2240CC2F208
:10DF0000000EC4F2000C00BFDEE90031DCF8002096
:10DF1000DEE900044C4058402043F5D1981841F107
:10DF2000000110BD84B04EF608504AF20001CEF256
:10DF30000000C0F60001016001F074FAFEF716FB64
:10DF4000FDF7A6F941F21800C4F20200016841F0A1
:10DF500001010160006800F00100039003980320B4
:10DF6000FDF7C4F901F0DCFDFFF706FC02F018F93B
:10DF7000FFF782FD400516D5FFF77EFDC00712D0E2
:10DF800041F6D210C0F6010001F05CFC81A001F066
:10DF900059FC41F6D010C0F6010001F053FC40F2EC
:10DFA0000140FEF727FFFFF767FD400519D5FFF792
:10DFB00063FDC00715D041F6D210C0F6010001F094
:10DFC00041FC00F0E9F9014678A001F03BFC41F684
:10DFD000D010C0F6010001F035FC40F20140FEF720
:10DFE00009FFFFF749FD400519D5FFF745FDC007BB
:10DFF00015D041F6D210C0F6010001F023FC00F06C
:10E000008DF9014670A001F01DFC41F6D010C0F65C
:10E01000010001F017FC40F20140FEF7EBFEFFF7B4
:10E020002BFD400519D5FFF727FDC00715D041F698
:10E03000D210C0F6010001F005FC00F029FA0146FB
:10E0400068A001F0FFFB41F6D010C0F6010001F01E
:10E05000F9FB40F20140FEF7CDFEFFF70DFD400554
:10E060001CD5FFF709FDC00718D041F6D210C0F645
:10E07000010001F0E7FB00F0CDF9014641F6DB209D
:10E08000C0F6010001F0DEFB41F6D010C0F6010041
:10E0900001F0D8FB40F20140FEF7ACFEFFF7ECFCCC
:10E0A000400519D5FFF7E8FCC00715D041F6D2109E
:10E0B000C0F6010001F0C6FB00F0F2F8014652A0E4
:10E0C00001F0C0FB41F6D010C0F6010001F0BAFB30
:10E0D00040F20140FEF78EFEFFF7CEFC40051CD556
:10E0E000FFF7CAFCC00718D041F6D210C0F60100F5
:10E0F00001F0A8FB00F096F8014641F6AC20C0F60E
:10E10000010001F09FFB41F6D010C0F6010001F0C4
:10E1100099FB40F20140FEF76DFEFFF7ADFC4005B4
:10E120001ED5FFF7A9FCC0071AD041F6D210C0F6E1
:10E13000010001F087FB40F20000C2F2000001681C
:10E1400041F6C520C0F6010001F07CFB41F6D0107D
:10E15000C0F6010001F076FB40F20140FEF74AFEF6
:10E160000E2040F2300C00904FF6A17041F6FA21DB
:10E17000C2F2000CC0F60000C0F601014FF40072BC
:10E180000023CDF804C002F0D9FB01F09DFE00BFD2
:10E19000FEE700BF0A0A0D426F6F746C6F61646521
:10E1A000722073746172742E0D0A0000426F6F74D6
:10E1B00020736F6674776172652076657273696F1C
:10E1C0006E3A2025730D0A00426F6F7420736F66DC
:10E1D000747761726520646174653A2025730D0A55
:10E1E00000000000426F6F746C6F61646572207391
:10E1F0006F6674776172652076657273696F6E3AC7
:10E200002025730D0A00000041505020736F667482
:10E21000776172652076657273696F6E3A20257337
:10E220000D0A000010B54AF64000C0F60100D0F813
:10E2300000C04AF64400C0F60100D0F800E04AF6FB
:10E240004800C0F6010003684AF64C00C0F6010021
:10E2500001684AF65000C0F6010002684AF6540010
:10E26000C0F60100046840F2DC50C2F20000C0E9D0
:10E2700002314AF65801C0E90424C0E900CEC0F6D4
:10E28000010109684AF65E0281614AF65C01C0F646
:10E290000101C0F60102127809888277818310BDDE
:10E2A00010B54AF62000C0F60100D0F800C04AF6CA
:10E2B0002400C0F60100D0F800E04AF62800C0F6BD
:10E2C000010003684AF62C00C0F6010001684AF616
:10E2D0003000C0F6010002684AF63400C0F60100C2
:10E2E000046840F2DC50C2F20000C0E902314AF694
:10E2F0003801C0E90424C0E900CEC0F60101096874
:10E300004AF63E0281614AF63C01C0F60101C0F6C0
:10E310000102127809888277818310BD10B540F61A
:10E320004000C0F60000D0F800C040F64400C0F63F
:10E330000000D0F800E040F64800C0F60000036896
:10E3400040F64C00C0F60000016840F65000C0F6F0
:10E350000000026840F65400C0F60000046840F275
:10E36000DC50C2F20000C0E9023140F65801C0E9B9
:10E370000424C0E900CEC0F60001096840F65E0240
:10E38000816140F65C01C0F60001C0F6000212781F
:10E3900009888277818310BD10B540F62000C0F651
:10E3A0000000D0F800C040F62400C0F60000D0F80D
:10E3B00000E040F62800C0F60000036840F62C009C
:10E3C000C0F60000016840F63000C0F600000268A8
:10E3D00040F63400C0F60000046840F2DC50C2F29F
:10E3E0000000C0E9023140F63801C0E90424C0E968
:10E3F00000CEC0F60001096840F63E02816140F699
:10E400003C01C0F60001C0F600021278098882774C
:10E41000818310BD10B54AF64000C0F60000D0F868
:10E4200000C04AF64400C0F60000D0F800E04AF60A
:10E430004800C0F6000003684AF64C00C0F6000031
:10E4400001684AF65000C0F6000002684AF654001F
:10E45000C0F60000046840F2DC50C2F20000C0E9DF
:10E4600002314AF65801C0E90424C0E900CEC0F6E2
:10E47000000109684AF65E0281614AF65C01C0F655
:10E480000001C0F60002127809888277818310BDEE
:10E4900010B54AF62000C0F60000D0F800C04AF6D9
:10E4A0002400C0F60000D0F800E04AF62800C0F6CC
:10E4B000000003684AF62C00C0F6000001684AF626
:10E4C0003000C0F6000002684AF63400C0F60000D2
:10E4D000046840F2DC50C2F20000C0E902314AF6A2
:10E4E0003801C0E90424C0E900CEC0F60001096883
:10E4F0004AF63E0281614AF63C01C0F60001C0F6D0
:10E500000002127809888277818310BD2DE9F043DB
:10E5100081B00E4646F23801C2F200010D6840F2A9
:10E520004431C2F20001D1F8008040F24C3140F297
:10E530003C34C2F20001C2F20004D1F8009021681C
:10E540000746081D00F06CFE10B1781C0FD028E0C3
:10E55000206845F67872C06AC2F200020121136891
:10E5600001FA00F023EA00001060781C19D1C6B14E
:10E5700046F21000C2F20000D0E900122368013117
:10E580009A6093682768FB602368976804337B6010
:10E5900023680433936022680160506101B0BDE8D4
:10E5A000F0832068ED194560206800F1040105D36F
:10E5B000484601F01BF901B0BDE8F083404601F088
:10E5C00015F945F6DC70C2F2000001688D4238BFD3
:10E5D000056001B0BDE8F0832DE9F041044601F08B
:10E5E00051F945F66870C2F20000016840F23C350E
:10E5F00001310160C2F20005296846F20408C2F246
:10E60000000849B1D8F8000060B92868E16AC06A1A
:10E61000884298BF2C6005E02C600068012801D179
:10E6200000F01CFA45F67470C2F20000016845F66D
:10E63000787201310160E06AC2F2000201211368C0
:10E6400081401943116040F2543100EB8000C2F266
:10E65000000101EB80025368271D9E68A360E660FD
:10E660009E689F6051F8203062615A1C776041F8C3
:10E67000202001F017F9D8F8000088B12868E16A75
:10E68000C06A884228BFBDE8F0814EF60450CEF241
:10E6900000004FF080510160BFF34F8FBFF36F8FC9
:10E6A000BDE8F08170B501F0EDF846F23C06C2F22B
:10E6B0000006306810B101F0F5F870BD45F68074C1
:10E6C000C2F20004204601F081F845F69475C2F2CA
:10E6D0000005284601F07AF840F24030C2F200000E
:10E6E000046040F25030C2F2000005600A200C21A4
:10E6F000002201F083FE306001F0D4F870BD00000C
:10E70000F0B581B045F66C75C2F200052868E0B13D
:10E7100046F2240645F66877C2F20006C2F2000708
:10E7200001F0B0F8F068C468201D00F079FD386889
:10E730000138386028680138286001F0B3F82046B5
:10E7400000F0A0F828680028EAD101B0F0BD000070
:10E7500080B5026C002A08BF80BDD0E902C3134413
:10E76000C360634524BF0368C360C3680846194695
:10E77000FBF72BFD80BD000070B5866B036C044673
:10E78000E3B115461AB3E0681A46FBF71EFDE168CF
:10E79000206C2268091A9142E16003D2A1684042CC
:10E7A0000844E060A81EB0FA80F040093146002E0F
:10E7B00018BF01210840361A002516E02068002500
:10E7C00098B9A06802F01CFAA56005460DE06068E3
:10E7D0001A46FBF7FAFC216CD4E901020025084433
:10E7E0006060904224BF20686060711C2846A1636D
:10E7F00070BD000080B586B0002044F249418DF81C
:10E800000C00C4F24C5145F6D47C00904EF6391001
:10E810000291C2F2000CC0F6000002A9802200237F
:10E82000CDF804C002F08AF806B080BD2DE9F043AF
:10E8300083B00746900098461546894600F052FB83
:10E8400070B10646542000F04DFB30B1542104460F
:10E85000FBF7D4FC26632CB90FE0304601F030F80A
:10E86000002454B1DDE90A102A46CDE900103846EB
:10E8700049464346029400F095F8204603B0BDE8AF
:10E88000F083000010B50446006B01F019F8204633
:10E8900001F016F810BD0000416A00290FBF0020EA
:10E8A000006B0068C0F10F007047000040F240317B
:10E8B000C2F2000109680A68B2FA82F35B090360D8
:10E8C000002A0EBF0020C8680068704741F65670E5
:10E8D000C2F20000C21D22F0070210F0070CA0EBEC
:10E8E000020318BF104646F20802C2F200020021DD
:10E8F000C2E900014FF48042BCF1000F18BF03F5DC
:10E9000080420244083A40F2483322F00702C2F241
:10E9100000031A60C2E90011111A1A68C0E9002147
:10E9200045F6D870C2F20000016045F6D070C2F220
:10E93000000001607047000040F254344EF6045568
:10E94000C2F20004CEF200054FF0805602E000BF94
:10E9500000F078FCFFF7D4FE20680228F8D32E6080
:10E96000BFF34F8FBFF36F8FF2E70000002808BF9F
:10E97000704780B500210160C0E90211002100222A
:10E98000002301F09BFDBDE88040704780B5002961
:10E9900014BF1A601B60C3E90F011846012101F082
:10E9A0004DFD80BD2DE9F04381B0DDE909870546C5
:10E9B000386B089C00EB82000438994620F007066B
:10E9C00069B107F1340000228B5C83548B5C1BB16E
:10E9D0000F2A02F10102F7D3002087F84300381D07
:10E9E0000E2C28BF0E24FC627C6400F0FBFE07F1B5
:10E9F000180000F0F7FE84F00F00B8613046294699
:10EA00004A463F617F6200F0F1FAB8F1000F3860CA
:10EA100018BFC8F8007001B0BDE8F0832DE9F043DD
:10EA200081B0DDE908951C4690460E460746FFF783
:10EA300039FE281D2F60C5E90664C5F8209000F056
:10EA4000D1FEB8F1000F05D095F8240040F0040085
:10EA500085F8240001B0BDE8F0830000B0B540F2B5
:10EA600054350024C2F20005281900F0AFFE14341A
:10EA7000B4F5967FF8D145F6A874C2F2000420469A
:10EA800000F0A4FE45F6BC75C2F20005284600F071
:10EA90009DFE45F6F070C2F2000000F097FE46F2CF
:10EAA0002400C2F2000000F091FE46F21000C2F213
:10EAB000000000F08BFE40F24430C2F2000004601F
:10EAC00040F24C30C2F200000560B0BD80B546F2A5
:10EAD0000802C2F2000200BF114612688242FBD354
:10EAE000D1F804C001EB0C03834203D140686044B9
:10EAF00048600846D0F804C000EB0C03934201D0F4
:10EB000013460BE040F24833C2F200031B689A42FE
:10EB100004D0D2E9003E0EEB0C0242608142036059
:10EB200018BF086080BD000080B58C46014641F8E2
:10EB300004CF9445006108D99A4201D29C4511D274
:10EB400040F24030C2F2000007E08069D21A8242EF
:10EB500008D240F25030C2F20000006800F046FED9
:10EB6000002080BD012080BD10B5044600F08AFE63
:10EB7000A06BB0FA80F0440900F094FE204610BD6E
:10EB800010B5044600F07EFEA06BE16B401AB0FAAF
:10EB900080F0440900F086FE204610BD064800685B
:10EBA000006880F3088862B661B6BFF34F8FBFF389
:10EBB0006F8F00DF00BF00BF08ED00E070B540F2CE
:10EBC0004032C2F2000212680646D2680D46D4688E
:10EBD000201D00F025FB94F82400410704D400F028
:10EBE000FE0084F8240004E0204631462A4600F066
:10EBF000BFF8216A2046884770BD00002DE9F0412A
:10EC000084B046F23C04C2F2000400212068CDE941
:10EC10000211019101A9002201F004FD002863D036
:10EC2000E84601AD07E000BF20682946002201F058
:10EC3000F9FC002858D001980028F5D4039E70698B
:10EC400010B1301D00F0ECFA404600F0C3F8019915
:10EC500001390829E8D80746DFE801F014142C052B
:10EC60003E14142C050096F82400029940F001008F
:10EC700086F82400B161394430463A463B46FFF7F6
:10EC800053FFD1E796F82400029BB16940F00100E0
:10EC900086F82400194430463A46FFF745FF00281D
:10ECA000C2D096F8240041070BD400F0FE0086F88D
:10ECB00024000DE096F8240000F0FE0086F8240001
:10ECC000B2E70298B1693A460144304600F050F884
:10ECD000316A30468847A7E796F824008107EBD4CD
:10ECE000304600F0EDFD9FE704B0BDE8F081000084
:10ECF00070B582B00E46044601F012F901A800F08A
:10ED000069F8019919B102F091F802B070BD054699
:10ED10004EB9A54207D302F089F820462946FFF7ED
:10ED20004DFF02B070BD4EB140F25030C2F2000053
:10ED300000680068B0FA80F0420900E0002246F264
:10ED40003C00C2F200000068611B00F0FFFD02F011
:10ED50006DF80028D9D14EF60450CEF200004FF0E5
:10ED600080510160BFF34F8FBFF36F8F02B070BD52
:10ED700070B5054680690E46014428463346144660
:10ED8000FFF7D2FE002808BF70BD00BFA869296A3E
:10ED9000064428468847A8692246811928463346F2
:10EDA000FFF7C2FE0028F1D170BD000040F24430F0
:10EDB000C2F200000168096819B10068C068006803
:10EDC00001E04FF0FF3045F6DC71C2F2000108604F
:10EDD0007047000070B5044601F044FE40F238363A
:10EDE000C2F2000631680546884203D200F008F8F6
:10EDF000012000E0002020602846356070BD000042
:10EE000010B540F24034C2F200042068016849B1F4
:10EE1000C0684FF0FF310068FFF7D0FE206801683E
:10EE20000029F5D140F25031C2F200010A680860B1
:10EE3000226010BD81B0002000904FF05F0080F391
:10EE40001188BFF36F8FBFF34F8F00BF009800286A
:10EE5000FCD001B07047000082B001AC2046FFF743
:10EE600025FD0199FFF744FFFFF7C8FEF6E7000014
:10EE7000F0B581B0044600F005FD94F94560012E1F
:10EE80000FDB04F1240500BF286850B1284601F0CB
:10EE90005FFF002818BF00F08BFF70B2013E012811
:10EEA000F2DCFF2684F8456000F0FCFC00F0EAFC90
:10EEB00094F94470012F0EDB04F11005286850B15D
:10EEC000284601F045FF002818BF00F071FF78B216
:10EED000013F0128F2DC84F8446000F0E3FC01B05B
:10EEE000F0BD000070B500F10805092D01D2002524
:10EEF0000AE010F0070007D0A0F109018D429ABF87
:10EF0000281A00F10805002501F00AF840F24836F9
:10EF1000C2F200063068002808BFFFF7D7FC012DB9
:10EF20004FF0000451DB45F6D07CC2F2000CDCF857
:10EF30000000854249D846F20801C2F200010B6880
:10EF40001A4652F8044FAC4211D2186858B100BFAB
:10EF5000024652F8044F19460346AC4207D21868DD
:10EF60000028F5D103E046F20801C2F20001306842
:10EF7000834229D0D1F800E01868641B112C086086
:10EF800004D35E197460156058510E6045F6D87050
:10EF90001168DCF80040C2F200000568611AA9425D
:10EFA000CCF8001038BF0160106845F6E47140F0FD
:10EFB0000040C2F2000110600A6800200EF108044F
:10EFC0001860501C086000E0002401F02FFF20466C
:10EFD00070BD000040F23C30C2F200000068002822
:10EFE00008BF7047816C01318164704703464EF65B
:10EFF0003560C0F600004FF0807C21F0010103E98C
:10F000000310A3F1400043F8202C7047F0B581B005
:10F0100041F65470C2F200000088FF2568B34FF635
:10F02000FF71884229D040F60044C4F20104204612
:10F030004FF480510022FCF7F5F840F28046C2F20E
:10F0400000063046052100F01BF84BF2E017CFF622
:10F05000FF7700BF3046FF2100F012F80546C007D9
:10F0600005D00A20002100F095F90137F2D320469F
:10F070004FF480510122FCF7D5F8284601B0F0BDCD
:10F0800080B582B08DF8071000218DF806104FF082
:10F09000FF3C0DF107010DF106020123CDF800C080
:10F0A000FCF7F6FC9DF8060002B080BD2DE9F047A4
:10F0B00082B082464FF6FF70BAF1000FADF806003D
:10F0C00008D0DAF81060B6F5801F07D9022002B028
:10F0D000BDE8F087012002B0BDE8F0875EB3DAF842
:10F0E0000C5040F640190024C2F200090DF1060848
:10F0F0009AF80800B6F5807F374628BF4FF480772E
:10F10000C00705D1284649463A46FDF72DFD04E0E3
:10F11000284649463A46FEF787F9044320060AD1B5
:10F12000404649463A4600F039F8F61B002E3D4469
:10F13000ADF80600DCDCBDF8060002B0BDE8F087E3
:10F1400070B582B040F600449020C4F201040190F2
:10F1500020464FF480510022FCF764F840F28045CD
:10F16000C2F2000501A928460422FEF735FA284616
:10F17000FF21FFF785FF06462846FF21FFF780FFA6
:10F1800040EA062520464FF480510122FCF74AF858
:10F19000FEF78AF9284602B070BD0000B0B54FF006
:10F1A000000301B3012A1EDB002814BF03884FF6B9
:10F1B000FF73012A17DB4AF2010E00BF087894465C
:10F1C000013A4340002000BF8EEA5304DD0708BF28
:10F1D0005C082346072800F10100F5D3BCF1020FBB
:10F1E00001F10101EADA98B2B0BD000010B540F6B5
:10F1F0000044C4F2010420464FF480510022FCF781
:10F2000011F840F28040C2F200000621FFF738FFFB
:10F2100020464FF480510122FCF704F810BD000095
:10F22000D0E9013201699A60D1F804C0826884454E
:10F23000536008BF4A600B6800220261581E0860D4
:10F240007047000080B501F09DF880BD80B540F6A4
:10F250000040C4F201004FF480710022FBF7E2FF8E
:10F2600080BD000080B540F64870C2F20000016821
:10F270000131016040F2FE50C2F200000078012826
:10F2800002D100F011F880BDFFF7E0FF80BD000063
:10F2900080B540F60040C4F201004FF480710122B5
:10F2A000FBF7C0FF80BD000010B540F2FE54C2F273
:10F2B00000046078013807284AD8DFE800F03639C2
:10F2C0000404041A1A1A40F64870C2F200000268D8
:10F2D0004CF6CD41CCF6CC414A43B2F1333F37D85E
:10F2E0000068A0FB01018808C00726D1FFF7AEFF28
:10F2F00025E040F64870C2F200000068C00702D165
:10F30000FFF7A4FF01E0FFF7C3FF607806281FD0D6
:10F3100094F902104A1E0029A270C8BF10BD012135
:10F32000072808BF0221617010BDFFF78FFF01E0C1
:10F33000FFF7AEFF0020607010BDFFF7A9FF6078F7
:10F34000032805D094F902104A1E0029A27000DD9E
:10F3500010BD01210428E4E7C00709D040F2FE50A7
:10F36000C2F2000041704FF0FF3101EB42018170A9
:10F3700040F64870C2F200000021016070470000B2
:10F3800080B54FF47A72A0FB020301FB023100F05A
:10F3900001F880BDB0B50C460546FEF7ABFD2D1853
:10F3A0004C4100BFFEF7A6FD401B71EB0400F9DBEA
:10F3B000B0BD000040F20460C2F200004FF00061F6
:10F3C000C1618169826D21F00101D0F898308161BD
:10F3D0004AF20001D0F818C1C0F6000122F0010283
:10F3E000C0E9162101F5803123F00102C0E9262190
:10F3F00000214CF00102C0E94621D0F858214FF419
:10F40000C041C0F85C1142F00101D0F89821C0F869
:10F4100058114FF4B031C0F89C1142F00101C0F80E
:10F4200098117047B0B540F20464C2F2000448F28B
:10F430000000C0F6000021464FF40472FDF794FB73
:10F44000A56844F22130C1F23420854208BFB0BD26
:10F4500062680020B0EB922F09D104F11001002066
:10F46000FFF79CFE854218BFFFF7A4FFB0BDFFF772
:10F47000A1FFB0BD800758BF704780B541F60000BE
:10F48000C4F2010020210022FBF7CCFEBDE8804041
:10F4900070470000B0B50C46054608464FF07E5157
:10F4A000FAF79AFF002818BF4FF07E54204600213B
:10F4B00002F056FAE9790446022912D1E8680828D0
:10F4C0001CD0042827D098BBA8680568E86AFAF71A
:10F4D0009AFF01462046FAF701FFFAF7B2FF686388
:10F4E000B0BD20460021FAF777FF0146286811B128
:10F4F00000F076F8B0BDFFF7BDFFB0BDA8680568A5
:10F50000E86AFAF780FF01462046FAF7E7FEFAF7C5
:10F5100098FFE863B0BDA8680568E86AFAF773FF6A
:10F5200001462046FAF7DAFEFAF78BFFA863B0BD72
:10F53000A8680568E86AFAF766FF01462046FAF708
:10F54000CDFEFAF77EFF2864B0BD000040F6507093
:10F55000C2F2000001684EF61B421431016040F611
:10F560004C70C2F200000168C9F2CB521431016044
:10F570000168A1FB02235A0B43F2B06302FB131193
:10F58000016040F21C0040F2FC51C2F20000C2F2E5
:10F59000000190F900200B881A440A80B1F900207C
:10F5A0006D2AC2BFFF2101707047B1F9001011F13F
:10F5B0000E0FB4BF0121017801707047B0B5FFF79D
:10F5C000C5FF40F61400C2F20000002400F110054F
:10F5D00000F016F8002C04F101042846F6D0B0BD66
:10F5E000800758BF704780B541F60000C4F20100A3
:10F5F00020210122FBF716FEBDE880407047000085
:10F6000010B50446C07900282BD02079282828D8A6
:10F61000DFE800F08A8D27919527272727271515E2
:10F620001527272727272727282828272727272779
:10F63000272773272727272727272727A50040F6CF
:10F640005070C2F20000016845F62942CCF28F22C8
:10F6500051434DF20A724FEA3111C0F2A3029142B6
:10F660002DD910BD40F65070C2F2000001684CF672
:10F670006312C9F22F62514349F603524FEA311126
:10F68000C0F236029142ECD8006848F2B511C1F6DA
:10F690004E31A0FB010108064FF07E5101EAE071F6
:10F6A0002046FFF7F7FE20791428DAD094F90510E8
:10F6B0004A1E00296271C8BF10BD153818E00068E5
:10F6C00048F21F51C5F2EB11A0FB010108064FF0F3
:10F6D0007E5101EAE0712046FFF7DCFE20790A281E
:10F6E000BFD094F905104A1E00296271B9DC0B38AD
:10F6F000B0FA80F04009207110BD40F2FC50C2F217
:10F700000000B0F90010002944D4B0F90010B0F99D
:10F7100000004843FAF76EFE45F27F11C3F6AD01D3
:10F72000FAF7DCFD014647E02046002112E02046C2
:10F730004FF07E510EE020464FF07C510AE094F9E4
:10F740000600FAF757FE0021C4F2C821FAF7F8FDC7
:10F7500001462046FFF79EFEFF20207110BD40F6B7
:10F760004C70C2F200000268016852094A2A06D8A9
:10F7700048F21F50C5F2EB10A1FB000117E0026830
:10F78000C9094A2908D848F2B510C1F64E30A2FB83
:10F7900000010CE000210FE042F6DF618A420FD841
:10F7A000006848F21F51C5F2EB11A0FB01010806E9
:10F7B0004FF07E5101EAE0712046FFF76BFE10BD6D
:10F7C00020460021FFF766FE10BD00004FF0FF311C
:10F7D000024642F8081F0021C0E90322C0E90012D6
:10F7E00070470000002101617047000080B5D1F82A
:10F7F00000C01CF1010207D000F108039E465B68BF
:10F800001A686245FAD901E0D0F810E0DEF8042069
:10F8100008614A6091600268C1F808E0CEF80410FF
:10F82000511C016080BD00004268D0F800C09368A0
:10F830004A608B6093689160596008610CF1010126
:10F840000160704783B010B581B0844603A80EC034
:10F8500003AB40F2D8540093C2F20004206840F297
:10F86000D8412268C2F200010844C2F580716246A4
:10F8700001F0EAFB21680844206001B0BDE81040B7
:10F8800003B070474FF05F0080F31188BFF36F8FB4
:10F89000BFF34F8F40F21800C2F20000016801313F
:10F8A0000160704740F21800C2F20000016801399F
:10F8B000016018BF7047002080F311887047000076
:10F8C000B0B528B1044650F8040CB0F1FF3F00DD9C
:10F8D000B0BDA4F108052968002918BFB0BD20F00B
:10F8E000004044F8040C00F01BFB45F6D071C2F256
:10F8F000000154F8040C0A68104408602846FFF719
:10F90000E5F845F6E870C2F20000016801310160D7
:10F9100001F08CFAB0BD00004EF21000CEF20000F3
:10F9200000210160816040F20001C2F2000109681B
:10F9300044F6D352C1F26202A1FB02124FF0FF3132
:10F9400001EB9211416007210160704770B51546C7
:10F950000E460446FFF796FF94F84400FF2804BFC4
:10F96000002084F8440094F84500FF2804BF0020DC
:10F9700084F84500FFF796FFA06B28B904F1240036
:10F9800031462A4600F02CFA2046FFF771FA70BD86
:10F9900010B54FF07E510446FAF710FD002818BF4D
:10F9A00010BD01F04BF8022805D12046FAF749FDB9
:10F9B00000F0E6F810BD2046FAF757FDFFF7E0FC2F
:10F9C00010BD00002DE9F04385B0002641F218007B
:10F9D000CDE90366CDE90166C4F20200016840F694
:10F9E000004441F0080101600168C4F2010401F023
:10F9F000080100910099416801AD41F480414160E6
:10FA000040684FF0010800F48040009000984FF4E7
:10FA100080500190032720462946CDF8088004979E
:10FA2000FBF70CFB20464FF480510122FBF7FAFB59
:10FA30004FF4204001904FF0020920462946CDF8AE
:10FA400008900497FBF7FAFA4FF48040CDE90106DD
:10FA5000204629460396FBF7F1FA40F28040A4F5D0
:10FA60005441C2F200004FF482724FF40073182721
:10FA700080E846000A21C0E90369C0E90583C7613F
:10FA8000C0E90866C0E90A61FBF7CEFE05B0BDE833
:10FA9000F0830000F0B581B040F60044C4F20104E8
:10FAA000FFF790FF20464FF480510022FBF7BAFB8E
:10FAB00041F654760825C2F200064FF6FF7705E0BE
:10FAC0000A200021FFF75CFC013D07D0FFF738FB5F
:10FAD00081B2B9423080F3D00029F1D020464FF4F2
