:020000040801F1
:10A00000406D002045A101089DCE010895CE0108B4
:10A0100099CE0108F9A7010805D601080000000043
:10A0200000000000000000000000000051D0010806
:10A03000FDA7010800000000D1CE010875D001087D
:10A040005FA101085FA101085FA101085FA10108EC
:10A050005FA101085FA101085FA101085FA10108DC
:10A060005FA101085FA101085FA101085FA10108CC
:10A070005FA101085FA101089DAC010801AD0108C5
:10A080005FA101085FA101085FA101085FA10108AC
:10A09000A9D501085FA101085FA101085FA101081E
:10A0A0005FA101085FA101085FA101085FA101088C
:10A0B0005FA101085FA101085FA101085FA101087C
:10A0C0005FA101085FA101085FA101085FA101086C
:10A0D0005FA101082DD501085FA101085FA101085A
:10A0E0005FA101085FA101085FA101085FA101084C
:10A0F0005FA101085FA101085FA101085FA101083C
:10A100005FA101085FA101085FA101085FA101082B
:10A110005FA101085FA10108A9D00108DDD00108F5
:10A120005FA101085FA101085FA101085FA101080B
:10A13000DFF80CD000F086FC004800478DF00108E5
:10A14000406D00200648804706480047FEE7FEE7CE
:10A15000FEE7FEE7FEE7FEE7FEE7FEE7FEE7FEE7D7
:10A16000A5D0010831A101082DE9F0410024061B0A
:10A17000254671F1000605DA01240027D0EB07001F
:10A1800067EB0101161E73F1000605DA0027D2EB1A
:10A190000702012567EB030300F0BDF986460E4672
:10A1A00017469C46AC4204D00025D0EB050E65EB6B
:10A1B000010624B10020D2EB000760EB030C7046CF
:10A1C00031463A466346BDE8F08140EA01039B0709
:10A1D00003D009E008C9121F08C0042AFAD203E01C
:10A1E00011F8013B00F8013B521EF9D27047D2B280
:10A1F00001E000F8012B491EFBD270470022F6E770
:10A2000010B513460A4604461946FFF7F0FF2046EC
:10A2100010BD10B5044604E00B7800F8013B03B113
:10A22000491C521EF8D2204610BD30B5044600200D
:10A23000034600E05B1C934203D2E05CCD5C401B14
:10A24000F8D030BDF0B480EA0102D40F4200B2EB86
:10A25000410F02D20246084611464A0042D0C30DC1
:10A26000DDB2C1F3C752AD1A202D35DAC1F31601A4
:10A2700041F4000204B15242C5F1200602FA06F18F
:10A280002A411044B3EBD05F23D0C4B1012DA0EB21
:10A29000C35009DCF0BC4FF0004202EAC352DBB20B
:10A2A00000F5000000F080B9400000F1807000EB84
:10A2B000C350A0F1807040EAD170490009E049081C
:10A2C00041EAC071A0EBC35000F50000400800EB6C
:10A2D000C350F0BC00F05FB96142012202EB4101C2
:10A2E000001BF6E7F0BC704781F00041AAE780F060
:10A2F0000040A7E780EA010210B502F000434000E9
:10A3000022D04A001FD0010E01EB1261C0F35600AB
:10A31000C2F3560240F4000042F40002A0FB022007
:10A3200000047F39140400D0401C50EA124001D4CC
:10A330004000491EC2B20C0604EBD010401C40087D
:10A34000802A02D003E0002010BD20F00100002987
:10A3500000DA0020184310BD30B480EA010202F098
:10A36000004530F0004221F0004013D090B1C30D01
:10A37000D40DC2F31601C0F31600E41A41F4000133
:10A3800040F400027D34914201D3641C00E0490096
:10A39000002C02DA30BC002070474FF4000000238C
:10A3A000914201D3891A034340084FEA4101F7D192
:10A3B00051B1914202D14FF0004105E002D24FF07D
:10A3C000010101E06FF0010103EBC450284430BCEF
:10A3D00000F0E1B8002801DBC0F10040002901DBFA
:10A3E000C1F10041814201D2012070470020704735
:10A3F000002801DBC0F10040002901DBC1F1004170
:10A40000814201D90120704700207047C10F80EAC6
:10A41000E0700844CA079623002100F0C5B89623CF
:10A420000022114600F0C0B800F0004220F00040C9
:10A43000C10DC0F3160040F400007F2901DA0020AE
:10A440007047962903DCC1F19601C84001E09639B6
:10A450008840002AF4D04042704720F00040C10DEF
:10A46000C0F3160040F400007F2901DA0020704795
:10A47000962903DCC1F19601C8407047963988409F
:10A48000704710B500F0004420F00040C20DC0F34A
:10A49000160040F400007F2A02DA0020014610BDB9
:10A4A0000021962A03DCC2F19602D04002E0963ADF
:10A4B00000F062F8002CF2D00023D0EB030063EB35
:10A4C000010110BD00F0004230F000400AD0C10D83
:10A4D00001F56071C0F3160042EA0151C20840075D
:10A4E0001143704700200146704730B50B460146C6
:10A4F00000202022012409E021FA02F59D4205D323
:10A5000003FA02F5491B04FA02F52844151EA2F1CC
:10A510000102F1DC30BD2DE9F05F054600209246D6
:10A520009B4688460646814640241BE02846414615
:10A530004746224600F098FA53465A46C01A9141BF
:10A5400010D311461846224600F016F82D1A67EB74
:10A5500001084F4622460120002100F00DF817EBBC
:10A5600000094E41201EA4F10104DFDC48463146BB
:10A570002A464346BDE8F09F202A04DB203A00FA31
:10A5800002F1002070479140C2F1200320FA03F34A
:10A590001943904070470029A8BF7047401C4900EC
:10A5A00008BF20F00100704710B4B0FA80FC00FA38
:10A5B0000CF050EA010404BF10BC704749B1CCF163
:10A5C000200421FA04F411FA0CF118BF01212143EF
:10A5D0000843A3EB0C01CB1D4FEA00614FEA1020AA
:10A5E00042BF002010BC704700EBC350104400294C
:10A5F000A4BF10BC7047401C490008BF20F00100F8
:10A6000010BC70472DE9FE4F804681EA0300C00F61
:10A610000C46009021F0004123F00045B8EB020009
:10A62000A94105D24046214690461C460B460246AB
:10A6300023F00040104347D0270DC7F30A00C3F3AF
:10A640000A510290401A019040286BDAC3F31300BC
:10A6500040F4801B0098924620B10023D2EB030AFD
:10A6600063EB0B0B01985946C0F140025046FFF7CF
:10A6700083FF06460D4650465946019A00F004FAFB
:10A6800010EB08006141002487EA115284EAE77365
:10A690001A4340D0009A62B3019A012A4FEA075246
:10A6A00015DC001B61EB02014FF0004202EA075289
:10A6B000CDE90042001C41F5801132462B4600F0E6
:10A6C00004FA03B0BDE8F08F40462146F9E7001BCD
:10A6D00061EB0201001C41F5801300185B4120185A
:10A6E000A2F5001747EB030140EAD570B6196D419A
:10A6F00011E06D084FEA360645EAC0754FEA075289
:10A70000001B61EB0201001C41F5801149084FEA72
:10A7100030000019514132462B4603B0BDE8F04FDE
:10A7200000F0C4B90098012240000023D0EB0202DF
:10A7300063EBE073009821464FEAE074B8EB000049
:10A7400061EB0401E9E783F000435BE781F000413E
:10A7500058E7C1F30A52C1F3130140F2FF3341F449
:10A7600080119A4202DA00200146704740F23343DA
:10A770009A42A2F2334202DC524200F075B9FFF76E
:10A78000FBBE000030B5041E71F1000404DB4FF085
:10A790000044404264EB0101141E73F1000405DB28
:10A7A0001C464FF00043524263EB0403994208BF3A
:10A7B000904230BD002801DBC0F10040002901DBE0
:10A7C000C1F10041814202D24FF0004004E04FF05D
:10A7D000005001D14FF0C040EFF3008121F07F41E4
:10A7E00041EA000181F300887047000080B5406AAB
:10A7F00000F05CFC80BD0000FEE700007047704781
:10A800000000000000000000000000000000000048
:10A810000000000000000000000000000000000038
:10A8200030302E30302E30310000000000000000AB
:10A830000000000000000000000000000000000018
:10A840004A616E2031362032303236202D203131AF
:10A850003A33393A353100000000000000000000B2
:10A860004D7953544D3332000000000000000000C9
:10A8700000000000000000000000000000000000D8
:10A880002DE9FE4F81EA030404F0004421F0004169
:10A8900000944FF0000B23F0004350EA01045ED017
:10A8A00052EA03045BD0C3F30A54C1F30A552C44A3
:10A8B000A4F2F3340194A0FB0254C1F3130141F458
:10A8C0008011C3F3130343F4801301FB024400FB24
:10A8D000034E840A970A44EA815447EA8357A4FB4B
:10A8E000076802958D0A05FB07854FEA932C04FB48
:10A8F0000C542705029D4FEA065847EA1637B5EB78
:10A9000008056EEB070C870E920E47EA811742EAA4
:10A910008312A7FB0201B6EB0B0164EB00042B0DC5
:10A9200043EA0C335E1844EB1C50DA465146E7FB11
:10A930000201C5F313044FEA0B3343EA14534FEA01
:10A940000432019C43EA0603A4F10C040294009C27
:10A95000CDE900B400F0B9F803B0BDE8F08F0020F5
:10A960000146F9E72DE9F04D81EA030404F0004BBC
:10A9700021F0004514464FF0000A23F0004150EA50
:10A98000050220D054EA01021DD0C5F30A57024641
:10A99000C5F31303C1F31300C1F30A5640F4801545
:10A9A00043F48013A7EB0608101BD64608F2FD38C7
:10A9B00073EB050002D308F1010801E092185B4136
:10A9C000B8F1000F03DA00200146BDE8F08D002049
:10A9D0004FF48011064684460EE0171B73EB050703
:10A9E00005D3121B63EB050306434CEA010C49082F
:10A9F0004FEA300092185B4150EA0107EDD152EA6C
:10AA0000030012D082EA040083EA0501084305D05E
:10AA1000101BAB4106D20122002306E000224FF0BA
:10AA2000004302E06FF0010253101AEB06004CEBFA
:10AA3000085110EB0A0041EB0B01BDE8F04D00F0AE
:10AA400035B80000064C074D06E0E06840F0010311
:10AA500094E8070098471034AC42F6D3FFF76CFB3C
:10AA60008C360208AC360208202A04DB203A21FA90
:10AA700002F00021704721FA02F3D040C2F1200217
:10AA80009140084319467047202A06DBCB17203A2D
:10AA900041FA02F043EAE07306E041FA02F3D040E3
:10AAA000C2F12002914008431946704710B5141EA8
:10AAB00073F1000408DA401C41F1000192185B4177
:10AAC0001A4301D120F0010010BD2DE9F04D92464E
:10AAD0009B4611B1B1FA81F202E0B0FA80F2203265
:10AAE0009046FFF749FD04460F4640EA0A0041EA56
:10AAF0000B0153465A46084313D0114653EA01004E
:10AB000019D0C8F140025046FFF7AEFF05460E4689
:10AB1000504659464246FFF72FFD084305D0012015
:10AB200004E020463946BDE8F08D0020054346EAA2
:10AB3000E0762C4337430A986305E40AA0EB08004B
:10AB40000022FD0A44EA47540A3002D5002001469B
:10AB5000E9E7010510196941DDE908450019694176
:10AB6000BDE8F04DA2E70000B0B50446006881687A
:10AB7000C90701D10020B0BD816821F001018160C9
:10AB800001F040F8054600BF20688068C007F1D09A
:10AB900001F038F8401B0328F6D3A06A40F01000FB
:10ABA000A062E06A40F00100E0620120B0BD000058
:10ABB00080B50146406A826A12F0500F04D0006AE4
:10ABC000026B0846904780BD0168826A42F40072B9
:10ABD0008262896801F46021B1F5602F01D1017BA7
:10ABE00011B100F061FA80BD816A21F48071816247
:10ABF000816AC904F5D4816A41F00101816200F0E3
:10AC000053FA80BD80B5406A816A41F0400181629B
:10AC1000C16A41F00401C16200F04AFA80BD00003F
:10AC2000B0B582B004460020019021688A68D2073E
:10AC30002FD1886840F00100886040F20000C2F225
:10AC4000000000684DF68361C4F21B31A0FB0101D6
:10AC5000880C00BF0190019810B101980138F9E704
:10AC600000F0D0FF054600BF20688068C00712D101
:10AC700000F0C8FF401B0328F6D3A06A40F0100084
:10AC8000A062E06A40F00100E062002084F8240045
:10AC9000012002B0B0BD002002B0B0BD40F2B8103B
:10ACA0000021C2F20000C4F20201026801F1800337
:10ACB0009A4208D9D1F8001489041FD540F2044102
:10ACC000C4F2020104E051F8042B920458BF70470B
:10ACD0004FF480520A604FF400520A604FF48042F1
:10ACE0000A604FF400420A6040F28841C2F200015B
:10ACF000202281F839204FF48071018470470000D0
:10AD0000B0B540F27415C2F2000580242968C4F27F
:10AD100002046FF07F00A14288BF4FF460700159B8
:10AD2000490310D42058800358BFB0BD06F00EFF71
:10AD30002868A04214D940F20440C4F202004FF443
:10AD400000310160B0BD06F001FF2868A0420CD9B7
:10AD500040F20440C4F202004FF480210160B0BD13
:10AD60004FF4003044F87C0CB0BD4FF4802044F820
:10AD70007C0CB0BDB0B5D0E900CED0E90F400125C4
:10AD800005FA00F060600846CCF80430BEF1100F00
:10AD900004BF10460A46CCF80800CCF80C20B0BD21
:10ADA00040F23850C2F200000021C16142F21000AE
:10ADB000C4F20200016841F004010160016841F041
:10ADC000400101607047000040F23851C2F20001BA
:10ADD0000022CA6142F21001C4F202010A6842F084
:10ADE00002020A604860086840F04000086070474E
:10ADF00040F23852C2F200020023D36142F2100244
:10AE0000C4F20202136843F001031360018070472B
:10AE100042F20C00C4F202000168C90640F2385147
:10AE2000C2F2000101D4002204E0CA6942F0020229
:10AE3000CA61102203685B0705D5CB6942F00402A2
:10AE400043F00103CB610369DB0707D0CB6943F013
:10AE50000403CB61016921F00101016102607047C7
:10AE6000F0B581B042F20C060446C4F2020600F0CE
:10AE7000C9FE3168C90715D13068800644BF20205B
:10AE800030603068C00608D43069C00705D130682A
:10AE9000400702D4002001B0F0BDFFF7B9FF012048
:10AEA00001B0F0BD0546671C04D044B9032001B0D1
:10AEB000F0BD00BF3068C007DED0002FFAD000F030
:10AEC000A1FE401BA042F5D9F0E7000070B582B0AA
:10AED00004460020019094F82400012801D10225A5
:10AEE00056E0012084F824002046FFF73DFE054689
:10AEF00000284AD1A06A41F2021188430230A062C0
:10AF000040F20000C2F200000668022000F0B0FF2C
:10AF1000B6FBF0F0400000BF0190019810B101981D
:10AF20000138F9E72046FFF77BFE2068816841F091
:10AF30000801816000F066FE064600BF2068816857
:10AF4000090705D500F05EFE801B0A28F6D910E03F
:10AF5000816841F00401816000F054FE064600BFA4
:10AF600020688068400709D500F04CFE801B0B2844
:10AF7000F6D3012510206FF0120102E001206FF0DE
:10AF80000301A26A11400843A062002084F8240053
:10AF9000284602B070BD0000B0B581B0002200921A
:10AFA00090F82420012A01D1022179E04A68012386
:10AFB000062A80F8243005D803686FF0040C03F1EA
:10AFC000340E0AE003680C2A87BF03F12C0E6FF0E1
:10AFD000400C03F1300E6FF0220C02EB8202DEF81F
:10AFE000005062441F230C68934025EA030304FACF
:10AFF00002F21A43CEF80020D1F800E002680EEB0E
:10B000004E051024BEF1090F88BF1E3D88BF0C24D9
:10B0100052F804C007238968AB402CEA0303A94017
:10B02000194311512EF001014FF0000C10294FF07F
:10B03000000133D1016842F20042C4F201029142A0
:10B0400005D0816A41F020018162012126E09268E9
:10B05000120222D48A68BEF1100F42F400028A6004
:10B060001BD140F20001C2F2000109684DF6836273
:10B07000C4F21B32A1FB0212910C01EB81014900C9
:10B080000091009949B100BF0099013900910099E0
:10B0900000294FF00001F7D100E0002180F824C022
:10B0A000084601B0B0BD00007047000070470000C6
:10B0B000704700000068C06C70470000002804BFA3
:10B0C000012070472DE9F0418046044658F8280FCA
:10B0D00030B90020E06284F82400204600F08CF8AB
:10B0E0002046FFF741FDA26AA16A002808BF12F0BE
:10B0F000100206D041F010010120C8F80010BDE890
:10B10000F08141F2021291430231A162D4E90013AD
:10B11000E66981F08045A26885F49E3586F4402773
:10B120002F4308BF4FF4002646EA0307531EB3FA25
:10B1300083F35E091346B2F5807F18BF3302267D84
:10B14000257B012E47EA450C11D145B1A76A47F08E
:10B150002007A762E76A47F00107E76207E0A769EF
:10B160004EF60006CFF6FF7606EB47373B434F68B7
:10B17000B2F5807F27F4694743EA07034B608B6889
:10B180004FF2FD77CFF6E17703EA070343EA0C03BA
:10B190008B6001D0012A06D122690023CFF6F0731B
:10B1A00003EB025200E00022CB6A23F470031A433F
:10B1B000CA62896840F6FE62CFF61F72114061458F
:10B1C00009D10021E162A16A012262F30101C8F8FC
:10B1D0000010BDE8F081A06A40F0100020F00200ED
:10B1E000A06254F82C0F40F001010120A046C8F8DD
:10B1F0000010BDE8F0810000704700002DE9F0412B
:10B2000082B000260D460446019600F0FBFC216842
:10B210008A68D2053CD480464868C00503D4C86A11
:10B2200010F4700F3ED040F20000C2F20000066839
:10B2300042F292470220C1F2492700F019FE21682C
:10B2400044F624130A69B6FBF0F0C2F292431A42A4
:10B2500006D1CA6844F62413C0F292031A4229D0D8
:10B260000A693A4206D1CA6842F29243C0F24903DF
:10B270001A422DD00A6949F24923C0F224031A4226
:10B280004FF0FC0225D1C968194208BF542220E0C2
:10B29000A06A40F02000A06284F82460012002B07F
:10B2A000BDE8F08120680068800742D435B36E1C89
:10B2B00018D01DE00A693A424FF0290209D1C96845
:10B2C00042F29243C0F24903194208BF142200E03F
:10B2D0005422019902FB00F7B9422AD275B16E1CC3
:10B2E00018D01FE020680068800722D4002EF9D013
:10B2F00000F088FCA0EB0800A842F3D9A06A40F057
:10B300000400A062002084F82400032002B0BDE8FD
:10B31000F08100BF0198013001900198B84208D235
:10B32000002EF7D000F06EFCA0EB0800A842F1D987
:10B33000E4E720686FF012010160A16A41F4007136
:10B34000A162806800F46020B0F5602F0CD1207BF2
:10B3500050B9A06A20F48070A062A06AC00403D42F
:10B36000A06A40F00100A062002002B0BDE8F081B8
:10B3700010B5044690F82400012804BF022010BD37
:10B38000012084F824002046FFF74AFC18B1002170
:10B3900084F8241010BD42F2044C2168A26AC4F261
:10B3A000010C40F201339A430CF57F7E02F5807266
:10B3B0007145A26207D0A26A22F48012A2624A6892
:10B3C000520519D41DE0DCF8002012F4702FF2D0E1
:10B3D000A26A42F60003C4F2010342F480129942C9
:10B3E000A26205D042F20042C4F20102914208D1A9
:10B3F000DCF80020520504D5A26A012363F30D3264
:10B40000A262A36A0022DB044FF0000344BFE36A98
:10B4100023F00603E36284F824206FF002020A603E
:10B420008A6802F46022B2F5602F0BD1714504D016
:10B430008A6842F4A0028A6010BDDCF8002012F491
:10B44000702FF5D08A6842F480128A6010BD000027
:10B450002DE9F0410546006842F60006C4F20106F7
:10B460009046B0420F4605D042F20041C4F20101BD
:10B4700088420AD142F20440C4F20100006810F48C
:10B48000702F1CBF0120BDE8F08195F82400012831
:10B4900004BF0220BDE8F081012085F82400284681
:10B4A000FFF7BEFB044628B1002085F824002046A3
:10B4B000BDE8F08142F204402968AA6AC4F20100A2
:10B4C00040F601739A4300F57F7302F5807299424A
:10B4D000AA6207D0A86A20F48010A86248684005D4
:10B4E00018D512E0026812F4702FF3D0AA6AB142A4
:10B4F00042F48012AA6205D042F20042C4F2010274
:10B50000914207D10068400504D5A86A012262F380
:10B510000D30A862AA6A0020D2044FF0000244BF96
:10B52000EA6A22F00602EA6285F82400286A4AF6EE
:10B53000B132C0F601024AF2ED734AF6054600F157
:10B54000280CC0F60103C0F601068CE84C006FF031
:10B5500002020A608A68434642F480728A604C3173
:10B560003A4600F041F92868816801F46022816858
:10B57000B2F5602F0CBF41F4A00141F4801181604D
:10B580002046BDE8F081000010B5044690F8240084
:10B59000012804BF022010BD012084F824002046A9
:10B5A000FFF7E2FAB0B92268216A936823F4807346
:10B5B000936091F82120022A0CD1084600F0ACF8E3
:10B5C000A16A10B141F0400103E041F20112914340
:10B5D0000131A162002184F8241010BD90F82020D0
:10B5E000013A012A84BF0020704700681022002918
:10B5F00008BF0C22805800F00300704710B590F887
:10B600002040013C012C0CD8D0F800C079B1DCF806
:10B610001040A4070FD100F1240101204FF40012C3
:10B6200070E000F1240101204FF480226AE0DCF890
:10B630000C40A4076AD0046804EB011CDCF8B0419C
:10B640000CF5D87E14F004049460DCF8B04119BF06
:10B65000E4085460640D1460DEF80040002904F032
:10B660000204D460DCF8B44104F00F041461DCF887
:10B67000B441C4F307249461DCF8B4414FEA1444A4
:10B680005461DCF8B8211A70026802EB0112D2F89A
:10B69000B8214FEA12225A70026802EB0112D2F866
:10B6A000B8214FEA12429A70026802EB0112D2F8F6
:10B6B000B8214FEA1262DA70026802EB0112D2F886
:10B6C000BC211A71026802EB0112D2F8BC214FEAC8
:10B6D00012225A71026802EB0112D2F8BC214FEA21
:10B6E00012429A71026802EB0112D2F8BC214FEAB1
:10B6F0001262DA71006814BF00F1100100F10C0150
:10B70000002020220B681A430A6010BD00F12401BA
:10B7100001204FF40012F5E7014690F821000228BD
:10B7200013D10868D1E90FC3026822F00E0202604B
:10B73000026822F001020260012000FA03F2CCF854
:10B74000042081F82100002002E004208863012009
:10B75000002281F820207047002804BF0120704794
:10B760002DE9F04140F2000CC4F2020C01684FF6E2
:10B77000F8320CF58163CBF6FD72994238BF02F5C1
:10B7800080624CF6CD430A44CCF6CC43A2FB0323A3
:10B790006FF003050CF5806405EA9303D0E9012EF0
:10B7A000D0F80C803CBF0024C4F20204C0E90F436F
:10B7B0000B6843F6F075AB431A43D0E9045442EAF0
:10B7C0000E0242EA0802D0E906672A4322433243C6
:10B7D0003A430A6000214FF4807281630284BDE81D
:10B7E000F04108467047000010B5044690F820006C
:10B7F000012821D094F821004FF0010C012884F891
:10B8000020C016D1022084F821000020A063D4F8C3
:10B8100000C0DCF8000020F00100CCF80000204659
:10B82000FFF7A8FA2068E26A01683AB141F00E0118
:10B830000AE0002084F82000022010BD21F004015D
:10B840000160016841F00A0101602068016841F06F
:10B8500001010160002010BD2DE9F04140F238588F
:10B86000C2F2000898F81820012A04BF0220BDE89F
:10B87000F081054601202E6888F818004CF25030FF
:10B880000C46FFF7EDFA022E02D120B1012037E07D
:10B8900080B1012034E0FFF783FA4CF25030FFF71B
:10B8A000DFFA42F21001C4F202010A6822F0040237
:10B8B0000A6025E04FF0FF302060D5E9026006EB1A
:10B8C000C020864219D242F21007C4F2020700BF1C
:10B8D0003046FFF779FA4CF25030FFF7C1FA396879
:10B8E00021F00201396050B9D5E9021206F500666F
:10B8F00001EBC2218E42EBD302E0012000E0266082
:10B90000002188F81810BDE8F081000042F2100113
:10B91000C4F20201086840F0800200200A6070470B
:10B920002DE9F04F81B01C4640F23853C2F20003BB
:10B9300092461A7E012A03D1022001B0BDE8F08FA1
:10B940008146012018764CF250300E46FFF788FAF7
:10B95000B0BB4D4642F21007B9F1020F18BF0425E3
:10B96000C4F20207B9F1010F08BF4D4600214FF0A4
:10B9700020096FF01F0B4FF0000800BF0A01A9EB70
:10B98000011304FA03F32AFA02F206EB41001A4308
:10B990000BEB0111002958BF24FA01F291B2FFF715
:10B9A00027FA4CF25030FFF75BFA396821F00101B9
:10B9B000396028B908F101085FFA88F18D42DDD8B5
:10B9C00040F238520021C2F20002117601B0BDE807
:10B9D000F08F000042F20400C4F20200C1680906C0
:10B9E0005CBF0020704740F22311C4F26751016030
:10B9F00048F6AB11CCF6EF510160C068C0F3C0103F
:10BA0000704700002DE9F04F83B00C68002C00F067
:10BA1000EA80A0F18042A2F5843240F2004E4FEA63
:10BA2000B22241F60047C4F2010E0092C4F20107AF
:10BA3000062200254FF001094FF0000B4FF0000ADD
:10BA4000B84208BF0522019209E000BF0C680BF163
:10BA5000010B34FA0BF205F1040500F0C48009FA79
:10BA60000BF814EA080CF1D04C684FF6FF72C1F2E3
:10BA70001002944210DC122C50D8DFE804F0330A94
:10BA800041454F4F4F4F4F4F4F4F4F4F4F4F4F48E5
:10BA90004C00D1F80CA041E04FF6FF72C1F2210238
:10BAA00094420FDC0022C1F2110294421AD000220B
:10BAB000C1F21202944215D00022C1F22102944236
:10BAC00010D02BE00022C1F2220294420AD00022C0
:10BAD000C1F23102944205D00022C1F232029442F6
:10BAE0001CD100BF8C6844B1012C14BFC0F8148075
:10BAF000C0F810804FF0080A10E04FF0040A0DE083
:10BB0000CC6804F1080A09E04FF0000A06E0CC68AE
:10BB100004F1040A02E0CC6804F10C0A2C46074642
:10BB2000BCF5807F24BF203C04373A680F2303FA1A
:10BB300004F6B2430AFA04F422433A60CA79D20600
:10BB40007FF584AF41F21804C4F2020422684FF674
:10BB5000084842F0010222602268CFF6FF7802F026
:10BB600001020292029A2BF00302724452F808403A
:10BB700005F00C0603FA06F7009BBC43019F052B5A
:10BB800038BF1F4607FA06F6344342F808404C68AF
:10BB9000E203DEF8002054BF22EA0C0742EA0C0759
:10BBA000A203CEF80070DEF8042054BF22EA0C078E
:10BBB00042EA0C07E202CEF80470DEF8082054BF17
:10BBC00022EA0C0742EA0C07A20240F20C44CEF82B
:10BBD0000870C4F20104226854BF22EA0C0242EA4F
:10BBE0000C02226032E703B0BDE8F08F80680840A5
:10BBF00018BF012070470000002A08BF0904016136
:10BC00007047000080B506F0BFFC022802D106F0A4
:10BC1000CFFC80BD46F61400C2F20000006880BD73
:10BC2000F0B581B0B0B3044690F83D0028B90020CB
:10BC300084F83C00204600F0BFF8242084F83D0042
:10BC40002068016821F001010160016841F40041B0
:10BC50000160016821F40041016000F0D5FA48F26A
:10BC60008041C0F21E0140F60012656888424FF024
:10BC70000001C0F23D0248F2A16C4FF0000338BF52
:10BC800001219042C0F2010C38BF0123654538BF45
:10BC90000B4613B1012001B0F0BD4DF68361C4F233
:10BCA0001B31A0FB011221684FEA924E4B684FF402
:10BCB000967623F03F0343EA92434B6044F6D35316
:10BCC0000F6A0EFB06F6C1F26203A6FB033627F0ED
:10BCD0003F03B709654538BF970C7A1C1A430A62BF
:10BCE000CA6948F2A0674CF6FF73C0F20107BD4273
:10BCF00022EA030C0AD801386A00B0FBF2F00130E6
:10BD00006FF31F30042898BF04202BE0A368A0F134
:10BD1000010E9BB119206843BEFBF0F004220130F4
:10BD200062F31F30000512D09BB119206843BEFB9F
:10BD3000F0F00422013062F31F3011E005EB450002
:10BD4000BEFBF0F001306FF31F300005ECD1012095
:10BD500008E005EB4500BEFBF0F001306FF31F304B
:10BD600040F4004040EA0C00C8610868D4E90723A9
:10BD700020F0C000104318430860886848F2FF3282
:10BD800004F10C0790438CCF18431043A6698860D8
:10BD9000C86820F0FF0038433043C860086840F0AE
:10BDA0000100086000202021206484F83D102063F9
:10BDB00084F83E0001B0F0BD70470000B0B5C8B1D6
:10BDC00004460068D4E901124CF6CC43036045F206
:10BDD0005553036041608260FFF714FF054600BFC2
:10BDE0002068C16841B1FFF70DFF401B2628F7D935
:10BDF0000320B0BD0120B0BD4AF6AA210160002099
:10BE0000B0BD000001684AF6AA2200200A6070470F
:10BE100080B542F20000C4F20200016841F0100156
:10BE20000160032000F020F80F2000F005F800F07A
:10BE300005F8002080BD000000207047704700001A
:10BE400080B501F0E1FB80BD70B514460D46064695
:10BE500001F0EAFB2946224601F022F8014630466D
:10BE600001F0EAFB70BD000080B501F0F7FB80BD7A
:10BE700080B5411E0F294FF0000043D8DFE801F0E4
:10BE80000B3442084242420842424242424242434A
:10BE900000F0DEF980BD41F20400C4F20200C16985
:10BEA00040F202320A40B2F5817F04BF4FF40040F5
:10BEB00080BD01F44071B1F5407F0DD0B1F5007F38
:10BEC00051D1026A920744BF49F6404080BDB1F5A6
:10BED000407F1CBF002080BD50F8040C4FF224416D
:10BEE000800301EAE07080BD00F0A0F941F2040196
:10BEF000C4F2020109680222C1F3813102EB41015F
:10BF0000B0FBF1F080BD41F20401C4F202010A6805
:10BF100051F8040CC0015CBF002080BDC2F3834017
:10BF200012A3185CD20305D440F60012C0F23D0201
:10BF300050430BE00A6811A3C2F340429A5C41F2FD
:10BF40000023C0F27A03B3FBF2F2504309684902BE
:10BF500048BF80BD4AF6AB214000CAF6AA21A0FB2B
:10BF60000101480880BD002080BD00BF0203040518
:10BF7000060708090A0B0C0D0E0F10100102000035
:10BF80002DE9F04182B00446007841F21C06C0075A
:10BF9000C4F202064AD0306810F0805808D13068E8
:10BFA00040F080503060306800F08050019001987F
:10BFB00047F20007C4F200073868C00512D4386899
:10BFC00040F480703860FFF71DFE05463868C005F4
:10BFD00008D4FFF717FE401B6428F7D9032002B0EE
:10BFE000BDE8F081706810F4407012D0616801F40F
:10BFF000407188420DD0706840F24042C4F2422243
:10C00000012320F4407113600023C00713607160A6
:10C0100029D17068616820F440700843B8F1000FBE
:10C02000706003D1306820F0805030602068810754
:10C0300007D556F8181CA26821F44041114346F870
:10C04000181CC00603D4002002B0BDE8F08156F8E9
:10C05000180C616920F48000084346F8180C002091
:10C0600002B0BDE8F081FFF7CDFD054641F288370B
:10C0700070688007CDD4FFF7C5FD401BB8424FF074
:10C080000300F5D9ECE700002DE9F04381B000286A
:10C0900000F0898042F20008C4F202080446D8F891
:10C0A00000000D4600F0070088420CD2D8F80000CE
:10C0B00020F007002843C8F80000D8F8000000F07E
:10C0C0000700A8426FD1206841F204098107C4F239
:10C0D000020917D5410705D5D9F8001041F4E061F0
:10C0E000C9F80010010705D5D9F8001041F46051D6
:10C0F000C9F80010D9F80010A26821F0F00111432E
:10C10000C9F80010C00745D1D8F8000000F00700BA
:10C11000A8420CD9D8F8000020F007002843C8F83E
:10C120000000D8F8000000F00700A8423BD12068CA
:10C13000410707D5D9F80010E26821F4E061114306
:10C14000C9F80010000708D5D9F80000216920F4CB
:10C15000605040EAC100C9F8000000F079F8D9F851
:10C16000001043F2D442C1F30311C0F60202515C45
:10C1700040F2000220FA01F140F20800C2F2000091
:10C180000068C2F200021160FFF756FE002001B005
:10C19000BDE8F0836068022809D0012829D159F848
:10C1A000041C890307D4012001B0BDE8F08359F8CD
:10C1B000041C8901F7D5D9F8001021F003010843C8
:10C1C000C9F80000FFF71EFD064641F2883700BFA0
:10C1D000D9F80000616800F00C00B0EB810F93D03B
:10C1E000FFF710FD801BB842F2D9032001B0BDE873
:10C1F000F08359F8041C8907D5D5DCE740F200002C
:10C20000C2F200000068704780B5FFF7F7FF41F207
:10C210000401C4F20201096843F2E442C1F30221BD
:10C22000C0F60202515CC84080BD000080B5FFF737
:10C23000E5FF41F20401C4F20201096843F2E4425D
:10C24000C1F3C221C0F60202515CC84080BD0000AB
:10C2500041F2040CC4F2020CDCF8003003F00C00D4
:10C26000082841F20020C0F27A0018BF7047C3F3DB
:10C2700083420AA18A5CD90305D440F60010C0F2BB
:10C280003D0050437047DCF8001008A3C1F3404163
:10C29000595C5043B0FBF1F0704700BF0203040546
:10C2A000060708090A0B0C0D0E0F10100102000002
:10C2B0002DE9F04182B0002800F0C48004460078E7
:10C2C00041F20006C007C4F2020643D0706800F0D5
:10C2D0000C00042817D0706800F00C00082802D168
:10C2E0007068C0030FD465682DB1B5F5A02F10D0CC
:10C2F000B5F5803F11D0306820F480303060306870
:10C3000020F480200CE03068800323D5606808BBEF
:10C3100098E0306840F480203060306840F480302D
:10C320003060FFF76FFC002D054610D030688003A9
:10C3300010D4FFF767FC401B6428F7D904E100BF65
:10C34000FFF760FC401B64284FF0030077D830688B
:10C350008003F5D42078800718D5706810F00C0F92
:10C3600007D0706800F00C00082826D17068C00360
:10C3700023D43068800702D52069012862D1306853
:10C38000616920F0F80040EAC100306020780007C1
:10C390003DD5A06938B30020C4F242200121C0F885
:10C3A0008014FFF72FFC0546706A80072DD4FFF735
:10C3B00029FC401B0228F7D9C6E02069002840F27A
:10C3C0000000C4F2422000F0968001210160FFF7D6
:10C3D00019FC054630688007D1D4FFF713FC401BD9
:10C3E0000228F7D9B0E00020C4F242200021C0F8B2
:10C3F0008014FFF707FC0546706A800707D5FFF732
:10C4000001FC401B0228F7D99EE000F083FD207854
:10C4100040071BD4E5698DB1706800F00C00082856
:10C4200047D1012D0ED07068216A00F480328A4213
:10C4300008D1616A00F47010884203D1002002B074
:10C44000BDE8F081012002B0BDE8F081F06910F094
:10C45000805808D1F06940F08050F061F06900F038
:10C4600080500190019847F20007C4F20007386835
:10C47000C00510D4386840F480703860FFF7C2FB04
:10C48000054600BF3868C00505D4FFF7BBFB401B5D
:10C490006428F7D958E0E5681DB1052D3CD0012D81
:10C4A0003ED0306A20F001003062306A20F0040093
:10C4B00039E00027C4F2422700203866FFF7A2FBCC
:10C4C000022D05460CD100BF3068800154D5FFF71E
:10C4D00099FB401B02284FF00300F5D9AFE700BFDE
:10C4E00030688001AAD5FFF78DFB401B02284FF072
:10C4F0000300F5D9A3E700210160FFF783FB0546A0
:10C50000306880077FF542AFFFF77CFB401B0228B5
:10C510004FF00300F4D992E7306A40F00400306233
:10C52000306A40F001003062FFF76CFB002D0546D9
:10C5300041F2883714D000BF306A800713D4FFF768
:10C5400061FB401BB842F7D9032002B0BDE8F0817F
:10C55000FFF758FB401BB8424FF003003FF66FAFA8
:10C56000306A8007F4D4B8F1000F7FF453AFF0695C
:10C5700020F08050F0614DE7206AB0F5803F05D192
:10C580007168A26821F40031114371607168626AB8
:10C5900021F4741110430843706001203866FFF7DE
:10C5A00031FB0446306880013FF548AFFFF72AFBB6
:10C5B000001B02284FF00300F4D940E7002804BF15
:10C5C0000120704710B50446406A20B10020206168
:10C5D00004F1140005E06068B0F5827F03D004F137
:10C5E0001C000021016094F8510028B9002084F853
:10C5F0005000204600F040F8022084F8510094E8F2
:10C60000071001F48271036802F4044223F040032E
:10C610000360236911440CF40062114403F0020228
:10C620006369114403F00102A36901EB020CE169A3
:10C6300003F40072944401F03801226A8C44A16A28
:10C6400002F080024CEA020C01F4005242EA0C02B1
:10C650000260042202EA13424260B1F5005F04BFA7
:10C66000A18D0161C16921F40061C1610020012136
:10C67000606584F8511010BD704700002DE9F0434B
:10C6800081B0044690F85000012803D1022001B087
:10C69000BDE8F0834FF001091D4616460F4684F8A9
:10C6A0005090FFF7AFFA94F85110012969D18046F4
:10C6B000002F4FF0010018BF002E00F0AA800320C9
:10C6C00084F85100002060652763A686E686A06393
:10C6D000A087E087A168C4E91000B1F5004F08D138
:10C6E0002068016821F040010160016841F4804147
:10C6F0000160A06AB0F5005F08D12068016821F4EC
:10C7000000510160016841F4005101602068016836
:10C71000490603D4016841F0400101606168731E5D
:10C72000E268B1FA81F1B3FA83F349095B09B2F522
:10C73000006F41EA030126D139B1216B0988C1603C
:10C74000B81C2063E08E0138E086E08E002840D0DF
:10C750006E1C09E0216B31F8022BC2602163E08E70
:10C760000138E086E08EA0B3206881688907F1D4A3
:10C77000FFF748FA002EF5D0A0EB0800A842F1D34D
:10C7800025E0022045E039B139780173206B013092
:10C790002063E08E0138E086E08ED0B16E1C0AE0A6
:10C7A000216B09780173206B01302063E08E013822
:10C7B000E086E08E68B1206881688907F0D4FFF7D1
:10C7C00021FA002EF5D0A0EB0800A842F1D30320F7
:10C7D0001FE0A06AB0F5005F04D12068016841F451
:10C7E0008051016020462946424600F0A9FB0028FE
:10C7F0001CBF20206065A06838B900200090206828
:10C80000C1680091806800900098606D002818BF92
:10C810000120002184F8519084F8501001B0BDE847
:10C82000F08300002DE9F04782B0044690F85000F4
:10C83000012801D10225F3E001201E4617468A4651
:10C8400084F85000FFF7DEF994F851108146012971
:10C8500040F08880BAF1000F4FF0010518BF002F9B
:10C8600000F0D880002E00F0D58094F85100042804
:10C870001CBF052084F8510000206065A763E6878F
:10C88000A687C4F830A0E686A16AA686B1F5005F47
:10C890002064606408D12068016821F400510160BF
:10C8A000016841F40051016020680168490603D421
:10C8B000016841F0400101606168731EE268B1FAED
:10C8C00081F1B3FA83F3DDF8288049095B09B2F5F9
:10C8D000006F41EA030154D141B1216B0988C16065
:10C8E0000AF102002063E08E0138E086012608F19B
:10C8F000010500BFE08E18B9E08F002800F0948099
:10C9000020688168890716D5E18E012E13D191B177
:10C91000216B31F8022BC2602163E18E0139E1867F
:10C92000E18E39B9A16AB1F5005F03D1016841F424
:10C930008051016000268168C9070AD0E18F41B1AA
:10C94000C068A16B012621F8020BA163E08F0138BA
:10C95000E087FFF757F9002DCCD0A0EB0900404548
:10C96000C8D356E06068B0F5827F08D104294FF043
:10C9700002054FD1A06800283FF46CAF4AE00225C1
:10C9800048E041B19AF800100173206B0130206338
:10C99000E08E0138E086012608F10105E08E10B92D
:10C9A000E08F002840D020688168890719D5E18E82
:10C9B000012E16D1A9B1216B09780173206B0130CA
:10C9C0002063E08E0138E086E08E48B9A06AB0F5B9
:10C9D000005F05D12068016841F48051016000BF0B
:10C9E000002620688168C9070BD0E18F49B1C06873
:10C9F000A16B01260870A06B0130A063E08F0138A5
:10CA0000E087FFF7FFF8002DC8D0A0EB09004045F4
:10CA1000C4D30325012084F85100002084F850007D
:10CA2000284602B0BDE8F087A06AB0F5005F10D1DB
:10CA30002046012101224346CDF8009000F094FAEF
:10CA400028B1606D032540F002006065E2E72068D0
:10CA5000C06820688168C90601D400250CE0616DBA
:10CA6000012541F002016165016821F40051016076
:10CA7000016841F400510160204641464A4600F0F9
:10CA80005FFA18B1202060650125C3E7A06800287F
:10CA9000C0D1002001902068C16801918068019098
:10CAA0000198B7E7002804BF0120704710B504467D
:10CAB00090F83D0028B9002084F83C00204600F0A2
:10CAC0001FF8022084F83D002068211D00F016FBAD
:10CAD000012084F8460084F83E0084F83F0084F882
:10CAE000400084F8410084F8420084F8430084F850
:10CAF000440084F8450084F83D00002010BD00008B
:10CB00007047000090F83D1001291CBF01207047BC
:10CB1000022180F83D10006840F6FF32C168C4F27F
:10CB20000002904241F00101C1600FDCB0F1804F82
:10CB30001ED040F20041C4F20001884218D040F6F5
:10CB40000001C4F20001884212D018E040F6004112
:10CB5000C4F2000188420BD043F20041C4F201014B
:10CB6000884205D042F60041C4F20101884206D154
:10CB7000816801F00701062904BF002070470168A1
:10CB800041F001010160002070470000B0B504468B
:10CB900090F83C00012804BF0220B0BD4FEAB2006B
:10CBA0000D460121032884F83C1036D8DFE800F058
:10CBB000020A12222068294600F01EFB206850F865
:10CBC000181F0EE02068294600F04CFB206850F842
:10CBD000181F16E02068294600F07EFB206850F8F8
:10CBE0001C1F41F008010160016821F0040101608F
:10CBF00029690FE02068294600F0A8FB206850F85A
:10CC00001C1F41F400610160016821F48061016032
:10CC100029690902026811430160002084F83C0080
:10CC2000B0BD000010B5044641B1082909D004295F
:10CC300014BF04F1410004F13F0004E004F13E00A0
:10CC400001E004F14000007801281CBF012010BD64
:10CC5000022041B1082909D0042914BF84F84100F9
:10CC600084F83F0004E084F83E0001E084F84000CE
:10CC70002068012200F0AEFA206840F6FF31C4F2CD
:10CC80000001884217DD40F60042C4F200029042E3
:10CC900020D043F20043C4F20103984205D042F68B
:10CCA0000044C4F20104A0421BD1446C884244F405
:10CCB000004444641BDCB0F1804F0BD040F20041D3
:10CCC000C4F20001884205D040F60001C4F2000120
:10CCD000884206D1816801F00701062904BF0020BF
:10CCE00010BD016841F001010160002010BD9042BB
:10CCF000F0D09842EED042F60041C4F201018842E1
:10CD0000E8D0EEE770470000002804BF012070471C
:10CD100010B5044690F8390028B9002084F838008E
:10CD2000204600F021F8242084F839002068C168EA
:10CD300021F40051C160204600F0B0FB2068016979
:10CD400021F490410161416921F02A014161C168EA
:10CD500041F40051C16000202021E06384F83910C3
:10CD600084F83A1010BD00007047000070B582B022
:10CD7000054690F83A0020280DD113460A460029AE
:10CD80004FF0010418BF002B06D095F83800012899
:10CD900005D1022400E00224204602B070BD01202B
:10CDA00085F8380000242220AA62AB85EC6385F860
:10CDB0003A002968686B4DF2F13C4DF2294E4DF274
:10CDC000A536C0F6010CC0F6010EC0F6010604310E
:10CDD000C0E90ACEC0E90C64FEF706FD019428689C
:10CDE0000168019141680191019985F83840C16855
:10CDF00041F48071C160416941F0010141614169C3
:10CE000041F040014161C7E77047000070470000F2
:10CE100070B5044690F83900202808D14FF001057C
:10CE200089B313467AB394F83800012801D102205F
:10CE300070BD012084F83800002521202162A384E0
:10CE4000E384E56384F839002268206B4DF2354CA9
:10CE50004DF2614E4DF2A536C0F6010CC0F6010E42
:10CE6000C0F601060432C0E90ACEC0E90C65FEF73F
:10CE7000BBFC20686FF04001016084F838504169C4
:10CE800041F080014161284670BD000070470000FC
:10CE900070470000FEE70000FEE70000704700005A
:10CEA00000F0070080F00703042B28BF04234FF095
:10CEB000FF3C03380CFA03F338BF0020994381404C
:10CEC0000CFA00F022EA000008437047000000005E
:10CED000EFF30980BFF36F8F0D4B1A6820E9F00F55
:10CEE00010602DE908404FF05F0080F3118804F0D6
:10CEF0004DFD4FF0000080F31188BDE8084019682F
:10CF00000868B0E8F00F80F30988BFF36F8F7047AF
:10CF10005C05002081B040F20000C2F20000006811
:10CF200044F6D351C1F26201A0FB0101480A00900E
:10CF300000BF0098411E00280091F9D101B0704750
:10CF4000B0B582B00B460092802100220446002535
:10CF500000F00AF820B1606D032540F02000606504
:10CF6000284602B0B0BD00002DE9F04782B00A9C0F
:10CF7000984615460E468146FEF744FE201A00EB01
:10CF80000804FEF73FFE40F20001C2F2000109680A
:10CF9000C1F3CB3161430191D9F800108968314068
:10CFA000891BB1FA81F14909A94203D1002002B0DD
:10CFB000BDE8F087824608F1010709E0D9F80000D2
:10CFC00080683040801BB0FA80F04009A842EDD064
:10CFD000002FF3D0FEF716FEA0EB0A00A04207D206
:10CFE00001980199002808BF0446481E0190E5E712
:10CFF000D9E900014268B1F5827F22F0E002426087
:10D000000BD1D9F80810B1F5004F02D0B1F5806FFF
:10D0100003D1016821F040010160D9F82810B1F571
:10D02000005F07D1016821F400510160016841F4FB
:10D0300000510160012089F85100002089F850005A
:10D04000032002B0BDE8F0870000000000000000EF
:10D05000074B19680868B0E8F00F80F30988BFF340
:10D060006F8F4FF0000080F311884EF00D0E704767
:10D070005C05002080B54FF05F0080F31188BFF39E
:10D080006F8FBFF34F8F05F099FA30B14EF6045011
:10D09000CEF200004FF080510160002080F3118833
:10D0A00080BD00007047000040F27430C2F2000002
:10D0B00000680169C90708BF70476FF0010101618D
:10D0C00040F21830C2F20000D0E900124FF27C7337
:10D0D000C91842F10002C0E90012704780B540F261
:10D0E000BC30C2F2000000680169C90708BF80BDFA
:10D0F0006FF00101016103F0B9FA80BD10B540F68F
:10D10000FF3E0368C4F2000E43F2004C7045C4F2C7
:10D11000010C20DCB0F1804F2BD040F20042C4F271
:10D120000002904225D040F60002C4F20002904274
:10D130001FD0704523DCB0F1804F2ED040F200426A
:10D14000C4F20002904228D040F60002C4F200026D
:10D15000904222D025E040F60042C4F20002904204
:10D1600007D0604505D042F60042C4F20102904269
:10D17000DFD14A6823F0700313437045DBDD40F6CE
:10D180000042C4F20002904207D0604505D042F64A
:10D190000042C4F20102904203D1CA6823F44073F2
:10D1A000134323F080024B69D1F800E08C681A43E6
:10D1B00060450260C462C0F828E005D042F6004233
:10D1C000C4F20102904201D1096901630121416168
:10D1D00010BD000080B501F01F014FF0010CD0F828
:10D1E00020E00CFA01F32EEA03030362036A02FA59
:10D1F00001F11943016280BD70B5026A43F2004536
:10D2000022F001020262026A4368D0F818E08C68DA
:10D2100022F00202D1F800C02243C4F2010542F616
:10D220000044A842C4F2010401D0A04205D1CE6856
:10D2300022F00C0226F004063243A84201D0A0429C
:10D2400005D1D1E9054523F4407323432B432EF048
:10D25000730646EA0C0643608661496841630262D0
:10D2600070BD0000F0B5026A43F2004522F01002E2
:10D270000262036A4268D0F818C08C6823F0200369
:10D28000D1F800E043EA0413C4F2010542F6004479
:10D29000A842C4F2010401D0A04207D1CE686FF0C9
:10D2A000400723F0C00307EA06163343A84201D023
:10D2B000A04207D1D1E9054522F4406242EA840246
:10D2C00042EA85022CF4E64747EA0E27426087616E
:10D2D000496881630362F0BDF0B5026A43F200451C
:10D2E00022F480720262036A4268D0F81CC08C6823
:10D2F00023F40073D1F800E043EA0423C4F20105EB
:10D3000042F60044A842C4F2010401D0A04207D171
:10D31000CE6840F2FF47360223F44063BE433343F6
:10D32000A84201D0A04207D1D1E9054522F44052DC
:10D3300042EA041242EA05122CF0730747EA0E078C
:10D340004260C7614968C1630362F0BDB0B5026A5B
:10D3500043F2004522F480520262026A4368D0F828
:10D360001CE00C68D1F808C0C4F20105A84205D041
:10D3700042F60045C4F20105A84204D14D6923F4E8
:10D38000804343EA85132EF4E64545EA04254360CD
:10D39000C56122F40052496842EA0C32016402621B
:10D3A000B0BD000010B5446A2068406994F8391097
:10D3B000212907D110F0800004D00020E08420460D
:10D3C00000F062F82068406994F83A10222907D1E9
:10D3D00010F0400004D00020E085204600F046F820
:10D3E000E06B40F01000E0632046FFF78BFC10BDBF
:10D3F00080B50168406A0968890611D40021C18599
:10D400000168CA6822F48072CA604A6922F0010287
:10D410004A614A6922F040024A61202180F83A10AC
:10D42000FFF7F2FC80BD000080B5406AFFF7EEFC1C
:10D4300080BD000080B50168406A096889060BD488
:10D440000021C1840068416921F080014161C16807
:10D4500041F04001C16080BDFFF718FD80BD0000B4
:10D4600080B5406AFFF714FD80BD00000168CA68FE
:10D4700022F49072CA604A6922F001024A612021B6
:10D4800080F83A10704700000168CA6822F0C002B4
:10D49000CA60202180F839107047000010B504469A
:10D4A0000068D4E902C22369016921F440511143A3
:10D4B0000161616943EA0C021143C26841F20C63E5
:10D4C0009A431143C1604169A26921F4407111433B
:10D4D00043F60002C4F201029042416102D0FEF71D
:10D4E00093FE01E0FEF7A2FE626819214843910015
:10D4F000B0FBF1F048F21F51C5F2EB11A0FB012384
:10D500005A096FF0630302FB0300322303EB0010A0
:10D51000A0FB0101F02303EA5113206803EB021280
:10D52000C1F343111144816010BD000010B582B0F9
:10D5300040F28844C2F2000420680168C90614D48D
:10D54000016809071DD4016849075CBF01685FEAEB
:10D55000817124D56FF0040101606FF00201016058
:10D560006FF00101016002B010BD04F0EFFA00207D
:10D57000019020680168019140680190019802B013
:10D5800010BD6FF008010160002100910168009159
:10D5900040680090009804F069FB02B010BD01687B
:10D5A000C907E0D0D6E70000F0B589B040F24C10D2
:10D5B000C2F200000021FEF711F808B340F24C144B
:10D5C00040F27407C2F2000402AD6E46C2F20007D8
:10D5D00005E000BF20460021FEF700F880B120469C
:10D5E00000212A463346FEF709F80028F2D10498B4
:10D5F0000028EFD1069A3846314601F0C1FBE9E731
:10D6000009B0F0BDFEE70000002848BF704700F0F9
:10D610001F01012202FA01F14EF200124009CEF27E
:10D62000000242F8201070474EF60C50CEF2000077
:10D630000068C0F3022070474EF6145300F00F024A
:10D64000CEF2000309011A4400F16043B0F1FF3F3C
:10D65000C8BF03F564421170704700004EF60C51CC
:10D66000CEF200010A684FF6FF031A4060F30A2267
:10D6700042F0806040F0FD70086070474EF60C503C
:10D68000BFF34F8FCEF200000168042201F4E06185
:10D69000C0F2FA5211430160BFF34F8F00BFFDE7A4
:10D6A0002DE9F04F81B0054600284FF0010000F051
:10D6B00005810C46002900F00181204602F064FD3E
:10D6C0006169884240F0A880284602F05DFD6169EA
:10D6D000884200F0CB80E668D4F81090EF6801F043
:10D6E0000FFAC0051CD501F00BFAC00718D043F2A1
:10D6F0001750C0F6020003F025FCEA68E1682369D0
:10D7000043F2A650C0F6020003F01CFC43F2155091
:10D71000C0F6020003F016FC40F2011000F072FAAD
:10D72000B9F1010FC0F29A804FF00008009505E0B2
:10D730005644B9F1000F574440F39080207AB9F570
:10D74000807FCA4628BF4FF4807AC00708D140F6D0
:10D75000F4713046C2F20001524600F00DF907E0C4
:10D7600040F6F4713046C2F20001524600F066FE07
:10D770008346287AC00709D140F6F4713846C2F2D0
:10D780000001524600F02EF908E000BF40F6F471A7
:10D790003846C2F20001524600F09AFE4BEA0801F8
:10D7A00041EA00085FEA086070D1A9EB0A0901F0BC
:10D7B000A7F9C005BCD501F0A3F9C007B8D043F262
:10D7C0001750C0F6020003F0BDFB2569A5EB090068
:10D7D000FCF725FEA34604462846009DFCF71FFEE5
:10D7E000014620465C46FCF7B7FD0021C4F2C82183
:10D7F000FCF780FDFCF766FE02463BA00B4603F0FB
:10D80000A1FB43F21550C0F6020003F09BFB40F26F
:10D81000011000F0F7F98BE7064601F071F9C00539
:10D8200018D501F06DF9C00714D043F21750C0F6B7
:10D83000020003F087FB626922A0314603F082FBFD
:10D8400043F21550C0F6020003F07CFB40F20110D9
:10D8500000F0D8F9032001B0BDE8F08F20692861FD
:10D86000284602F091FC6169884203D1002001B092
:10D87000BDE8F08F01F044F9C00503D501F040F98F
:10D88000C00707D1052001B0BDE8F08F042001B02A
:10D89000BDE8F08F43F21750C0F6020003F052FBD0
:10D8A00016A003F04FFB43F21550C0F6020003F040
:10D8B00049FB40F2011000F0A5F9052001B0BDE8D8
:10D8C000F08F00BF536F75726365204352433A2552
:10D8D000303858204352433A253038582065727208
:10D8E0006F722E0D0A0000007570646174653A2035
:10D8F000252E326625250D0A00000000B9CCBCFE9D
:10D90000BFBDB1B4BAF3A3ACD0A3D1E9C4BFB1EAEF
:10D91000C7F8D3F2D0C2B9CCBCFE435243CAA7B0B9
:10D92000DC2E0D0A0000000070B540F60406C2F2BD
:10D9300000064FF4007048F20004706006F1100118
:10D9400000204FF40072C0F60004002502F05EFDD6
:10D95000B060204631464FF40472FCF766FC48B1D3
:10D9600040F60401C2F2000120464FF4047200F0B8
:10D9700039F80546284670BDB0B51446012A05465B
:10D980000CDB01226019C0F60802904206D208465C
:10D9900029462246FCF719FC0020B0BD01F0B0F882
:10D9A000800503D501F0ACF8C00701D10120B0BD5E
:10D9B00043F21750C0F6020003F0C4FA43F21950C4
:10D9C000C0F602002946224603F0BCFA43F2155085
:10D9D000C0F6020003F0B6FA40F2012000F012F99E
:10D9E0000120B0BD2DE9F04F85B01546012A04464F
:10D9F00054DB0E4601212819C0F6080188424DD299
:10DA000040F21450C2F20000006842F20C0B4FF0DA
:10DA1000FF31C4F2020B04F0B9FCFDF7DBFF342741
:10DA2000EA46CBF8007006E00236023D04F102043B
:10DA3000CBF8007078DD60050CD0208832889042E9
:10DA4000F2D0012021460023FDF76AFF0028EBD029
:10DA500078E000BF002001900120049001A8514609
:10DA60000394FDF7F9FE0028E7D04FF0080900BF46
:10DA7000A9F101095FEA09680AD001A85146CBF86B
:10DA80000070FDF7E9FE0028F2D1B8F1000FD4D103
:10DA900001F036F880050DD4022446E001F030F89C
:10DAA000800501D4012449E001F02AF8C0070BD118
:10DAB000012443E001F024F840F21455C007C2F2FB
:10DAC00000051BD1022434E043F21750C0F60200D7
:10DAD00003F038FA43F25F50C0F6020021462A46AE
:10DAE00003F030FA43F21550C0F6020003F02AFAB0
:10DAF00040F2012000F086F801241FE043F21750A5
:10DB0000C0F6020003F01EFA20A0214603F01AFA24
:10DB100043F21550C0F6020003F014FA40F201205F
:10DB200000F070F8022404E0002440F21455C2F220
:10DB30000005FDF7EBFE286804F0C8FA204605B0A2
:10DB4000BDE8F08F00F0DCFF40F214558005C2F212
:10DB5000000503D500F0D4FFC00701D10424E8E795
:10DB600043F21750C0F6020003F0ECF916A021466C
:10DB700003F0E8F943F21550C0F6020003F0E2F9B1
:10DB800040F2012000F03EF80424D2E763466C61C5
:10DB90007368577269746544617461732048414CBD
:10DBA0005F464C41534845785F457261736520611B
:10DBB0006464723A20307825303858206572726F6C
:10DBC000722E0D0A0000000063466C617368577284
:10DBD00069746544617461732048414C5F464C41EF
:10DBE00053485F50726F6772616D20616464723A6E
:10DBF00020307825303858206572726F72210D0AF6
:10DC00000000000010B540F2F874C007C2F2000432
:10DC10000AD0226840F2F86143F60000C2F2000127
:10DC2000C4F2010004F084F800210020216010BD3E
:10DC30002DE9F04F81B0E1B3814648880C4602BA25
:10DC40008888170C00BA497807EB104B062908BFE3
:10DC50004FEA124B1FFA8BF20023B3EBD22F19D1EC
:10DC600010294FEA104829D006292ED0032911D1B6
:10DC700000F078F841F610012078C2F2000101EBC3
:10DC800047024146234600F0C5F8052000EB480353
:10DC9000002706E020780122234600F0FDF8002747
:10DCA00005230026484600212246009600F040F950
:10DCB00000E00127384601B0BDE8F08F552F17D19D
:10DCC000204600F075FA07462DE041F61000C2F23A
:10DCD000000020F817803846414600F035F82078DB
:10DCE00039464246234600F0BBF800270823D8E710
:10DCF000B8F1000F16D041F6100A651DC2F2000AF5
:10DD0000464600BF15F8021FB8B22AF810106A780C
:10DD100042EA01212AF8101000F016F8013E07F13E
:10DD20000107EFD1002720782FB161780122234627
:10DD300000F0B2F8B4E7ABEB080189B242462346E3
:10DD400000F092F80823ACE7542808BF012901D05D
:10DD50000020704780B5012000F062FABDE88040E5
:10DD6000002070472DE9F04381B002F0E7F8026926
:10DD7000406941F61001C2F20001C1E9002043F2FE
:10DD8000FC42C0F60202D2E9050942F6306CC1E954
:10DD90000D090120C0F2020043F2300E92E8F800B3
:10DDA000D269C1F808010320C3F2301CC3F22E0E61
:10DDB000A1F80C0104204FF00008C1E904EC01F1C6
:10DDC000200CCA63C0F205000622C1E906888CE86F
:10DDD000F800C1F814010020A1F8182101B0BDE835
:10DDE000F0830000B0B593B1187006205870080A8F
:10DDF0009870100AD97018715A71002019460622BD
:10DE00001C46002502F002FBE0802846B0BD012040
:10DE1000B0BD000070B503B37D2984BF022070BD82
:10DE2000187003201C4658704800987059B1631C44
:10DE3000023A0026D578013603F8025F12F8025F35
:10DE40008E425D70F6D3C61C002021463246002566
:10DE500002F0DCFAA053284670BD012070BD00001E
:10DE600080B5FFF7BFFF80BDB0B593B1187010202B
:10DE70005870080A9870100AD97018715A710020E9
:10DE8000194606221C46002502F0C0FAE08028460A
:10DE9000B0BD0120B0BD0000B0B57BB1187041F03D
:10DEA000800058709A700020194603221C460025F5
:10DEB00002F0ACFAA4F803002846B0BD0120B0BDC2
:10DEC00080B544F20041C4F2000188420AD043F612
:10DED0000002C4F2010290420BD101F5744000F03F
:10DEE000CFFC80BD44F20040C4F2000000F030FAE4
:10DEF00080BD012080BD000080B544F2004CC4F21A
:10DF0000000C60450AD043F60003C4F201039842B6
:10DF10000BD10CF5744000F0FFFC80BD44F20040D2
:10DF2000C4F2000000F018FA80BD012080BD00009E
:10DF30002DE9F04743F6000940F23058C4F20109D8
:10DF400044F2004A1D4616460446C2F200084845FF
:10DF5000C4F2000A06D0544524D140F21C50C2F24B
:10DF6000000000E040460068089F4FF0FF3104F0D9
:10DF70000DFA3846FCF74AFA03F0F8F9544514D084
:10DF80004C450CD10AF5744031462A4603F0D0FEC8
:10DF9000544514D04C4502D1D8F8000014E00220BA
:10DFA000BDE8F0870120BDE8F08744F20040C4F2EC
:10DFB000000031462A4600F0D3F95445EAD140F238
:10DFC0001C50C2F20000006804F080F80020BDE898
:10DFD000F08700002DE9F04788B040F21C5A8046D7
:10DFE0000020C2F2000ACDE90600CDE90400CDE927
:10DFF0000200DAF800000C4644F200494FF0FF310D
:10E00000C4F2000904F0C2F94846FFF759FF94F83A
:10E0100004011427831C4846002122460097FFF77D
:10E0200087FF60780827102818BF062824D13846B3
:10E03000FCF7ECF94FF07F51FCF75CF90021C4F2DA
:10E04000C821FCF7FFF8FCF7EFF94FF47A7180FB79
:10E050000123012102A8009100F038FB4846214627
:10E060003A46FFF749FF054608B302A800F0D4FE80
:10E0700002280AD100271AE003282ED160792179DD
:10E08000400040EA4120471DD1E702AE4FF08040FA
:10E0900003F06CF9484621463A46FFF72DFF054646
:10E0A00028B1304600F0B8FE0228EFD10027E11970
:10E0B000C7F58072484600F029FFC3190027404683
:10E0C000002122460097FFF733FFDAF8000003F043
:10E0D000FDFF284608B0BDE8F0870027A7E700004D
:10E0E0002DE9F04117460C46804600F0B7FF4FF48B
:10E0F0007A7200230025FCF737F840F63426C2F286
:10E100000006D6F80811411AB1F5FA7F88BF86F8E3
:10E110000551012FC6F808011CDB7D1C012707E013
:10E1200040463146FFF756FF0746013D012D0EDD03
:10E1300014F8011B304600F0E9FC0628F5D13078D0
:10E140001028EDD140463146FFF772FDECE778B27A
:10E15000BDE8F081012778B2BDE8F08180B540F6D6
:10E160004061C2F20001C1F8640100F063F880BDB3
:10E1700070B590B06D46044628464021FCF73EF845
:10E18000D4E90701A66ACDE90301012002902846DF
:10E1900001F0FAFF864208D12088002812BF002033
:10E1A000204600F05FF810B070BD632010B070BD65
:10E1B000F0B581B0064601F0C7FED6F80700D6F8E4
:10E1C0000B50D6F80F7002F0CDF80446284602F046
:10E1D000C9F80546384602F0C5F813360746002050
:10E1E00031462A4602F012F9874207D104F5002091
:10E1F00031462A4600F06CF901B0F0BD022001B0B2
:10E20000F0BD000080B540F6406148F60000C2F263
:10E210000001C0F600004FF4CA72FFF7ADFB80BDED
:10E2200080B540F64061C2F2000181F8610100F062
:10E2300001F880BD10B540F64064C2F20004002031
:10E2400021464FF4C87201F06FFFC4F8900148F600
:10E250000000C0F6000021464FF4CA72FFF7C2FB6F
:10E2600010BD000070B584B0044601F05BFEE169AA
:10E2700005460020CDE90200019001F5026002A9E7
:10E28000082200F0DBF8E06901A900F5066004222D
:10E2900000F0D4F8019847F64D11C5F25341884279
:10E2A00017D140F21801D4E90702C2F20001C86098
:10E2B0008868A36A40F00100886060880A610228CB
:10E2C0004B6109D001280BD038BB05F5C8769035D5
:10E2D00009E0022004B070BD05F58876103502E033
:10E2E00005F5A876503540F21801C2F2000130461B
:10E2F000FFF7D6F908B104B070BD206AA16A306199
:10E30000B068716140F00400B060A86820F00100BE
:10E31000A860FFF709FB04B070BD032004B070BD16
:10E32000B0B540F25805C2F200052878012460B962
:10E3300001F0BCF8014640F6D470C2F20000103083
:10E340001022FBF766FF2C7000242046B0BD0000B1
:10E3500080B500F095FA80BD80B500F0DDFA80BD93
:10E36000F0B581B044F20045C4F20005A8421AD1CC
:10E3700005F5504714460E46384680210122FDF728
:10E380003BFC6820002102F039FA2846314622463B
:10E3900003F0CEFC6820002102F030FA38468021DC
:10E3A0000022FDF729FC002001B0F0BDB0B582B01D
:10E3B000010C8DF80510010A8DF806108DF8070084
:10E3C00000F030F801F094FE08B1012425E002F0DD
:10E3D00045F801F08DFE08B102241EE040F600452C
:10E3E000C4F2010528464FF480510022FDF704FCD9
:10E3F00040F2A064C2F200042046202101F07EFE1B
:10E400000DF105012046032200F0EAF804462846F3
:10E410004FF480510122FDF7EFFB00F04FF820464A
:10E4200002B0B0BD80B540F22050C2F200000068DA
:10E430004FF0FF3103F0AAFF80BD00002DE9F0414D
:10E4400082B00D46010C8DF80510010A14468DF8B6
:10E4500006108DF80700FFF7E5FF01F049FE08B14F
:10E46000012425E040F60048C4F2010840464FF47C
:10E4700080510022FDF7C0FB40F2A067C2F2000706
:10E480003846032101F03AFE0DF10501384603221A
:10E4900000F0A6F8064638462946224600F08AF8DB
:10E4A00040EA060440464FF480510122FDF7A4FBE8
:10E4B00000F004F8204602B0BDE8F08180B540F2DB
:10E4C0002050C2F20000006803F000FE80BD000092
:10E4D000F0B581B014460D460646FFF7A3FF012CA8
:10E4E00019DB00BF300503D13046FFF75FFFB0B93D
:10E4F000F0B2C0F58077BC4298BF27463046294627
:10E500003A4600F013F840B9E41B3E44002C3D4469
:10E51000E8DC002404E0002402E0022400E00124FE
:10E52000FFF7CCFF204601B0F0BD00002DE9F0411F
:10E5300082B00D46010C8DF80510010A14468DF8C5
:10E5400006108DF8070001F0D3FD08B101242CE07E
:10E5500001F084FF01F0CCFD08B1022425E040F673
:10E560000048C4F2010840464FF480510022FDF7F4
:10E5700043FB40F2A067C2F200073846022101F0D7
:10E58000BDFD0DF105013846032200F029F80646CD
:10E5900038462946224600F023F840EA0604404661
:10E5A0004FF480510122FDF727FB204602B0BDE861
:10E5B000F081000089B1012A0FDB80B582B04FF0F5
:10E5C000FF3C93B20A46CDF800C0FEF72BF90028B5
:10E5D00018BF0120400002B080BD0120704700003C
:10E5E00061B1012A0ADB80B592B24FF0FF33FEF72A
:10E5F00045F8002818BF0120400080BD0120704769
:10E60000B0B582B041F2F545C0F6020526A014214E
:10E6100001220023009504F05BFA044640F22C50DE
:10E62000C2F20000046003F0C3FF0246C825204682
:10E6300001210023009504F08DFA41F2D144C0F687
:10E6400002041CA0142101220023009404F040FACB
:10E65000044640F22850C2F20000046003F0A8FF14
:10E660000246204601210023009504F073FA41F28E
:10E67000C944C0F6020412A06421012200230094C0
:10E6800004F026FA044640F22450C2F2000004606E
:10E6900003F08EFF0246204601210023009504F07E
:10E6A00059FA002002B0B0BD54696D6572206C65E6
:10E6B0006400000054696D6572206B65790000008C
:10E6C00054696D657220626565700000B0B1F0B587
:10E6D00081B0069F1D460446164600F0BBFC80191B
:10E6E000694184E8430020463946E56000F00AF8B5
:10E6F000002001B0BDE8F04040B27047FF2040B2BA
:10E700007047000010B550B104468807217403D546
:10E7100000F0A0FCC4E90001002040B210BDFF20C1
:10E7200040B210BD80B582B041F21C00C4F20200BC
:10E73000016840F2000341F0020101600068C2F28A
:10E74000000300F00200019001981B6840F22C3099
:10E750004FF0FF31C2F2000040F2004C002201EB0A
:10E76000D321C4F2000CC0E902218021C0E900C21B
:10E7700002618161FEF796F9002002B080BD0000C1
:10E7800010B582B041F21C00C4F20200016840F2F0
:10E79000743441F01001016000684DF6836100F0AF
:10E7A00010000190019840F20000C2F200000068E1
:10E7B000C4F21B31A0FB010141F20000C2F20004CF
:10E7C000C4F200004FF0FF3202EB914100224FF6FD
:10E7D000FF7384E80F008020A06120462261FEF7CD
:10E7E00061F92046FEF78EF9362001210022FDF75F
:10E7F0002BFB3620FDF724FB002002B010BD0000EB
:10E8000010B582B041F21C00C4F20200016840F26F
:10E81000BC3441F020010160006841F2597100F000
:10E8200020000190019840F20000C2F20000006850
:10E83000CDF2B711A0FB010141F20040C2F2000489
:10E84000C4F2000000224FF0FF33C4E90002802030
:10E8500003EBD131A0612046C4E902212261FEF719
:10E8600021F92046FEF74EF9372003210022FDF75B
:10E87000EBFA3720FDF7E4FA002002B010BD0000EB
:10E8800080B543F60001C4F2010188420AD044F287
:10E890000041C4F2000188420DD140F2AC00C2F246
:10E8A000000003E040F29000C2F20000032100F0FB
:10E8B0009FFA40B280BD00F023F9800516D500F024
:10E8C0001FF9C00712D043F21750C0F6020002F041
:10E8D00039FB08A002F036FB43F21550C0F60200E7
:10E8E00002F030FB40F20120FFF78CF9012040B22A
:10E8F00080BD00BF6355617274526563656976655A
:10E90000436C656172206368616E6E656C20657230
:10E91000726F722E0D0A000070B5012A12DB0D46CF
:10E9200043F60001C4F20101144688420CD044F2BF
:10E930000041C4F2000188421BD140F2AC06C2F291
:10E94000000605E0012070BD40F29006C2F200060C
:10E95000304600F0F7FAA042BCBF032070BD30463D
:10E960002946224600F0E6F9002818BF0120800061
:10E9700070BD00F0C5F8800503D500F0C1F8C007F0
:10E9800001D1022070BD43F21750C0F6020002F020
:10E99000D9FA07A002F0D6FA43F21550C0F60200E9
:10E9A00002F0D0FA40F20120FFF72CF9022070BDEE
:10E9B000635561727452656365697665446174611B
:10E9C00073206368616E6E656C206572726F722E63
:10E9D0000D0A0000884204BF0120704701EA0002CE
:10E9E0008A4204BF0220704741EA000208208A429E
:10E9F00008BF042070470000F0B581B018B38169EA
:10EA0000044611B38847054610B9206800283DD058
:10EA100021682846FFF7DEFF074600F01FFB4FF492
:10EA20007A7200230026FBF79FFB791E07292ED858
:10EA3000DFE801F0040D2D152D2D2D21204600F0CD
:10EA400029F8064623E0002621E000261FE00026E4
:10EA50000221A182C4E90055C4E9020617E0216839
:10EA6000E268A9431143E160617D20610802061D4F
:10EA7000A68225600BE02168E268A9431143C4E93E
:10EA80000150C4E903102560002600E0002630464E
:10EA900001B0F0BDB0B5044600F0E0FA4FF47A7270
:10EAA00000230025FBF760FBA18A02238A1EB3EB3B
:10EAB000322F0AD04FEA3222012A13D082B9A2683B
:10EAC000801A322819D3012012E0A268801A41F27C
:10EAD0008832904211D3042060F31F210D46A18299
:10EAE000A8B2B0BDA268801AB0F5FA6F05D30220B3
:10EAF00060F31F2188B2A182B0BD0025A8B2B0BDCD
:10EB000040F20400C2F2000000687047002804BF11
:10EB10000020704710B5044690F80501062804BF90
:10EB2000002084F8050194F80501052813D8DFE8D2
:10EB300000F01503121A2E4200201029617084F88B
:10EB4000040108D8012048228840C0F20102104286
:10EB500001D0032163E0002084F805011029217011
:10EB60005FD101215BE094F804216078531C2244BA
:10EB7000102884F80431917028D0062801D0032889
:10EB80002DD194F80401032826D9052028E094F813
:10EB900004216078531C2244102884F8031184F85F
:10EBA0000431917026D0062801D0032829D10020F5
:10EBB0002146062222E094F8040184F80211421C46
:10EBC000204484F804218170042128E0A07994F87D
:10EBD000041105308842D8D994F8050100E00020DE
:10EBE00094F8041184F80501FB2994BF94F80511E9
:10EBF000002114E0A0792146C21D002001F006FC8E
:10EC000000E0002094F80211C2B291424FF00001DE
:10EC100005D194F80321B2EB102F08BF062184F828
:10EC2000051194F8050110BD002804BF02207047AB
:10EC3000012BBCBF03207047DDF800C0013380F812
:10EC400018C002EB030C80E80610C0E90322436100
:10EC500000207047B0B582B040F2900041F2F83227
:10EC60000125C2F2000021A1C2F200024FF400739C
:10EC70000095FFF7D9FF044640F2AC0041F2FC5288
:10EC8000C2F200001CA1C2F200024FF40073009512
:10EC9000FFF7CAFF044340F2740041F2F412C2F2DB
:10ECA000000018A1C2F200024FF400730095FFF7B4
:10ECB000BBFF044314D0FFF723FF800510D5FFF7F7
:10ECC0001FFFC0070CD013A002F03CF912A002F005
:10ECD00039F917A002F036F940F20120FEF792FF51
:10ECE000002C18BF0124204602B0B0BD55617274DB
:10ECF00020302052656164005561727420312052C9
:10ED00006561640043616E20486F737420526561D1
:10ED1000640000003A000000656E756D5175657500
:10ED200065496E6974206572726F722E0D0A00005B
:10ED30000D00000070B560B10446406848B10D4652
:10ED400029B12046164600F0FDF8B04203DA012052
:10ED500070BD022070BD012E0FDB701CE168013810
:10ED60004A1CE260097805F8011BD4E902219142AE
:10ED700028BF61680128E160F0DC002070BD000060
:10ED8000F0B581B088B10446406870B1204617469E
:10ED90000E4600F0E5F88446B84209DA207E0128E4
:10EDA0004FF0040005D101B0F0BD022001B0F0BD6C
:10EDB0000020012F0FDB7A1C236916F8011B5D1C54
:10EDC00025611970A1682369013A8B4228BF6368E5
:10EDD000012A2361F0DCBC45E5DA2169A268013132
:10EDE000E160914228BF6168E16001B0F0BD0000C0
:10EDF00010B570B10446406858B103291CBF00200B
:10EE000010BD6169FBF7FAF96068C4E903000020EE
:10EE100010BD022010BD000010B588B10446007C72
:10EE2000C00704BF002010BD00F014F9D4E900238E
:10EE3000801A71EB03004FF00200B8BF012010BD33
:10EE4000082010BD2DE9F04383B081460020032B3C
:10EE5000CDE90100009046D39846D9F80030002B48
:10EE600041D0072001910290694648460092FCF784
:10EE700093F84846FCF77CFA48460A21FCF7BEF9AD
:10EE80004846FCF717F900264FF6FF774546002461
:10EE90004846FCF76DFA48460A21FCF7AFF94846A8
:10EEA000FCF708F981B2B2B29142BAB288BF064605
:10EEB000914238BF0746013D0C44E9D1B0B2B9B226
:10EEC000201A401AFBF7ABFA0546A8F10200FBF73F
:10EED000A6FA01462846FBF73FFA44F26701C3F65B
:10EEE0005321FBF707FA03B0BDE8F083914224BF3A
:10EEF0000020704780B530F81100FBF790FA44F21B
:10EF00006701C3F65321FBF7F5F980BD80B544F2E4
:10EF1000004CC4F2000C60450AD043F60003C4F272
:10EF2000010398420BD10CF5744000F02FF880BD1E
:10EF300044F20040C4F2000000F024F880BD00203C
:10EF400080BD000050B1416841B1D0E90312914247
:10EF500091BF501A4069511A084470470020704709
:10EF600068B1416859B1D0E90312914282BFD043E0
:10EF7000084470474069D243114408447047002058
:10EF80007047000080B500F001F880BDF0B581B099
:10EF9000002947D01546012A44DB0C4643F6000100
:10EFA000C4F2010188420AD044F20041C4F20001D7
:10EFB00088421CD140F2AC06C2F2000603E040F2E7
:10EFC0009006C2F200063046FFF7BCFF012829DB9D
:10EFD0000746A842C8BF2F46304621463A46FFF7AB
:10EFE000A9FE002818BF0027384601B0F0BDFFF782
:10EFF00087FD800516D5FFF783FDC00712D043F2C9
:10F000001750C0F6020001F09DFF08A001F09AFF22
:10F0100043F21550C0F6020001F094FF40F20120C7
:10F02000FEF7F0FD002001B0F0BD00BF6355617236
:10F030007452656365697665416C6C446174617393
:10F04000206368616E6E656C206572726F722E0D42
:10F050000A00000080B500F001F880BD10B540F254
:10F06000183E41F2240CC2F2000EC4F2000C00BFA4
:10F07000DEE90031DCF80020DEE900044C405840B5
:10F080002043F5D1981841F1000110BD84B04EF62F
:10F0900008504AF20001CEF20000C0F60101016002
:10F0A000FCF7B6FE41F21800C4F20200016841F01C
:10F0B00001010160006800F0010003900398032043
:10F0C000FCF7D2FE02F01AFAFFF75AFB02F0CEFD6F
:10F0D000FFF716FD400516D5FFF712FDC00712D049
:10F0E00043F21750C0F6020001F02CFFC3A001F05C
:10F0F00029FF43F21550C0F6020001F023FF40F251
:10F100000140FEF77FFDFFF7FBFC400519D5FFF737
:10F11000F7FCC00715D043F21750C0F6020001F00B
:10F1200011FF00F0E3F90146B9A001F00BFF43F233
:10F130001550C0F6020001F005FF40F20140FEF755
:10F1400061FDFFF7DDFC400519D5FFF7D9FCC007CD
:10F1500015D043F21750C0F6020001F0F3FE00F0A4
:10F16000B5F90146B1A001F0EDFE43F21550C0F62D
:10F17000020001F0E7FE40F20140FEF743FDFFF719
:10F18000BFFC400519D5FFF7BBFCC00715D043F203
:10F190001750C0F6020001F0D5FE00F0C7F9014695
:10F1A000A9A001F0CFFE43F21550C0F6020001F015
:10F1B000C9FE40F20140FEF725FDFFF7A1FC400526
:10F1C00019D5FFF79DFCC00715D043F21750C0F6C4
:10F1D000020001F0B7FE00F099F90146A3A001F08A
:10F1E000B1FE43F21550C0F6020001F0ABFE40F252
:10F1F0000140FEF707FDFFF783FC40051CD5FFF734
:10F200007FFCC00718D043F21750C0F6020001F08F
:10F2100099FE00F04BF9014643F20060C0F602008F
:10F2200001F090FE43F21550C0F6020001F08AFE94
:10F2300040F20140FEF7E6FCFFF762FC40051CD5FA
:10F24000FFF75EFCC00718D043F21750C0F602006B
:10F2500001F078FE00F01AF9014643F2E750C0F6DB
:10F26000020001F06FFE43F21550C0F6020001F0FB
:10F2700069FE40F20140FEF7C5FCFFF741FC400586
:10F280001CD5FFF73DFCC00718D043F21750C0F65D
:10F29000020001F057FEFCF7DBFF014643F2696014
:10F2A000C0F6020001F04EFE43F21550C0F6020017
:10F2B00001F048FE40F20140FEF7A4FCFFF720FCFD
:10F2C00040051CD5FFF71CFCC00718D043F21750AF
:10F2D000C0F6020001F036FEFCF790FF014643F253
:10F2E0001B60C0F6020001F02DFE43F21550C0F67F
:10F2F000020001F027FE40F20140FEF783FCFFF719
:10F30000FFFB40051CD5FFF7FBFBC00718D043F2FD
:10F310001750C0F6020001F015FEFCF775FF01461C
:10F3200043F22C60C0F6020001F00CFE43F21550CF
:10F33000C0F6020001F006FE40F20140FEF762FC5A
:10F34000FFF7DEFB40051CD5FFF7DAFBC00718D03E
:10F3500043F21750C0F6020001F0F4FDFCF766FF1F
:10F36000014643F23D60C0F6020001F0EBFD43F2BE
:10F370001550C0F6020001F0E5FD40F20140FEF735
:10F3800041FCFFF7BDFB40051ED5FFF7B9FBC007E9
:10F390001AD043F21750C0F6020001F0D3FD40F23C
:10F3A0000000C2F20000016843F24E60C0F60200A5
:10F3B00001F0C8FD43F21550C0F6020001F0C2FD95
:10F3C00040F20140FEF71EFC0E2040F2700C00904F
:10F3D00041F6FD1043F27A61C2F2000CC0F6020061
:10F3E000C0F602014FF400720023CDF804C003F010
:10F3F00011F802F097FA00BFFEE700BF0A0A0D20DD
:10F400004150502073746172742E0D0A0000000088
:10F41000426F6F7420736F667477617265207665D2
:10F420007273696F6E3A2025730D0A00426F6F7414
:10F4300020736F66747761726520646174653A2029
:10F4400025730D0A00000000426F6F746C6F6164D9
:10F45000657220736F66747761726520766572736A
:10F46000696F6E3A2025730D0A000000426F6F74B9
:10F470006C6F6164657220736F667477617265206A
:10F48000646174653A2025730D0A00004AF6400055
:10F49000C0F60100C17F43F20C50C0F60200002903
:10F4A00004BF4AF64000C0F6010070474AF620004B
:10F4B000C0F60100C17F43F20C50C0F602000029E3
:10F4C00004BF4AF62000C0F60100704740F6400035
:10F4D000C0F60000C17F43F20C50C0F602000029C4
:10F4E00004BF40F64000C0F60000704740F6200020
:10F4F000C0F60000C17F43F20C50C0F602000029A4
:10F5000004BF40F62000C0F6000070474AF64000F5
:10F51000C0F60000C17F43F20C50C0F60200002983
:10F5200004BF4AF64000C0F6000070474AF62000CB
:10F53000C0F60000C17F43F20C50C0F60200002963
:10F5400004BF4AF62000C0F6000070472DE9F043E2
:10F5500081B00E4646F62C11C2F200010D6840F251
:10F560006451C2F20001D1F8008040F26C5140F2C7
:10F570005C54C2F20001C2F20004D1F8009021688C
:10F580000746081D00F084FF10B1781C0FD028E05A
:10F59000206846F62802C06AC2F200020121136800
:10F5A00001FA00F023EA00001060781C19D1C6B1FE
:10F5B00046F60410C2F20000D0E9001223680131BF
:10F5C0009A6093682768FB602368976804337B60C0
:10F5D00023680433936022680160506101B0BDE884
:10F5E000F0832068ED194560206800F1040105D31F
:10F5F000484601F07BFC01B0BDE8F083404601F0D5
:10F6000075FC46F6D000C2F2000001688D4238BF9A
:10F61000056001B0BDE8F0832DE9F041044601F03A
:10F620001FFE46F61800C2F20000016840F25C5569
:10F6300001310160C2F20005296846F6F808C2F2FD
:10F64000000849B1D8F8000060B92868E16AC06ACA
:10F65000884298BF2C6005E02C600068012801D129
:10F6600000F01CFA46F62400C2F20000016846F6DB
:10F67000280201310160E06AC2F200020121136830
:10F6800081401943116040F2745100EB8000C2F2D6
:10F69000000101EB80025368271D9E68A360E660AD
:10F6A0009E689F6051F8203062615A1C776041F873
:10F6B000202001F0E5FDD8F8000088B12868E16A53
:10F6C000C06A884228BFBDE8F0814EF60450CEF2F1
:10F6D00000004FF080510160BFF34F8FBFF36F8F79
:10F6E000BDE8F08170B501F0BBFD46F63016C2F200
:10F6F0000006306810B101F0C3FD70BD46F6740419
:10F70000C2F20004204601F0E1FB46F68805C2F291
:10F710000005284601F0DAFB40F26050C2F200001A
:10F72000046040F27050C2F2000005600A200C2113
:10F73000002202F0CFFB306001F0A2FD70BD00009E
:10F74000F0B581B046F61C05C2F200052868E0B1AC
:10F7500046F6181646F61807C2F20006C2F200076F
:10F7600001F07EFDF068C468201D00F091FE38684D
:10F770000138386028680138286001F081FD204692
:10F7800000F0A0F828680028EAD101B0F0BD000020
:10F7900080B5026C002A08BF80BDD0E902C31344C3
:10F7A000C360634524BF0368C360C3680846194645
:10F7B000FAF70BFD80BD000070B5866B036C044644
:10F7C000E3B115461AB3E0681A46FAF7FEFCE168A1
:10F7D000206C2268091A9142E16003D2A16840427C
:10F7E0000844E060A81EB0FA80F040093146002EBF
:10F7F00018BF01210840361A002516E020680025B0
:10F8000098B9A06802F0A2FFA56005460DE0606807
:10F810001A46FAF7DAFC216CD4E901020025084403
:10F820006060904224BF20686060711C2846A1631C
:10F8300070BD000080B586B0002044F249418DF8CB
:10F840000C00C4F24C5146F6C80C00904FF67910EB
:10F850000291C2F2000CC0F6010002A9802200232E
:10F86000CDF804C002F0D6FD06B080BD2DE9F0430E
:10F8700083B00746900098461546894600F06AFB1B
:10F8800070B10646542000F065FB30B154210446A7
:10F89000FAF7B4FC26632CB90FE0304601F0FEFC09
:10F8A000002454B1DDE90A102A46CDE9001038469B
:10F8B00049464346029400F095F8204603B0BDE85F
:10F8C000F083000010B50446006B01F0E7FC204611
:10F8D00001F0E4FC10BD0000416A00290FBF0020C8
:10F8E000006B0068C0F10F007047000040F26051EB
:10F8F000C2F2000109680A68B2FA82F35B09036088
:10F90000002A0EBF0020C8680068704742F6120047
:10F91000C2F20000C21D22F0070210F0070CA0EB9B
:10F92000020318BF104646F6FC02C2F20002002194
:10F93000C2E900014FF48042BCF1000F18BF03F58B
:10F9400080420244083A40F2685322F00702C2F2B1
:10F9500000031A60C2E90011111A1A68C0E90021F7
:10F9600046F6CC00C2F20000016046F6C400C2F2C6
:10F97000000001607047000040F274544EF60455D8
:10F98000C2F20004CEF200054FF0805602E000BF44
:10F9900000F08CFEFFF7D4FE20680228F8D32E601A
:10F9A000BFF34F8FBFF36F8FF2E70000002808BF4F
:10F9B000704780B500210160C0E9021100210022DA
:10F9C000002302F0E7FABDE88040704780B50029C7
:10F9D00014BF1A601B60C3E90F011846012102F031
:10F9E00099FA80BD2DE9F04381B0DDE9098705462C
:10F9F000386B089C00EB82000438994620F007061B
:10FA000069B107F1340000228B5C83548B5C1BB11D
:10FA10000F2A02F10102F7D3002087F84300381DB6
:10FA20000E2C28BF0E24FC627C6401F05BFA07F107
:10FA3000180001F057FA84F00F00B86130462946EB
:10FA40004A463F617F6200F009FBB8F1000F386061
:10FA500018BFC8F8007001B0BDE8F0832DE9F0438D
:10FA600081B0DDE908951C4690460E460746FFF733
:10FA700039FE281D2F60C5E90664C5F8209001F005
:10FA800031FAB8F1000F05D095F8240040F00400D9
:10FA900085F8240001B0BDE8F0830000B0B540F265
:10FAA00074550024C2F20005281901F00FFA14342D
:10FAB000B4F5967FF8D146F69C04C2F200042046C5
:10FAC00001F004FA46F6B005C2F20005284601F03E
:10FAD000FDF946F6E400C2F2000001F0F7F946F63F
