:020000040800F2
:10000000A83200202D02000879250008712500087B
:1000100075250008B5110008F92900080000000046
:10002000000000000000000000000000E1260008C1
:10003000BD12000800000000A925000815270008CF
:10004000470200084702000847020008470200086C
:10005000470200084702000847020008470200085C
:10006000470200084702000847020008470200084C
:100070004702000847020008B91100081D120008D5
:10008000470200084702000847020008470200082C
:10009000470200084702000847020008470200081C
:1000A000470200084702000847020008470200080C
:1000B00047020008470200084702000847020008FC
:1000C00047020008470200084702000847020008EC
:1000D000470200087D29000847020008470200087F
:1000E00047020008470200084702000847020008CC
:1000F00047020008470200084702000847020008BC
:1001000047020008470200084702000847020008AB
:10011000470200084702000821270008470200089C
:10012000470200084702000847020008470200088B
:1001300000F002F800F06AF80AA090E8000C82448F
:100140008344AAF10107DA4501D100F05FF8AFF26C
:10015000090EBAE80F0013F0010F18BFFB1A43F0A5
:1001600001031847744B0000944B0000103A24BF61
:1001700078C878C1FAD8520724BF30C830C144BF0C
:1001800004680C607047000000230024002500264E
:10019000103A28BF78C1FBD8520728BF30C148BFEA
:1001A0000B607047662904F09184692900F0CE80C5
:1001B000642900F0CB80752900F0C8806F2900F019
:1001C0005F81782900F086810368DB0928BF41F050
:1001D0008001632900F00383732900F00883E32979
:1001E00000F0F885002070471FB500F005FB040003
:1001F0000020002104F080FA401C606000200021F3
:1002000004F064FAE0601FBD10B510BD00F064FF9B
:100210001146FFF7E9FF03F011FA00F082FF03B483
:10022000FFF7F2FF03BC02F035FC000009488047ED
:1002300009480047FEE7FEE7FEE7FEE7FEE7FEE7C8
:10024000FEE7FEE7FEE7FEE704480549054A064BE0
:10025000704700001D27000831010008A80A00208F
:10026000A8320020A82A0020A82A002070470000F9
:100270000FB4044910B503AA029800F08FFD10BC1A
:100280005DF814FB7000002070B5044685690068B5
:10029000C10601D5302600E02026C00707D070BD7A
:1002A000D4E9012130469047206A401C20626D1E2F
:1002B000F6D570BD70B5044685690078C00707D1D2
:1002C00070BDD4E9012120209047206A401C2062A3
:1002D0006D1EF6D570BD09684A0501D540B270475C
:1002E000C905FCD500B2704709684A0501D5C0B2FE
:1002F0007047C905FCD580B2704770B50C460546FD
:10030000012A05D02878800600D5EA69002302E09A
:10031000012305E05B1C934202D2E05C0028F9D186
:10032000A869E618C01AA861286A184428622846F5
:10033000FFF7AAFF04E0D5E9012114F8010B90476B
:10034000B442F8D32846FFF7B5FF70BD2DE9F04160
:100350000646002410687529314616A510D0FFF70F
:10036000BAFF002802DA404213A507E031688A0785
:1003700001D512A502E0490704D511A5012401E029
:10038000FFF7B2FF00210A2206F1240709E0B0FBC3
:10039000F2FCB0FBF2F302FB1C003030785418463C
:1003A000491C0028F3D123462A463046BDE8F041D7
:1003B00000F08DBA000000002D0000002B000000AE
:1003C000200000002DE9FF5F15468A460446DFF84D
:1003D000AC80F8440027D8E900103E46CDE9001073
:1003E00010E03AF816106A4602A800F0FFFC411C23
:1003F00007D02178890603D5E269391891420DD8D2
:100400000744761C2078800602D5E069B84205DDF5
:10041000AE42E6DB3AF816000028E2D1A069C01B24
:10042000A0612046FFF730FFD8E90010CDE90010A9
:10043000002017E03AF818106A4602A800F0D6FC2F
:10044000B0F1FF3F81460BD000250DF1080B05E010
:10045000D4E901211BF8050090476D1C4D45F7D3E9
:1004600008F10100B0428046E4DB206A3844206293
:100470002046FFF71FFFBDE8FF9F0000FA4600007F
:1004800070B5044621461068FFF72EFF002104F1E5
:10049000240505E000F007023032C0086A54491C08
:1004A0000028F7D12068002308A2050708D500F02E
:1004B0002000084304D0E069012305A2401EE0614A
:1004C0002046BDE8704000F002BA000000000000C5
:1004D0003000000070B504460D4621461068FFF755
:1004E00003FF2188090502D50F4A7A4402E00E4A2B
:1004F0007A440E32002104F1240305E000F00F06D7
:100500000009965D5E54491C0028F7D1207800232D
:10051000000704D5702D02D009B102231132204604
:10052000BDE8704000F0D3B9EA4500002DE9F05F66
:10053000894604464FF0000ADFF874B1FB44C0F866
:1005400020A02046E1688847002874D0252806D0DE
:10055000D4E901219047206A401C2062F1E700267F
:100560005F462046E16888472028054607DB312D95
:1005700005D2781910F8200C08B10643F1E7B0074E
:1005800001D526F00406C4F81CA00027C4F818A062
:100590002A2D09D0284604F091F838B304EB8708D7
:1005A000303DC8F8185019E059F8041B204604EBF8
:1005B00087029161E1688847012F054618D1E069FB
:1005C000002820DA26F020061DE0D8F8180000EBFD
:1005D000800005EB40003038C8F818002046E1687C
:1005E0008847054604F06AF80028EED1012F0AD0AA
:1005F0002E2D08D12046E16888477F1C0546022F32
:1006000046F02006C4DBA069002803DA404246F029
:100610000106A061F00701D026F010066C2D0BD06A
:10062000682D09D04C2D39D06A2D35D0742D35D098
:100630007A2D33D016E038E0E1682F46204688470F
:10064000B842054609D16C2F26D04FF48060E1688E
:10065000064320468847054604E06C2F1AD04FF425
:10066000807006430DB3A5F14100192802D820354A
:1006700046F400664A462946204626604E46FFF765
:1006800091FD80B101280BD0F61D26F0070000F186
:10069000080956E74020E4E78020D8E70020D6E7A5
:1006A00006F104094DE7284652E7206ABDE8F09FAD
:1006B000C045000010B5044603E002F08BFF401C6B
:1006C00009D014F8010B05490028F6D1BDE8104007
:1006D0000A2002F07FBF4FF0FF3010BD70000020F5
:1006E00040EA010310B59B070FD1042A0DD310C8AF
:1006F00008C9121F9C42F8D020BA19BA884201D901
:10070000012010BD4FF0FF3010BD1AB1D30703D048
:10071000521C07E0002010BD10F8013B11F8014BFE
:100720001B1B07D110F8013B11F8014B1B1B01D11A
:10073000921EF1D1184610BD032A40F2308010F00D
:10074000030C00F0158011F8013BBCF1020F62446C
:1007500098BF11F801CB00F8013B38BF11F8013BFD
:10076000A2F1040298BF00F801CB38BF00F8013BAA
:1007700011F0030300F05E83083AC0F0088051F8DE
:10078000043B083A51F804CBA0E80810F5E7121D25
:100790005CBF51F8043B40F8043BAFF30080D20744
:1007A00024BF11F8013B11F801CB48BF11F8012B10
:1007B00024BF00F8013B00F801CB48BF00F8012B33
:1007C0007047704770477047704710B5436913B161
:1007D000AFF3008001E0FFF790FD012010BD12781B
:1007E00000F124010A7000224A700122EDE711682D
:1007F0004FF0FF32E9E7000000487047300000206A
:1008000030302E30302E303100000000000000006B
:1008100000000000000000000000000000000000D8
:1008200030302E30302E303100000000000000004B
:1008300000000000000000000000000000000000B8
:100840004A616E2031362032303236202D20313050
:100850003A35383A32310000000000000000000054
:100860004D7953544D333200000000000000000069
:100870000000000000000000000000000000000078
:100880004FF0000200B5134694469646203922BF29
:10089000A0E80C50A0E80C50B1F12001BFF4F7AF74
:1008A000090728BFA0E80C5048BF0CC05DF804EB56
:1008B000890028BF40F8042B08BF704748BF20F8C4
:1008C000022B11F0804F18BF00F8012B70472DE963
:1008D000F0470D4699469246044600F12408016807
:1008E000880604D5E06921F01001216000E00120B4
:1008F000A84201DD471B00E00027A1697A1902EB3D
:100900000900081AA0612078C00602D42046FFF72B
:10091000BBFC002608E0D4E901211AF80600904744
:10092000206A401C761C20624E45F4DB2078C0060D
:100930000AD52046FFF7A8FC06E0D4E901213020C3
:100940009047206A401C2062381EA7F10107F4DCA2
:1009500007E0D4E9012118F805009047206A401CFF
:100960002062281EA5F10105F3DC2046FFF7A2FC5A
:100970002078000602D50220BDE8F0870120FBE7C1
:100980002DE9FF4F0C461E464FF0FF378BB0D2E9E2
:100990000001DDF860800A908A46C1F30A5505B966
:1009A0003D46002108464FF00000BAF1000F00F468
:1009B000400005DA00EB80004FF4400101EA5000EE
:1009C0004FEA9059B9F1010F00DDB9460A9850EA93
:1009D0004A000ED044F61050A5F2FF3545432F14BF
:1009E000B8F1000F1ED07542291E1EDDC9F10002AC
:1009F0001CE0B8F1010F4FF0000001D0302103E0FE
:100A0000F24305E02154401CB042FBDB304600229B
:100A1000002121540B99C1F80880C1E900200FB0D2
:100A2000BDE8F08FBD1B6D1CDEE74A4600DA694267
:100A300006A800F0D7FA06AB93E8070003AB83E8FB
:100A4000070050460A9903F05DFA8DE80700A0F50B
:100A500000501F3800900398002D0ADD42F21F015C
:100A60004A460844002303A90390684603F0C6FCE5
:100A700009E0A0F500504A461F38002303A903905F
:100A8000684603F0D0FC8DE807000004000C03D09A
:100A90004FF0FF30410800E01046B8F1000F03D0DE
:100AA0000022009215461EE0751E05D400F0FCF9E8
:100AB000303262556D1EF9D5B3460122084302D08B
:100AC00000227F1C04E02078302801D100227F1E04
:100AD000002A099784D01DE0112D07DA00F0E4F90F
:100AE000303262556D1C50EA0102F5D1084302D044
:100AF0000098C8B10EE00021681E05E0235C625C2E
:100B000063542254401E491C8142F7DBAB46A81BAC
:100B1000401E0990002004F80B000B98099AC0F8B9
:100B20000880C0E9002B7AE711264FF0000857E74C
:100B30002DE9F04F88460446D21D22F0070191B0FE
:100B4000D1E90001CDE90A0103F0A4FD02460B98AA
:100B5000C00F01D02D2007E02068810701D52B2090
:100B600002E0202101EAC000032A099001D0072AEF
:100B700005DB03464146204600F0F4F90BE12078FE
:100B8000800601D5E06900E00620B8F1650F8146D6
:100B900006D0B8F1660F18D0B8F1670F70D131E008
:100BA0000020B9F1110F009001DB112301E009F1E0
:100BB00001030AAA01A90CA8FFF7E2FEDDE90C7007
:100BC000002609F10105834647E001204B460090CD
:100BD0004FF000470AAA01A90CA8FFF7D1FEDDE9F2
:100BE0000DB00C995D46002610B909F101000D18F1
:100BF000B9EB050003D4C0F1FF3609F10105A5EBFF
:100C000009002BE0B9F1010F01DA4FF001090020D2
:100C1000B9F1110F0090484601DD112300E00346B1
:100C20000AAA01A90CA8FFF7ABFEDDE90C704D463E
:100C300000268346207800070AD4AB4500DA5D46DB
:100C400001A8012D04DD411911F8011C302907D03C
:100C50004F4502DA17F1040F04DA012082460FE053
:100C60006D1EEEE7002F02DCED1B3E4403E0781C16
:100C7000A84200DD7D1CB81B00F1010A4FF00047BF
:100C80002078000703D4AA4501DB4FF0FF3A00218A
:100C9000B7F1004F0DF143088DF8431024D0022026
:100CA0002B23002F01DA7F422D230A21021EA0F1FF
:100CB000010000DC5FB197FBF1FC97FBF1F201FB57
:100CC0001C7C17460CF1300C08F801CDEEE7A8F1BA
:100CD000010003702188090501D5452100E0652147
:100CE000A0F1010800F8011C09980FA9A1EB080761
:100CF000FF1D00B10120411901EBEA70A1693844E0
:100D0000081A401EA0612078C00602D42046FFF7D2
:100D1000BBFA099828B1D4E901219047206A401C08
:100D200020622078C00622D52046FFF7ADFA1EE0EB
:100D3000002E04DBB34502DD01A8805D00E0302019
:100D4000D4E901219047206A401C2062761CAAF158
:100D500001005FEA000A0AD1FFF74EFDC068016892
:100D6000405CD4E901219047206A401C2062281E83
:100D7000A5F10105DCDC07E0D4E9012118F8010B3D
:100D80009047206A401C2062381EA7F10107F3DC5F
:100D90002046FFF78FFA032011B041E6074B70B5EC
:100DA0000D467B4400F0CBF80446284600F08CF951
:100DB00010B14FF0FF3070BD204670BD2F280000ED
:100DC00010B5436913B1AFF3008001E0FFF7FAFA01
:100DD000012010BD128800F1240182840022C28407
:100DE0000122EDE711684FF0FF32E9E72DE9F0410C
:100DF00016460C46054600F04FF8036893F80101CB
:100E0000012807D0FF2C12D8185D80B101202C706A
:100E1000BDE8F081D3F807013246214603F20713FB
:100E2000C7182846BC46BDE8F041002360474FF094
:100E3000FF30EDE710B5203AC0F00B80B1E8185054
:100E4000A0E81850B1E81850A0E81850203ABFF4B4
:100E5000F5AF5FEA027C24BFB1E81850A0E8185053
:100E600044BF18C918C0BDE810405FEA827C24BFA7
:100E700051F8043B40F8043B08BF7047D20728BF35
:100E800031F8023B48BF11F8012B28BF20F8023B84
:100E900048BF00F8012B704710B5FFF7ADFC001DEF
:100EA00010BD00BF5538000030B5B0F10A0271F135
:100EB00000034FEA900E4EEA817EB0EB0E0061EB2C
:100EC00091014FEA101E4EEA017E10EB0E0041EB3D
:100ED00011114FEA102E4EEA016E10EB0E0041EB9D
:100EE00011214FEA104E4EEA014E10EB0E0041EB7D
:100EF0001141401841F100014FEAD00040EA417031
:100F00004FEAD1014FEA810444EA907410EB800566
:100F100044EB01046D1944EB0404521BA3414FF050
:100F2000000348BF0A3200D530BD401C41F100012A
:100F300030BD000001694A1C02610878704700B5A5
:100F40008FB0CDE901310021059105497944CDE902
:100F5000031011466846FFF7E9FA0FB000BD000024
:100F6000E5FFFFFF2DE9F0411F4604460326016817
:100F7000072A01F4006004DB08B116A505E016A5F8
:100F800003E008B115A500E015A521F010002060D0
:100F9000A069C01EA0610FB1401EA0612046FFF7EE
:100FA00073F94FB1D4E9012138469047206A401CBB
:100FB0002062C01C206206E0206AFAE7D4E9012121
:100FC00015F8010B9047761EF8D22046FFF772F90C
:100FD000BDE8F0814E414E006E616E00494E460004
:100FE000696E66002DE9F047814616468AB035489D
:100FF00078440DC88DE80D0032487844801C03AC5D
:101000000DC884E80D0041F69B300844372190FB61
:10101000F1F290FBF1F5A5F1800501FB12041B3CF8
:1010200002D56442012000E00020DFF898A080464D
:101030000027FA44AAF1BE0A0EE0E0070AD03246C1
:10104000684607EB470101230AEB810103F0EBF946
:101050008DE8070064107F1C002CEED1194F7F44EF
:10106000AE3F19E0E80715D007EB04100DF1180AA0
:1010700090E80E008AE80E00C068F04201D198198D
:1010800008903246012306A903A803F0CCF903AB6C
:1010900083E807006D10641C002DE3D14FF00103BD
:1010A00032466946B8F1000F03A802D003F0A6F952
:1010B00001E003F0B8F9C9E90001C9F808200AB055
:1010C000BDE8F0879C3B0000007B00F0800070478B
:1010D00000487047100000207546FFF7F9FFAE4644
:1010E00005006946534620F00700854618B020B534
:1010F000FFF7AAF8BDE820404FF000064FF00007C8
:101100004FF000084FF0000BAC46ACE8C009ACE86B
:10111000C009ACE8C009ACE8C00921F007018D4660
:10112000704710B50446AFF300802046BDE810407C
:10113000FFF775B84FF0013C50F8042B51F8043B11
:101140009A4221D1A2EB0C03934313EACC1317D19B
:1011500050F8042B51F8043B9A4215D1A2EB0C0332
:10116000934313EACC130BD150F8042B51F8043BF2
:101170009A4209D1A2EB0C03934313EACC13DBD0C0
:101180004FF00000704700BFD01A01BAB1FA81F1E8
:1011900001F0180122FA01F0CB40DBB2C0B2C01A54
:1011A000C1F120012CFA01F3D11A914311EAC311C4
:1011B000E6D17047FEE7000040F2CC100021C2F2F9
:1011C0000000C4F20201026801F180039A4208D9CA
:1011D000D1F8001489041FD540F20441C4F2020181
:1011E00004E051F8042B920458BF70474FF480522A
:1011F0000A604FF400520A604FF480420A604FF4D4
:1012000000420A6040F2A821C2F20001202281F8C7
:1012100039204FF48071018470470000B0B540F26E
:101220008815C2F2000580242968C4F202046FF018
:101230007F00A14288BF4FF460700159490310D468
:101240002058800358BFB0BD02F060FD2868A0425E
:1012500014D940F20440C4F202004FF4003101609E
:10126000B0BD02F053FD2868A0420CD940F2044002
:10127000C4F202004FF480210160B0BD4FF4003091
:1012800044F87C0CB0BD4FF4802044F87C0CB0BD19
:10129000B0B5D0E900CED0E90F40012505FA00F045
:1012A00060600846CCF80430BEF1100F04BF104651
:1012B0000A46CCF80800CCF80C20B0BD70470000FE
:1012C00040F2E820C2F200000021C16142F21000A9
:1012D000C4F20200016841F004010160016841F0BC
:1012E000400101607047000040F2E821C2F20001B5
:1012F0000022CA6142F21001C4F202010A6842F0FF
:1013000002020A604860086840F0400008607047C8
:1013100040F2E822C2F200020023D36142F210023E
:10132000C4F20202136843F00103136001807047A6
:1013300042F20C00C4F202000168C90640F2E82142
:10134000C2F2000101D4002204E0CA6942F00202A4
:10135000CA61102203685B0705D5CB6942F004021D
:1013600043F00103CB610369DB0707D0CB6943F08E
:101370000403CB61016921F0010101610260704742
:10138000F0B581B042F20C060446C4F2020600F049
:101390008DFA3168C90715D13068800644BF202016
:1013A00030603068C00608D43069C00705D13068A5
:1013B000400702D4002001B0F0BDFFF7B9FF0120C3
:1013C00001B0F0BD0546671C04D044B9032001B04C
:1013D000F0BD00BF3068C007DED0002FFAD000F0AB
:1013E00065FA401BA042F5D9F0E70000002804BFD1
:1013F000012070472DE9F04140F2000CC4F2020CCC
:1014000001684FF6F8320CF58163CBF6FD72994214
:1014100038BF02F580624CF6CD430A44CCF6CC438B
:10142000A2FB03236FF003050CF5806405EA930328
:10143000D0E9012ED0F80C803CBF0024C4F2020495
:10144000C0E90F430B6843F6F075AB431A43D0E98C
:10145000045442EA0E0242EA0802D0E906672A432F
:10146000224332433A430A6000214FF48072816381
:101470000284BDE8F04108467047000010B50446FC
:1014800090F82000012821D094F821004FF0010CA1
:10149000012884F820C016D1022084F82100002001
:1014A000A063D4F800C0DCF8000020F00100CCF804
:1014B00000002046FFF7ECFE2068E26A01683AB1BE
:1014C00041F00E010AE0002084F82000022010BD47
:1014D00021F004010160016841F00A010160206807
:1014E000016841F001010160002010BD80B541F2AA
:1014F0000C00C4F202004FF0FF3100220160426094
:101500000160026000F00EFA002080BD2DE9F0417C
:1015100040F2E828C2F2000898F81820012A04BF17
:101520000220BDE8F081054601202E6888F81800E9
:101530004CF250300C46FFF723FF022E02D120B1AF
:10154000012037E080B1012034E0FFF7B9FE4CF212
:101550005030FFF715FF42F21001C4F202010A6891
:1015600022F004020A6025E04FF0FF302060D5E948
:10157000026006EBC020864219D242F21007C4F284
:10158000020700BF3046FFF7AFFE4CF25030FFF7C6
:10159000F7FE396821F00201396050B9D5E902122D
:1015A00006F5006601EBC2218E42EBD302E001207A
:1015B00000E02660002188F81810BDE8F0810000E6
:1015C00042F21001C4F20201086840F080020020DB
:1015D0000A6070472DE9F04F81B01C4640F2E823C5
:1015E000C2F2000392461A7E012A03D1022001B002
:1015F000BDE8F08F8146012018764CF250300E463F
:10160000FFF7BEFEB0BB4D4642F21007B9F1020F24
:1016100018BF0425C4F20207B9F1010F08BF4D46F7
:1016200000214FF020096FF01F0B4FF0000800BFA2
:101630000A01A9EB011304FA03F32AFA02F206EBFA
:1016400041001A430BEB0111002958BF24FA01F2A3
:1016500091B2FFF75DFE4CF25030FFF791FE396812
:1016600021F00101396028B908F101085FFA88F119
:101670008D42DDD840F2E8220021C2F2000211764C
:1016800001B0BDE8F08F000042F20400C4F2020095
:10169000C16809065CBF0020704740F22311C4F204
:1016A0006751016048F6AB11CCF6EF510160C0689C
:1016B000C0F3C010704700002DE9F04F83B00C68F4
:1016C000002C00F0EA80A0F18042A2F5843240F2C2
:1016D000004E4FEAB22241F60047C4F2010E0092DA
:1016E000C4F20107062200254FF001094FF0000B5C
:1016F0004FF0000AB84208BF0522019209E000BF7E
:101700000C680BF1010B34FA0BF205F1040500F043
:10171000C48009FA0BF814EA080CF1D04C684FF6B3
:10172000FF72C1F21002944210DC122C50D8DFE894
:1017300004F0330A41454F4F4F4F4F4F4F4F4F4FDC
:101740004F4F4F484C00D1F80CA041E04FF6FF72CC
:10175000C1F2210294420FDC0022C1F21102944234
:101760001AD00022C1F21202944215D00022C1F216
:101770002102944210D02BE00022C1F222029442B6
:101780000AD00022C1F23102944205D00022C1F2F7
:10179000320294421CD100BF8C6844B1012C14BFAA
:1017A000C0F81480C0F810804FF0080A10E04FF025
:1017B000040A0DE0CC6804F1080A09E04FF0000AC1
:1017C00006E0CC6804F1040A02E0CC6804F10C0ADB
:1017D0002C460746BCF5807F24BF203C04373A687E
:1017E0000F2303FA04F6B2430AFA04F422433A60E0
:1017F000CA79D2067FF584AF41F21804C4F202041C
:1018000022684FF6084842F0010222602268CFF6B3
:10181000FF7802F001020292029A2BF00302724456
:1018200052F8084005F00C0603FA06F7009BBC438B
:10183000019F052B38BF1F4607FA06F6344342F8CE
:1018400008404C68E203DEF8002054BF22EA0C078F
:1018500042EA0C07A203CEF80070DEF8042054BF61
:1018600022EA0C0742EA0C07E202CEF80470DEF826
:10187000082054BF22EA0C0742EA0C07A20240F2F9
:101880000C44CEF80870C4F20104226854BF22EA66
:101890000C0242EA0C02226032E703B0BDE8F08F8E
:1018A000002A08BF090401617047000040F69C202F
:1018B000C2F200000068704740F2080040F69C2128
:1018C000C2F20000C2F2000100780A681044086009
:1018D00070470000B0B540F20802C2F2000240F2C8
:1018E00004011278C2F200014FF47A730968B3FB65
:1018F000F2F20446B1FBF2F1084600F03BFD0F2C7A
:101900004FF001050CD858B94FF0FF3021460022A6
:10191000002500F00DF840F20C00C2F20000046057
:101920002846B0BD7047000080B501F067F880BD63
:1019300070B514460D46064601F070F82946224659
:1019400000F01CFE0146304601F070F870BD00004A
:1019500080B501F07DF880BD2DE9F04381B000280D
:1019600000F0898042F20008C4F202080446D8F868
:1019700000000D4600F0070088420CD2D8F80000A5
:1019800020F007002843C8F80000D8F8000000F055
:101990000700A8426FD1206841F204098107C4F210
:1019A000020917D5410705D5D9F8001041F4E061C7
:1019B000C9F80010010705D5D9F8001041F46051AD
:1019C000C9F80010D9F80010A26821F0F001114305
:1019D000C9F80010C00745D1D8F8000000F0070092
:1019E000A8420CD9D8F8000020F007002843C8F816
:1019F0000000D8F8000000F00700A8423BD12068A2
:101A0000410707D5D9F80010E26821F4E0611143DD
:101A1000C9F80010000708D5D9F80000216920F4A2
:101A2000605040EAC100C9F8000000F079F8D9F828
:101A3000001044F6A832C1F30311C0F60002515C55
:101A400040F2040220FA01F140F20C00C2F2000060
:101A50000068C2F200021160FFF73CFF002001B0F5
:101A6000BDE8F0836068022809D0012829D159F81F
:101A7000041C890307D4012001B0BDE8F08359F8A4
:101A8000041C8901F7D5D9F8001021F0030108439F
:101A9000C9F80000FFF70AFF064641F2883700BF89
:101AA000D9F80000616800F00C00B0EB810F93D012
:101AB000FFF7FCFE801BB842F2D9032001B0BDE85D
:101AC000F08359F8041C8907D5D5DCE740F20400FF
:101AD000C2F200000068704780B5FFF7F7FF41F2DF
:101AE0000401C4F20201096844F6B832C1F30221CC
:101AF000C0F60002515CC84080BD000080B5FFF711
:101B0000E5FF41F20401C4F20201096844F6B8326B
:101B1000C1F3C221C0F60002515CC84080BD000084
:101B200041F2040CC4F2020CDCF8003003F00C00AB
:101B3000082841F20020C0F27A0018BF7047C3F3B2
:101B400083420AA18A5CD90305D440F60010C0F292
:101B50003D0050437047DCF8001008A3C1F340413A
:101B6000595C5043B0FBF1F0704700BF020304051D
:101B7000060708090A0B0C0D0E0F101001020000D9
:101B80002DE9F04182B0002800F0C48004460078BE
:101B900041F20006C007C4F2020643D0706800F0AC
:101BA0000C00042817D0706800F00C00082802D13F
:101BB0007068C0030FD465682DB1B5F5A02F10D0A3
:101BC000B5F5803F11D0306820F480303060306847
:101BD00020F480200CE03068800323D5606808BBC7
:101BE00098E0306840F480203060306840F4803005
:101BF0003060FFF75BFE002D054610D03068800393
:101C000010D4FFF753FE401B6428F7D904E100BF4E
:101C1000FFF74CFE401B64284FF0030077D8306874
:101C20008003F5D42078800718D5706810F00C0F69
:101C300007D0706800F00C00082826D17068C00337
:101C400023D43068800702D52069012862D130682A
:101C5000616920F0F80040EAC10030602078000798
:101C60003DD5A06938B30020C4F242200121C0F85C
:101C70008014FFF71BFE0546706A80072DD4FFF71E
:101C800015FE401B0228F7D9C6E02069002840F263
:101C90000000C4F2422000F0968001210160FFF7AD
:101CA00005FE054630688007D1D4FFF7FFFD401BD5
:101CB0000228F7D9B0E00020C4F242200021C0F889
:101CC0008014FFF7F3FD0546706A800707D5FFF71C
:101CD000EDFD401B0228F7D99EE000F067FC20785C
:101CE00040071BD4E5698DB1706800F00C0008282E
:101CF00047D1012D0ED07068216A00F480328A42EB
:101D000008D1616A00F47010884203D1002002B04B
:101D1000BDE8F081012002B0BDE8F081F06910F06B
:101D2000805808D1F06940F08050F061F06900F00F
:101D300080500190019847F20007C4F2000738680C
:101D4000C00510D4386840F480703860FFF7AEFDED
:101D5000054600BF3868C00505D4FFF7A7FD401B46
:101D60006428F7D958E0E5681DB1052D3CD0012D58
:101D70003ED0306A20F001003062306A20F004006A
:101D800039E00027C4F2422700203866FFF78EFDB5
:101D9000022D05460CD100BF3068800154D5FFF7F5
:101DA00085FD401B02284FF00300F5D9AFE700BFC7
:101DB00030688001AAD5FFF779FD401B02284FF05B
:101DC0000300F5D9A3E700210160FFF76FFD054689
:101DD000306880077FF542AFFFF768FD401B02289F
:101DE0004FF00300F4D992E7306A40F0040030620B
:101DF000306A40F001003062FFF758FD002D0546C3
:101E000041F2883714D000BF306A800713D4FFF73F
:101E10004DFD401BB842F7D9032002B0BDE8F08168
:101E2000FFF744FD401BB8424FF003003FF66FAF91
:101E3000306A8007F4D4B8F1000F7FF453AFF06933
:101E400020F08050F0614DE7206AB0F5803F05D169
:101E50007168A26821F40031114371607168626A8F
:101E600021F4741110430843706001203866FFF7B5
:101E70001DFD0446306880013FF548AFFFF716FDB1
:101E8000001B02284FF00300F4D940E7002804BFEC
:101E90000120704710B50446406A20B1002020613F
:101EA00004F1140005E06068B0F5827F03D004F10E
:101EB0001C000021016094F8510028B9002084F82A
:101EC0005000204600F040F8022084F8510094E8C9
:101ED000071001F48271036802F4044223F0400306
:101EE0000360236911440CF40062114403F0020200
:101EF0006369114403F00102A36901EB020CE1697B
:101F000003F40072944401F03801226A8C44A16AFF
:101F100002F080024CEA020C01F4005242EA0C0288
:101F20000260042202EA13424260B1F5005F04BF7E
:101F3000A18D0161C16921F40061C161002001210D
:101F4000606584F8511010BD704700002DE9F04322
:101F500081B0044690F85000012803D1022001B05E
:101F6000BDE8F0834FF001091D4616460F4684F880
:101F70005090FFF79BFC94F85110012969D18046DD
:101F8000002F4FF0010018BF002E00F0AA800320A0
:101F900084F85100002060652763A686E686A0636A
:101FA000A087E087A168C4E91000B1F5004F08D10F
:101FB0002068016821F040010160016841F480411E
:101FC0000160A06AB0F5005F08D12068016821F4C3
:101FD00000510160016841F400510160206801680E
:101FE000490603D4016841F0400101606168731E35
:101FF000E268B1FA81F1B3FA83F349095B09B2F5FA
:10200000006F41EA030126D139B1216B0988C16013
:10201000B81C2063E08E0138E086E08E002840D0B6
:102020006E1C09E0216B31F8022BC2602163E08E47
:102030000138E086E08EA0B3206881688907F1D47A
:10204000FFF734FC002EF5D0A0EB0800A842F1D336
:1020500025E0022045E039B139780173206B013069
:102060002063E08E0138E086E08ED0B16E1C0AE07D
:10207000216B09780173206B01302063E08E0138F9
:10208000E086E08E68B1206881688907F0D4FFF7A8
:102090000DFC002EF5D0A0EB0800A842F1D30320E0
:1020A0001FE0A06AB0F5005F04D12068016841F428
:1020B0008051016020462946424600F08DFA0028F2
:1020C0001CBF20206065A06838B9002000902068FF
:1020D000C1680091806800900098606D002818BF6A
:1020E0000120002184F8519084F8501001B0BDE81F
:1020F000F08300002DE9F04782B0044690F85000CC
:10210000012801D10225F3E001201E4617468A4628
:1021100084F85000FFF7CAFB94F85110814601295A
:1021200040F08880BAF1000F4FF0010518BF002F72
:1021300000F0D880002E00F0D58094F851000428DB
:102140001CBF052084F8510000206065A763E68766
:10215000A687C4F830A0E686A16AA686B1F5005F1E
:102160002064606408D12068016821F40051016096
:10217000016841F40051016020680168490603D4F8
:10218000016841F0400101606168731EE268B1FAC4
:1021900081F1B3FA83F3DDF8288049095B09B2F5D0
:1021A000006F41EA030154D141B1216B0988C1603C
:1021B0000AF102002063E08E0138E086012608F172
:1021C000010500BFE08E18B9E08F002800F0948070
:1021D00020688168890716D5E18E012E13D191B14F
:1021E000216B31F8022BC2602163E18E0139E18657
:1021F000E18E39B9A16AB1F5005F03D1016841F4FC
:102200008051016000268168C9070AD0E18F41B181
:10221000C068A16B012621F8020BA163E08F013891
:10222000E087FFF743FB002DCCD0A0EB0900404531
:10223000C8D356E06068B0F5827F08D104294FF01A
:1022400002054FD1A06800283FF46CAF4AE0022598
:1022500048E041B19AF800100173206B013020630F
:10226000E08E0138E086012608F10105E08E10B904
:10227000E08F002840D020688168890719D5E18E59
:10228000012E16D1A9B1216B09780173206B0130A1
:102290002063E08E0138E086E08E48B9A06AB0F590
:1022A000005F05D12068016841F48051016000BFE2
:1022B000002620688168C9070BD0E18F49B1C0684A
:1022C000A16B01260870A06B0130A063E08F01387C
:1022D000E087FFF7EBFA002DC8D0A0EB09004045DE
:1022E000C4D30325012084F85100002084F8500055
:1022F000284602B0BDE8F087A06AB0F5005F10D1B3
:102300002046012101224346CDF8009000F078F9E3
:1023100028B1606D032540F002006065E2E72068A7
:10232000C06820688168C90601D400250CE0616D91
:10233000012541F002016165016821F4005101604D
:10234000016841F400510160204641464A4600F0D0
:1023500043F918B1202060650125C3E7A068002873
:10236000C0D1002001902068C1680191806801906F
:102370000198B7E780B500F0B5F980BD002804BF2B
:102380000120704710B5044690F83D0028B90020A0
:1023900084F83C00204600F01FF8022084F83D003D
:1023A0002068211D00F0D6F9012084F8460084F849
:1023B0003E0084F83F0084F8400084F8410084F82F
:1023C000420084F8430084F8440084F8450084F80F
:1023D0003D00002010BD00007047000090F83D1047
:1023E00001291CBF01207047022180F83D100068C0
:1023F00040F6FF32C168C4F20002904241F0010190
:10240000C1600FDCB0F1804F1ED040F20041C4F239
:102410000001884218D040F60001C4F20001884251
:1024200012D018E040F60041C4F2000188420BD0FF
:1024300043F20041C4F20101884205D042F6004156
:10244000C4F20101884206D1816801F00701062922
:1024500004BF00207047016841F0010101600020C5
:102460007047000070470000002804BF012070473B
:1024700010B5044690F8390028B9002084F83800D7
:10248000204600F021F8242084F839002068C16833
:1024900021F40051C160204600F028FA206801694B
:1024A00021F490410161416921F02A014161C16833
:1024B00041F40051C16000202021E06384F839100C
:1024C00084F83A1010BD00007047000070B582B06B
:1024D000054690F83A0020280DD113460A460029F7
:1024E0004FF0010418BF002B06D095F838000128E2
:1024F00005D1022400E00224204602B070BD012074
:1025000085F8380000242220AA62AB85EC6385F8A8
:102510003A002968686B42F6790C42F6B10E42F631
:102520002D06C0F6000CC0F6000EC0F60006043101
:10253000C0E90ACEC0E90C64FEF7A0FF0194286848
:102540000168019141680191019985F83840C1689D
:1025500041F48071C160416941F00101416141690B
:1025600041F040014161C7E770470000704700003B
:10257000FEE70000FEE700007047000000F00700E3
:1025800080F00703042B28BF04234FF0FF3C0338DF
:102590000CFA03F338BF0020994381400CFA00F095
:1025A00022EA0000084370477047000081B040F203
:1025B0000400C2F20000006844F6D351C1F2620187
:1025C000A0FB0101480A009000BF0098411E0028AE
:1025D0000091F9D101B07047B0B582B00B460092BE
:1025E000802100220446002500F00AF820B1606D29
:1025F000032540F020006065284602B0B0BD000011
:102600002DE9F04782B00A9C984615460E46814651
:10261000FFF74CF9201A00EB0804FFF747F940F2E6
:102620000401C2F200010968C1F3CB316143019199
:10263000D9F8001089683140891BB1FA81F1490944
:10264000A94203D1002002B0BDE8F087824608F11C
:10265000010709E0D9F8000080683040801BB0FA1B
:1026600080F04009A842EDD0002FF3D0FFF71EF90B
:10267000A0EB0A00A04207D201980199002808BFE8
:102680000446481E0190E5E7D9E900014268B1F52A
:10269000827F22F0E00242600BD1D9F80810B1F538
:1026A000004F02D0B1F5806F03D1016821F04001E5
:1026B0000160D9F82810B1F5005F07D1016821F455
:1026C00000510160016841F400510160012089F866
:1026D0005100002089F85000032002B0BDE8F087C7
:1026E00070470000B0B501380024B4EB106F1CBF78
:1026F0000120B0BD4EF21005CEF2000568604FF02B
:10270000FF300F2100F092F90720AC6028602046CE
:10271000B0BD000080B5FFF7CFF880BD7047000066
:1027200040F26020C2F2000000680169C90708BFDA
:1027300070476FF00101016140F21020C2F2000009
:10274000D0E900124FF27C73C91842F10002C0E9CF
:102750000012704710B540F6FF3E0368C4F2000E49
:1027600043F2004C7045C4F2010C20DCB0F1804F04
:102770002BD040F20042C4F20002904225D040F635
:102780000002C4F2000290421FD0704523DCB0F179
:10279000804F2ED040F20042C4F20002904228D076
:1027A00040F60002C4F20002904222D025E040F63A
:1027B0000042C4F20002904207D0604505D042F6C4
:1027C0000042C4F201029042DFD14A6823F0700354
:1027D00013437045DBDD40F60042C4F20002904234
:1027E00007D0604505D042F60042C4F20102904293
:1027F00003D1CA6823F44073134323F080024B696A
:10280000D1F800E08C681A4360450260C462C0F8E9
:1028100028E005D042F60042C4F20102904201D104
:10282000096901630121416110BD000010B5446ACE
:102830002068406994F83910212907D110F08000F0
:1028400004D00020E084204600F046F8206840696B
:1028500094F83A10222907D110F0400004D000204B
:10286000E085204600F02AF8E06B40F01000E063BD
:102870002046FFF7F7FD10BD80B50168406A096882
:10288000890611D40021C1850168CA6822F48072CA
:10289000CA604A6922F001024A614A6922F0400294
:1028A0004A61202180F83A10FFF75EFE80BD0000EB
:1028B00080B5406AFFF75AFE80BD00000168CA6813
:1028C00022F49072CA604A6922F001024A61202112
:1028D00080F83A10704700000168CA6822F0C00210
:1028E000CA60202180F839107047000010B50446F6
:1028F0000068D4E902C22369016921F440511143FF
:102900000161616943EA0C021143C26841F20C6340
:102910009A431143C1604169A26921F44071114396
:1029200043F60002C4F201029042416102D0FFF777
:10293000D3F801E0FFF7E2F86268192148439100FB
:10294000B0FBF1F048F21F51C5F2EB11A0FB0123DF
:102950005A096FF0630302FB0300322303EB0010FC
:10296000A0FB0101F02303EA5113206803EB0212DC
:10297000C1F343111144816010BD000010B582B055
:1029800040F2A824C2F2000420680168C90614D4E9
:10299000016809071DD4016849075CBF01685FEA47
:1029A000817124D56FF0040101606FF002010160B4
:1029B0006FF00101016002B010BD01F0A7F9002025
:1029C000019020680168019140680190019802B06F
:1029D00010BD6FF0080101600021009101680091B5
:1029E00040680090009801F021FA02B010BD016823
:1029F000C907E0D0D6E70000FEE70000002848BF86
:102A0000704700F01F01012202FA01F14EF200129C
:102A10004009CEF2000242F8201070474EF60C50EA
:102A2000CEF200000068C0F3022070474EF6145347
:102A300000F00F02CEF2000309011A4400F16043D6
:102A4000B0F1FF3FC8BF03F564421170704700004A
:102A50004EF60C51CEF200010A684FF6FF031A4001
:102A600060F30A2242F0806040F0FD700860704719
:102A70004EF60C50BFF34F8FCEF2000001680422D7
:102A800001F4E061C0F2FA5211430160BFF34F8FCD
:102A900000BFFDE77047000010B50446406944F2EE
:102AA0002131C1F23421884205D0204600F0FCFEDD
:102AB0006169884202D1E06800F03AF8012010BD57
:102AC00010B540F28034C2F2000494F89801400737
:102AD00009D404F19000FFF7DFFFD4F8980140F02B
:102AE0000400C4F89801012010BD000010B540F2A8
:102AF0008034C2F2000494F85801400709D404F16C
:102B00005000FFF7C9FFD4F8580140F00400C4F8A2
:102B10005801012010BD000080B54FF20000C1F641
:102B2000FF704168006880F308888847012080BDF5
:102B3000B0B5016840F2C804C2F200042160216807
:102B4000B1F1005F18D921680022C2F2010291425E
:102B500012D8406840F2CC01C2F200010860086857
:102B600040F2C405C2F200052860FEF7BFFC2068F1
:102B700080F30888286880470120B0BD2DE9F04F18
:102B800083B0044600284FF0010000F09B800D4602
:102B9000002900F09780284600F086FE6A6990427E
:102BA00040F08080204600F07FFE6969884275D041
:102BB000D5F810A0E368E96844F69740C0F6000035
:102BC0009B461A4653460291FDF752FBBAF1010F9C
:102BD0005CDB40F290564FF00009C2F2000601950E
:102BE000287ABAF5807F574628BF4FF48077C00710
:102BF00006D1029831463A4600F036FA05E000BFA9
:102C0000029831463A4600F011FB0546207AC0078B
:102C100006D1584631463A4600F040FA05E000BF7A
:102C2000584631463A4600F03DFB45EA090141EA83
:102C300000095FEA09603DD1019D0298B046264631
:102C40002C693844AAEB070A0290A4EB0A00BB44A3
:102C500001F05CFE074620463446464601F056FE2B
:102C60000146384601F090FD0021C4F2C82101F070
:102C700061FE01F05DFD024644F68640C0F60000AC
:102C80000B46FDF7F5FABAF1000FA9DC28692061BF
:102C9000204600F009FE696988420FD1002003B088
:102CA000BDE8F08F014609A0FDF7E2FA032003B06A
:102CB000BDE8F08F042003B0BDE8F08F0CA0FDF755
:102CC000F9FC052003B0BDE8F08F00BF536F7572AB
:102CD0006365204352433A25303858204352433AE3
:102CE00025303858206572726F722E0D0A00000070
:102CF000B9CCBCFEBFBDB1B4BAF3A3ACD0A3D1E98B
:102D0000C4BFB1EAC7F8D3F2D0C2B9CCBCFE4352BB
:102D100043CAA7B0DC2E0D0010B512A0FDF7CAFC07
:102D200040F28034C2F2000404F1500004F5A871AE
:102D300000F0CCF810B1012411A00FE004F19000D4
:102D400004F5C87100F0C2F80146002818BF01213F
:102D50001AA04FEA410412A208BF1046FDF7AAFCD0
:102D6000204610BD55706461746520416C6C20462E
:102D70006F726365205374617274200D000000004F
:102D8000466F7263652055706461746520426F6F91
:102D9000746C6F61646572204661696C200D00007F
:102DA00055706461746520416C6C20466F72636578
:102DB0002053756363657373200D0000466F726363
:102DC00065205570646174652041505020466169EA
:102DD0006C200D00B0B540F28035C2F20005D5F888
:102DE0005801410702D401242046B0BD20F0040060
:102DF000C5F8580125A005F5A874FDF75BFC05F1A1
:102E000050002146FFF7BAFE10B1012425A137E09A
:102E1000D5E95E32E86DD5F85011EA67D5F874212E
:102E2000AB67D5F870316A67D5F854212965D5F8B4
:102E30005C112B67D5F858316A65D5F86021E965D2
:102E4000D5F86811AB65D5F864312A66D5F86C21E0
:102E5000A966D5F88C116B66EA66D5F88821C5F8A5
:102E60008C10A96DD5F88431C5F88820D5F880215B
:102E700021F00101C5E92023C5E9161000240BA1AA
:102E80000CA0FDF7F5F92046B0BD00BF0A0D426F5A
:102E90006F746C6F6164657220B8FCD0C2D6D02E9E
:102EA0000D0000006661696C0000000073756363CB
:102EB00065737300426F6F746C6F61646572207527
:102EC00070646174652025732E0D0A002DE9F04FA2
:102ED00083B0029000284FF0010000F085800D467D
:102EE000002900F081800298D5F80C90D5F810A048
:102EF000D0F80CB044F69740C0F6000049465A4658
:102F00005346FDF7B5F9BAF1010F59DB40F2905481
:102F10004FF00008C2F20004019500BF287ABAF50C
:102F2000807F574628BF4FF48077C00706D14846B8
:102F300021463A4600F098F805E000BF4846214691
:102F40003A4600F073F905460298007AC00705D1A9
:102F5000584621463A4600F0A1F804E0584621467A
:102F60003A4600F09FF945EA080141EA00085FEAA5
:102F7000086031D1019D26462C69AAEB070AA4EB13
:102F80000A00B944BB4401F0C1FC07462046344660
:102F900001F0BCFC0146384601F0F6FB0021C4F20A
:102FA000C82101F0C7FC01F0C3FB024644F686408D
:102FB000C0F600000B46FDF75BF9BAF1000FADDC7F
:102FC00029690298016100F06FFC6969884207D1A4
:102FD000002003B0BDE8F08F042003B0BDE8F08FFF
:102FE00003A0FDF767FB052003B0BDE8F08F00BF2D
:102FF000B9CCBCFEBFBDB1B4BAF3A3ACD0A3D1E988
:10300000C4BFB1EAC7F8D3F2D0C2B9CCBCFE4352B8
:1030100043CAA7B0DC2E0D0070B540F28036C2F274
:1030200000064FF4007048F20004706006F11001D1
:1030300000204FF40072C0F60004002500F0AAFC46
:10304000B060204631464FF40472FDF749FB48B1A9
:1030500040F28031C2F2000120464FF4047200F0C9
:103060001DF80546284670BD80B5012A03460CDBD5
:10307000012002EB030CC0F60800844505D2084687
:103080001946FDF759FB002080BD44F6C030C0F65C
:1030900000001946FDF7ECF8012080BD2DE9F04F46
:1030A00085B01546012A044657DB0E460121281932
:1030B000C0F60801884250D242F20C0BC4F2020B57
:1030C000FEF7E2FA34274FF000084FF00109EA4614
:1030D000CBF8007007E000BF0236023D04F10204A5
:1030E000CBF8007046DD60050CD020883288904215
:1030F000F2D0012021460023FEF76CFA0028EBD025
:103100003AE000BF01A85146CDF80480CDE903495B
:10311000FEF7FCF90028E8D04FF00808A8F10108F4
:103120005FEA08690ED001A85146CBF80070FEF79F
:10313000EDF90028F2D1B9F1000F4FF000084FF07F
:103140000109D2D144F64D400225C0F600002146C7
:10315000FDF78EF8FEF734FA08E044F60640C0F6B4
:10316000000021462A46FDF783F80125284605B0D0
:10317000BDE8F08F0025EDE7042501A0E7E700BFDB
:1031800063466C61736857726974654461746173F6
:103190002048414C5F464C4153485F50726F677204
:1031A000616D20616464723A20307825303858208F
:1031B0006572726F72210D0A00000000B0B582B016
:1031C000010C8DF80510010A8DF806108DF8070026
:1031D00000F0EAF808B1012425E000F003FC00F05B
:1031E000E3F808B102241EE040F60045C4F20105F0
:1031F00028464FF480510022FEF752FB40F208347B
:10320000C2F200042046202100F038FB0DF1050138
:103210002046032200F0CEF8044628464FF48051A1
:103220000122FEF73DFB204602B0B0BD2DE9F04182
:1032300082B00D46010C8DF80510010A14468DF878
:1032400006108DF8070000F0AFF808B1012425E062
:1032500040F60048C4F2010840464FF48051002275
:10326000FEF71EFB40F20837C2F200073846032182
:1032700000F004FB0DF105013846032200F09AF836
:10328000064638462946224600F078F840EA060409
:1032900040464FF480510122FEF702FB204602B067
:1032A000BDE8F081F0B581B0012A1ADB14460D4665
:1032B000064600BF300503D13046FFF77FFFB0B9A7
:1032C000F0B2C0F58077BC4298BF27463046294609
:1032D0003A4600F00FF838B9E41B3E44002C3D4458
:1032E000E8DC002001B0F0BD022001B0F0BD0120FB
:1032F00001B0F0BD2DE9F04182B00D46010C8DF812
:103300000510010A14468DF806108DF8070000F02C
:103310004BF808B101242CE000F064FB00F044F805
:1033200008B1022425E040F60048C4F201084046F6
:103330004FF480510022FEF7B3FA40F20837C2F290
:1033400000073846022100F099FA0DF105013846D0
:10335000032200F02FF8064638462946224600F0A0
:1033600029F840EA060440464FF480510122FEF756
:1033700097FA204602B0BDE8F081000089B1012A29
:103380000FDB80B582B04FF0FF3C93B20A46CDF818
:1033900000C0FEF7AFFE002818BF0120400002B0B9
:1033A00080BD01207047000080B500F02DFA00F0CC
:1033B000010080BD61B1012A0ADB80B592B24FF0F5
:1033C000FF33FEF7C3FD002818BF0120400080BD79
:1033D0000120704780B582B041F21C00C4F20200A7
:1033E000016840F2040341F0020101600068C2F28A
:1033F000000300F00200019001981B6840F21820C1
:103400004FF0FF31C2F2000040F2004C002201EB0D
:10341000D321C4F2000CC0E902218021C0E900C21E
:1034200002618161FEF7AAFF002002B080BD0000AA
:1034300010B582B041F21C00C4F20200016840F2F3
:10344000602441F01001016000684DF6836100F0D6
:1034500010000190019840F20400C2F200000068E0
:10346000C4F21B31A0FB010141F20000C2F20004D2
:10347000C4F200004FF0FF3202EB914100224FF600
:10348000FF7384E80F008020A06120462261FEF7D0
:1034900075FF2046FEF7A2FF362001210022FEF72D
:1034A00047FA3620FEF740FA002002B010BD0000B7
:1034B000002804BF02207047012BBCBF03207047C7
:1034C000DDF800C0013380F818C002EB030C80E87F
:1034D0000610C0E90322436100207047B0B582B0F6
:1034E00040F2D00040F290620125C2F2000011A12A
:1034F000C2F200024FF400730095FFF7D9FF0446B3
:1035000040F2EC0040F69402C2F200000CA1C2F2BC
:1035100000024FF400730095FFF7CAFF044302D086
:103520000AA0FDF7C7F8002C18BF0124204602B0FE
:10353000B0BD00BF556172742030205265616400D7
:10354000556172742031205265616400656E756D3D
:103550005175657565496E6974206572726F722E5A
:103560000D000000F0B581B088B10446406870B12C
:10357000204617460E4600F037F88446B84209DA6E
:10358000207E01284FF0040005D101B0F0BD0220DB
:1035900001B0F0BD0020012F0FDB7A1C236916F863
:1035A000011B5D1C25611970A1682369013A8B42DA
:1035B00028BF6368012A2361F0DCBC45E5DA216994
:1035C000A2680131E160914228BF6168E16001B009
:1035D000F0BD000043F60001C4F201010A68520682
:1035E000FCD5C2B24A60704768B1416859B1D0E9B0
:1035F0000312914282BFD043084470474069D243CE
:1036000011440844704700207047000010B540F294
:10361000102E41F2240CC2F2000EC4F2000C00BFC6
:10362000DEE90031DCF80020DEE900044C405840BF
:103630002043F5D1981841F1000110BD82B000F08F
:1036400047FAFFF753FA41F21800C4F2020001688A
:1036500041F001010160006800F001000190019853
:103660000320FEF775F900F0EFFAFFF7E1FE00F036
:10367000DDFB0DA0FDF71EF800F082F801460EA05C
:10368000FCF7F6FD00F03EF8014612A0FCF7F0FD55
:1036900000F00AFB16A400BF2046FDF70BF801203E
:1036A000002100F0C3F9F7E7426F6F742053746193
:1036B0007274200D00000000426F6F7420736F66FB
:1036C00074776172652076657273696F6E3A202532
:1036D000730D0A00426F6F7420736F6674776172A6
:1036E0006520646174653A2025730D0A00000000AE
:1036F000426F6F7420557064617465204572726FFB
:1037000072200D0010B540F64000C0F60000D0F861
:1037100000C040F64400C0F60000D0F800E040F6DB
:103720004800C0F60000036840F64C00C0F60000F8
:10373000016840F65000C0F60000026840F65400F0
:10374000C0F60000046840F26030C2F20000C0E938
:10375000023140F65801C0E90424C0E900CEC0F6A9
:103760000001096840F65E02816140F65C01C0F626
:103770000001C0F60002127809888277818310BDAB
:1037800010B540F62000C0F60000D0F800C040F6AA
:103790002400C0F60000D0F800E040F62800C0F693
:1037A0000000036840F62C00C0F60000016840F6F7
:1037B0003000C0F60000026840F63400C0F6000099
:1037C000046840F26030C2F20000C0E9023140F605
:1037D0003801C0E90424C0E900CEC0F60001096840
:1037E00040F63E02816140F63C01C0F60001C0F6A1
:1037F0000002127809888277818310BD40F2803000
:10380000C2F2000070470000F0B581B040F6982089
:10381000C2F200000088FF2568B34FF6FF718842AE
:1038200029D040F60044C4F2010420464FF48051F0
:103830000022FEF735F840F20836C2F200063046A4
:10384000052100F01BF84BF2E017CFF6FF7700BF21
:103850003046FF2100F012F80546C00705D00A20C7
:10386000002100F0EDF80137F2D320464FF48051EB
:103870000122FEF715F8284601B0F0BD80B582B0F0
:103880008DF8071000218DF806104FF0FF3C0DF168
:1038900007010DF106020123CDF800C0FEF72AFC56
:1038A0009DF8060002B080BD2DE9F04782B0824647
:1038B0004FF6FF70BAF1000FADF8060008D0DAF845
:1038C0001060B6F5801F07D9022002B0BDE8F0876E
:1038D000012002B0BDE8F0875EB3DAF80C5040F288
:1038E00090590024C2F200090DF106089AF8080068
:1038F000B6F5807F374628BF4FF48077C00705D1E3
:10390000284649463A46FFF7AFFB04E028464946B9
:103910003A46FFF78BFC044320060AD1404649464D
:103920003A4600F037F8F61B002E3D44ADF806008D
:10393000DCDCBDF8060002B0BDE8F08770B582B0EF
:1039400040F600449020C4F20104019020464FF458
:1039500080510022FDF7A4FF40F20835C2F20005B5
:1039600001A928460422FFF725FD2846FF21FFF77D
:1039700085FF06462846FF21FFF780FF40EA06251F
:1039800020464FF480510122FDF78AFF284602B0FD
:1039900070BD0000B0B54FF0000301B3012A1EDB7B
:1039A000002814BF03884FF6FF73012A17DB4AF281
:1039B000010E00BF08789446013A4340002000BF42
:1039C0008EEA5304DD0708BF5C082346072800F190
:1039D0000100F5D3BCF1020F01F10101EADA98B25E
:1039E000B0BD000010B540F60044C4F2010420460A
:1039F0004FF480510022FDF753FF40F20830C2F22D
:103A000000000621FFF73AFF20464FF480510122C3
:103A1000FDF746FF10BD000080B54FF47A72A0FBA1
:103A2000020301FB023100F00BF880BD80B54FF4BA
:103A30007A72A0FB020301FB0231FFF7EDFF80BDAC
:103A4000B0B50C460546FFF7E1FD2D184C4100BF0F
:103A5000FFF7DCFD401B71EB0400F9DBB0BD00009B
:103A600040F28030C2F200004FF00061C161816914
:103A7000826D21F00101D0F8983081614AF2000195
:103A8000D0F818C1C0F6000122F00102C0E91621E9
:103A900001F5803123F00102C0E9262100214CF01C
:103AA0000102C0E94621D0F858214FF4C041C0F8C6
:103AB0005C1142F00101D0F89821C0F858114FF480
:103AC000B031C0F89C1142F00101C0F89811704764
:103AD000B0B540F28034C2F2000448F20000C0F6F3
:103AE000000021464FF40472FFF7BEFAA56844F2C5
:103AF0002130C1F23420854208BFB0BD6268002089
:103B0000B0EB922F09D104F110010020FFF742FF22
:103B1000854218BFFFF7A4FFB0BDFFF7A1FFB0BDFE
:103B20002DE9F04385B0002641F21800CDE9036687
:103B3000CDE90166C4F20200016840F6004441F09C
:103B4000080101600168C4F2010401F0080100915C
:103B50000099416801AD41F48041416040684FF0F7
:103B6000010800F48040009000984FF480500190CC
:103B7000032720462946CDF808800497FDF79CFDD1
:103B800020464FF480510122FDF78AFE4FF4204079
:103B900001904FF0020920462946CDF8089004977D
:103BA000FDF78AFD4FF48040CDE901062046294605
:103BB0000396FDF781FD40F20830A4F55441C2F2AE
:103BC00000004FF482724FF40073182780E846001B
:103BD0000A21C0E90369C0E90583C761C0E9086635
:103BE000C0E90A61FEF752F905B0BDE8F0830000B4
:103BF000F0B581B040F60044C4F20104FFF790FF35
:103C000020464FF480510022FDF74AFE40F69826E8
:103C10000825C2F200064FF6FF7705E00A200021D2
:103C2000FFF7FAFE013D07D0FFF788FE81B2B942E7
:103C30003080F3D00029F1D020464FF4805101228A
:103C4000FDF72EFE01B0F0BD70B590B006AC204679
:103C50002821FCF715FE0120002506904FF4803046
:103C60000226CDE90705CDE90D604FF4E0100F9075
:103C700020460595CDE90355CDE90155FDF780FFB7
:103C800008B100BFFEE70F20CDE901064FF48060C8
:103C9000CDE9040501A802210395FDF75DFE00B101
:103CA000FEE710B070BD0000FFF7A8FD00F020F99E
:103CB000FFF790F8B0B1FEF703FFFFF72DF888B1DA
:103CC00000260AA40BA500BF20463146FCF7D0FA17
:103CD000082E06F10106F7D32846FCF7EBFCFEF7A9
:103CE0001BFFF1E7FFF798F9FEF7C2FE25640D0A06
:103CF00000000000CCF8D7AAB5BD20B3A7C9CC42BC
:103D00006F6F746C6F616465722E0D002DE9F04366
:103D100081B040F28819C2F2000940F6A025D9F816
:103D20000010C2F2000528684968C1F1800188428C
:103D300002D101B0BDE8F08340F2081740F2EC0474
:103D4000C2F20007C2F200044FF000080FE000BF0B
:103D500028683918321A2046FFF704FCD9F8000009
:103D60002E604068C0F180018E423046E1D00E46A0
:103D70008142EDD23918C0F180022046FFF7F2FBF4
:103D8000C5F80080E4E700002DE9F04182B041F27F
:103D90001405C4F20205286840F2CC1440F001007A
:103DA00028602868C2F2000400F001000190019828
:103DB000A5F57D60102100264FF0800884E84301BE
:103DC0002046C4E90466C4E90666FDF70FFB40F22D
:103DD000A827C2F200073C63676240F28814A5F688
:103DE000BC70C2F2000420214FF40052C4E9000666
:103DF0002046C4E90268C4E90466C4E90612FDF776
:103E0000F5FA0E20082100227C636762FDF790FD21
:103E10000E20FDF789FD0F2006210022FDF788FD09
:103E20000F20FDF781FD02B0BDE8F08170B584B0D0
:103E300041F21800C4F202000168002641F00401BA
:103E40000160016840F6000401F00401009100994E
:103E50000168C4F2010441F48041016000686D46CC
:103E600000F48040009000984FF40070029600909B
:103E7000022001900320039020462946FDF71CFCF8
:103E80004FF48060CDE9000620462946FDF714FC7A
:103E900004F5405040F2A824C2F200044FF4E1318E
:103EA0000C2284E843002046C4E90366C4E90526E1
:103EB000E661FEF7D9FAFFF767FF25200821002207
:103EC000FDF736FD2520FDF72FFD20688022C16813
:103ED00041F01001C160416941F00101416140F2CE
:103EE0000811C2F200012046FEF7F0FA04B070BDDE
:103EF00080B5FFF7F3FAFFF76DFAFFF799FAFFF7CE
:103F000077FE80BD5FEA400C08BF91F0000F4FEADA
:103F10008C234FEAC12243EA51514FEA1C5018BF8B
:103F200000F5F0404FEA300018BF41F000415FEA71
:103F30006C5C00F02980BCF1FF3F08BF40F080407E
:103F40007047130C06BF12044FF0100C4FF0000C1A
:103F5000130E04BF12020CF1080C130F04BF120160
:103F60000CF1040C930F04BF92000CF1020CD30F60
:103F700004BF52000CF1010C11464FF00002A0F1F9
:103F80001F00A0EB0C00704711F0004F08BF7047F6
:103F900031F000413FF4D5AF0B0C06BF09044FF0E0
:103FA000100C4FF0000C0B0E04BF09020CF1080CB2
:103FB0000B0F04BF09010CF1040C8B0F04BF890027
:103FC0000CF1020CCB0F04BF49000CF1010CCCF139
:103FD000200322FA03F341EA030102FA0CF2A0EBF8
:103FE0000C0000F10100704723F07F4720F07F4C68
:103FF00080EA030000F00040ACEB070303F57C53BC
:1040000003F1FF032DE9804909B44FEA144324EA80
:1040100003484FEA154B25EA0B4E0FF2042606EB38
:1040200013273E7803FB0667C7F5000707FB06F674
:104030004FEAD64606F102064FEA543707FB066CF4
:10404000CCF1005C4FEA1C472CEA074C0CFB06F550
:1040500007FB06F404EB15464FEA961649085FEA9B
:10406000320234BF00204FF000404FEAD13706FB48
:1040700007FC4FEA1C4C0CFB0BF7D21B03FB0CF7A5
:1040800061EB07010CFB0EF7B0EB074072EB174238
:104090000CFB08F734BFA2EB0742B2EB074261EB1F
:1040A00017414FEA0C444FEA910706FB07FC4FEA21
:1040B0001C4C0CFB0BF7B0EBC74072EB573203FB09
:1040C0000CF734BFA2EBC742B2EBC74261EB5731EA
:1040D0000CFB0EF7B0EBC70072EB57720CFB08F746
:1040E00034BFA2EBC702B2EBC70261EB57714FEAD4
:1040F000816141EA92114FEA826242EA90124FEAEC
:10410000806004EBCC04039F4FEAD13706FB07FC29
:104110004FEA1C4C0CFB0BF7D21B03FB0CF761EBBB
:1041200007010CFB0EF7B0EB074072EB17420CFBDC
:1041300008F734BFA2EB0742B2EB074261EB17412D
:104140004FEA8C5504EB9C244FEA910706FB07FCD1
:104150004FEA1C4C0CFB0BF7B0EBC74072EB57322D
:1041600003FB0CF734BFA2EBC742B2EBC74261EBD3
:1041700057310CFB0EF7B0EBC70072EB57720CFB1C
:1041800008F734BFA2EBC702B2EBC70261EB57716D
:104190004FEA816141EA92114FEA826242EA90124B
:1041A0004FEA806015EB4C2544F100044FEAD1370B
:1041B00006FB07FC4FEA1C4C0CFB0BF7D21B03FB66
:1041C0000CF761EB07010CFB0EF7B0EB074072EB4D
:1041D00017420CFB08F734BFA2EB0742B2EB0742D1
:1041E00061EB17414FEA813141EA92414FEA823255
:1041F00042EA90424FEA80304FEA0C7615EB1C15EC
:1042000044F1000448EA03434EEA0B484FF0000E25
:10421000B2EB080C71EB030724BF624639464EEB44
:104220000E0E4FF0000B0018524149414BEB0B0BA7
:10423000B2EB080C71EB03077BF1000B24BF624665
:1042400039464EEB0E0E4FF0000B0018524149411B
:104250004BEB0B0BB2EB080C71EB03077BF1000B84
:1042600024BF624639464EEB0E0E51EA020718BFD4
:1042700046F0010616EB0E7655F1000254F10001EE
:1042800003D5BDE88901BDE80088BDE88901BDE826
:104290000048B619524141EB0101A3F101037047F7
:1042A00080807F7E7D7C7B7A797877767675747373
:1042B000727171706F6E6E6D6C6C6B6A6A69686832
:1042C000676666656464636362616160605F5F5EC8
:1042D0005E5D5D5C5C5B5B5A5A595958585757563E
:1042E00056555555545453535252525151505050A3
:1042F0004F4F4F4E4E4D4D4D4C4C4C4B4B4B4A4AF5
:104300004A49494948484847474747464646454538
:104310004544444444434343434242424241414171
:104320009C46002B30D477002BD04FEA37071CB5C2
:1043300003B44FF010004FF01001BAF1000F06D097
:10434000BCF1000FDCBF40F0080040F008014FF066
:1043500000000FBCBDE810400BF1010BBBF1010FD9
:1043600008BF5FEA170722BF12F1010211F1010134
:104370004FF0004143F1000300F0004043EA000029
:104380007047F9D35708D0E746EA06464FEA164683
:1043900013F1400F1FDD13F1200FDFBF16430A4654
:1043A000002120335B42BED0C3F1200746EA064617
:1043B0004FEA164602FA07F746EA070622FA03F220
:1043C000C3F1200701FA07F742EA070221FA03F1D5
:1043D0004FF00003A7E746EA020646EA06464FEA20
:1043E000164646EA0106BCBF46EA0646360C4FF0C2
:1043F00000034FF000024FF0000194E72DE9804CDC
:1044000070B49A46934691E8380007C831EA400CE8
:1044100048BF34EA430C03D5FFF7E6FDFFF780FF02
:10442000F0BCBDE8008C2DE9804C70B49A469346F0
:1044300091E8380007C810F0804F08BF13F0804F94
:1044400003D100F005F8FFF76BFFF0BCBDE8008C6E
:1044500020F07F4723F07F4C80EA030000F000400B
:1044600007EB0C03A3F57C53A3F1FE0392F0000FBE
:1044700000F0B38095F0000F00F077802DE901493E
:104480004FEA114021EA00484FEA144624EA064761
:1044900000FB06FC08FB06F607FB08F818EB0648CD
:1044A0004CEB164C00FB07F718EB07484CEB17409A
:1044B0004FEA124B22EA0B4E4FEA154625EA064711
:1044C0000BFB06FC0EFB06F607FB0EFE1EEB064E74
:1044D0004CEB164C0BFB07F71EEB074E4CEB174B48
:1044E00018EB0B0840F1000018EB0E0B58EB00081E
:1044F00040F100008F1A4FF000014FF000063CBF62
:10450000C943661B14BFB5EB040C00213CBFC94373
:10451000F61B4FEA174427EA04454FEA1C472CEAEA
:10452000074C04FB076205FB07F70CFB05F616EBCF
:10453000074642EB174204FB0CFC16EB0C4642EB21
:104540001C421BEB060658EB020241414EEA8E0E5E
:1045500046EA9E0601D5BDE80189B619524141EBF4
:104560000101A3F10103BDE801894FEA144524EAE2
:1045700005464FEA114721EA074C05FB07F406FB05
:1045800007F70CFB06F111EB074144EB174405FB61
:104590000CFC11EB0C4144EB1C444FEA124722EA9D
:1045A000074C05FB07F206FB07F70CFB06F616EBBC
:1045B000074642EB174205FB0CFC16EB0C4642EBA0
:1045C0001C456A1854F1000148BF7047B6195241A2
:1045D00041EB0101A3F10103704795F0000F37D0C3
:1045E0004FEA114221EA02464FEA144724EA074CF7
:1045F00002FB07F106FB07F70CFB06F414EB07447C
:1046000041EB174102FB0CFC14EB0C4441EB1C4149
:104610004FEA154725EA074C02FB07F506FB07F7AB
:104620000CFB06F616EB074645EB174502FB0CFCA8
:1046300016EB0C4645EB1C42121951F1000148BF24
:104640007047B619524141EB0101A3F101037047D4
:104650004FEA144524EA05464FEA114721EA074C80
:1046600005FB07F106FB07F70CFB06F212EB07420E
:1046700041EB174105FB0CFC12EB0C4251EB1C41CA
:104680004FF0000648BF7047921841EB0101A3F1BB
:1046900001037047490050EAC12018BF04204A0DA9
:1046A00018BF40F0010040F2FF72B2EB515F08BF4B
:1046B00040F00200012808BF0520704730380A2862
:1046C00001D20120704700207047000010B500297A
:1046D0000AD00878002807D005487844FCF72AFD5E
:1046E000002801D0002010BD0248784410BD000011
:1046F0001E0600001606000010B500290AD0087832
:10470000002807D005487844FCF714FD002801D0A4
:10471000002010BD0248784410BD00000E060000C5
:10472000060600000808A0F500114FEA31017047A5
:1047300043004FEAD30C4FEA3C0C43401FBF4007F5
:104740000CF1605113F0FE4F70471CF0006F03D165
:104750000CF00041002070470CF0004343EA507019
:1047600040EACC0010B500F066F900BF00000092EE
:104770004FEA0001FFF7D6BF4FF00041A1F500213D
:104780004FF00000704700004FF47F0C1CEAD0127D
:104790001EBF1CEAD11392EA0C0F93EA0C0F00F033
:1047A000858090EA010F48BF42F4807240F4000C0B
:1047B00041F400002CF07F4120F07F4000B5A2EBD7
:1047C000030281420FF2081CACEB504E9EF800E051
:1047D000C0F100004FEA4E0E00FB0EFC38BF49004E
:1047E0004FEA2C1C0CFB0EF34FEACE1E0EEB635E61
:1047F0004FEA112C0EFB0CFC4FEAC1214FEA1C536F
:1048000000FB031102F5FA024FEA112C0EFB0CFC1F
:104810004FEA01314FEADC4C00FB0C1142EB224223
:10482000C14228BF09184CEB03335DF804EB10EBD1
:10483000410143EBC250B2F57C0F38BF704729D518
:1048400012F0F00F1CBF00F1C04000F000407047B4
:10485000008182838485868788898B8C8D8E8F9159
:104860009293959697999A9C9D9FA0A2A3A5A7A87D
:10487000AAACAEB0B2B3B5B7B9BCBEC0C2C5C7C9A9
:10488000CCCED1D4D7D9DCDFE2E6E9ECF0F3F7FA0D
:10489000FE0000004FEA400C0CF1807CBCF17E4F22
:1048A00028BF7047B0F1C04000F00BB90CEAD1133B
:1048B00090EA010F48BF42F48072624538BF6345F9
:1048C00007D213F47F0F16D080EA010000F00040F9
:1048D000704710B500F0AFF8097EFC3E00F005B857
:1048E00080EA010000F00040704780EA010000F01B
:1048F000004000F0E6B812F47F0F04BF0248704792
:1049000080EA010000F0DDB80000C07FB0FA80F35B
:1049100010FA03F2C3F19D030AD0D90501EB12206E
:10492000530638BF704700F1010008BF20F00100B6
:10493000704700004FF47F0C1CEAD0121EBF1CEA27
:10494000D11392EA0C0F93EA0C0F00F0478090EA23
:10495000010F48BF42F480724FF0004C4CEA002037
:104960004CEA012102EB0302A0FB0113A2F50002B5
:10497000002918BF43F001035B0028BF4FEA33034F
:1049800042EB22425FEA132C4CEBC2502EBFBCEB31
:10499000436FB2F57C0F70474FEA036CBCF1004FD8
:1049A00008BF20F00100B2F57C0F38BF70470BD56F
:1049B00082F0FF0212F5803FC8BF704700F1C0408F
:1049C000D8BF00F00040704700F5000C5FEA4C0CC7
:1049D00048BF7047B0F1C04000F073B80CEAD11383
:1049E00090EA010F48BF42F48072624538BF6345C8
:1049F00004D280EA010000F00040704710B500F0DA
:104A00001AF800BF8900013E00F007B800F009B8AD
:104A10005FEA410C5FEA1C6C08D080EA010000F0FC
:104A200050B85FEA400C5FEA1C6CF6D14FF00040D2
:104A3000A0F5800070470EF1020E2EF0030E5EF816
:104A4000044B244204D44FEA4102B2F17F4F11D803
:104A50004FEA4003B3F17F4F0CD80ED14FEAD07C20
:104A60000CEB4C0C0CF1020CB2F17F4F08BF4CEB7D
:104A7000D17C04E04FF0080C01E04FEAD17C0CEB54
:104A80004C0324FA03F404F00704B4F1040C06D236
:104A90000EEB840CBDE810404CF0010C6047DFE8E1
:104AA0000CF0070802024FF00040A0F5800010BD96
:104AB0000846420018BFD2F1807288BF00F0004063
:104AC00010BDFF2141EAD050C0057047FCF730B857
:104AD000000000000000000030313233343536373A
:104AE0003839414243444546403058003031323332
:104AF0003435363738396162636465664030780032
:104B00000400000800000000000000020001000096
:104B10001000000002400000000000A000000000A3
:104B200005400000000000C8000000000C4000002C
:104B30000000409C00000000194000000020BCBEA6
:104B40000000000034400000BFC91B8E00000004BC
:104B5000B5400000504BCFD06607E2CF0100000007
:104B60006C4100003E8251AADFEEA7340100000034
:104B7000D9420000DCB5A0E23A301F97FFFFFFFFEB
:104B8000B4450000FD25A0C8E9A3C14FFFFFFFFF0A
:104B9000FF3F00000000008000000000FF3F000019
:104BA0000000008000000000000000000000000085
:104BB00001020304060708090000000001020304C3
:104BC00063466C617368526561644461746173200B
:104BD0007569416464726573733A202530385820D2
:104BE000694C656E6774683A202564203E3D204616
:104BF0004C4153485F555345525F4D41585F4144C6
:104C000044522E0D0A0063466C61736857726974D2
:104C1000654461746173207569416464726573737E
:104C20003A202530385820694C656E6774683A2000
:104C30002564203E3D20464C4153485F5553455224
:104C40005F4D41585F414444522E0D0A0063466C4B
:104C50006173685772697465446174617320484177
:104C60004C5F464C41534845785F457261736520FF
:104C7000616464723A203078253038582065727249
:104C80006F722E0D0A007570646174653A20252ECE
:104C9000326625250D0A0075706461746520736F96
:104CA0007572636520616464723A2030782530380B
:104CB000582C2074617267657420616464723A20B4
:104CC0003078253038582C2066696C652073697AF5
:104CD000653A2025640D0A00284E000800000020D7
:104CE000100000006C010008384E00081000002081
:104CF00098320000880100081C00000043000000FA
:104D0000F8FFFFFF0C0000000E0000000F00000085
:104D10002E0000001001000043000000F8FFFFFF1C
:104D200000404040404040404040414141414140BE
:104D30004040404040404040404040404040404073
:104D40004005020202020202020202020202020202
:104D50000220202020202020202020020202020207
:104D6000020290909090909010101010101010105F
:104D7000101010101010101010101010020202026B
:104D800002028888888888880808080808080808AF
:104D900008080808080808080808080802020202AB
:104DA00040000000000000000000000000000000C3
:104DB00000000000000000000000000000000000F3
:104DC00000000000000000000000000000000000E3
:104DD00000000000000000000000000000000000D3
:104DE00000000000000000000000000000000000C3
:104DF00000000000000000000000000000000000B3
:104E000000000000000000000000000000000000A2
:104E10000000000000000000000000000000000092
:104E20000000000000000000010000000024F40069
:084E3000010000001000000069
:0400000508000131BD
:00000001FF
